{
  "address": "0x24eaCA97875ef560de23607eA47bd806e9BF12bf",
  "abi": [
    {
      "inputs": [
        {
          "internalType": "address payable",
          "name": "_otherBridge",
          "type": "address"
        }
      ],
      "stateMutability": "nonpayable",
      "type": "constructor"
    },
    {
      "inputs": [],
      "name": "MESSENGER",
      "outputs": [
        {
          "internalType": "contract CrossDomainMessenger",
          "name": "",
          "type": "address"
        }
      ],
      "stateMutability": "view",
      "type": "function"
    },
    {
      "inputs": [],
      "name": "OTHER_BRIDGE",
      "outputs": [
        {
          "internalType": "address",
          "name": "",
          "type": "address"
        }
      ],
      "stateMutability": "view",
      "type": "function"
    },
    {
      "inputs": [
        {
          "internalType": "bytes32[]",
          "name": "_versionHashes",
          "type": "bytes32[]"
        }
      ],
      "name": "appendSequencerBatchFromL1",
      "outputs": [],
      "stateMutability": "nonpayable",
      "type": "function"
    },
    {
      "inputs": [
        {
          "internalType": "bytes32",
          "name": "",
          "type": "bytes32"
        }
      ],
      "name": "podaMap",
      "outputs": [
        {
          "internalType": "bool",
          "name": "",
          "type": "bool"
        }
      ],
      "stateMutability": "view",
      "type": "function"
    },
    {
      "inputs": [],
      "name": "version",
      "outputs": [
        {
          "internalType": "string",
          "name": "",
          "type": "string"
        }
      ],
      "stateMutability": "view",
      "type": "function"
    }
  ],
  "transactionHash": "0xfdfc2b86a6ecfc4e3db79abc2992078c8cb5111908198b516bc71e0ae786deea",
  "args": [
    "0x9A79018d3A5df42D32b790c0093702D4ba87984D"
  ],
  "numDeployments": 1,
  "solcInputHash": "91898a4f0064c2156e3ea11e13d195e5",
  "bytecode": "0x61012060405234801561001157600080fd5b5060405161094e38038061094e83398101604081905261003091610069565b6001608052600060a081905260c05273420000000000000000000000000000000000000760e0526001600160a01b031661010052610099565b60006020828403121561007b57600080fd5b81516001600160a01b038116811461009257600080fd5b9392505050565b60805160a05160c05160e0516101005161085d6100f16000396000818160d701526101870152600081816101230152818161015d01526101be015260006103bc015260006103930152600061036a015261085d6000f3fe608060405234801561001057600080fd5b50600436106100675760003560e01c806366c0a4b41161005057806366c0a4b41461009f5780637f46ddb2146100d2578063927ede2d1461011e57600080fd5b80631daf41b01461006c57806354fd4d5014610081575b600080fd5b61007f61007a366004610543565b610145565b005b610089610363565b60405161009691906105e8565b60405180910390f35b6100c26100ad366004610639565b60006020819052908152604090205460ff1681565b6040519015158152602001610096565b6100f97f000000000000000000000000000000000000000000000000000000000000000081565b60405173ffffffffffffffffffffffffffffffffffffffff9091168152602001610096565b6100f97f000000000000000000000000000000000000000000000000000000000000000081565b3373ffffffffffffffffffffffffffffffffffffffff7f00000000000000000000000000000000000000000000000000000000000000001614801561026357507f000000000000000000000000000000000000000000000000000000000000000073ffffffffffffffffffffffffffffffffffffffff167f000000000000000000000000000000000000000000000000000000000000000073ffffffffffffffffffffffffffffffffffffffff16636e296e456040518163ffffffff1660e01b8152600401602060405180830381865afa158015610227573d6000803e3d6000fd5b505050506040513d601f19601f8201168201806040525081019061024b9190610652565b73ffffffffffffffffffffffffffffffffffffffff16145b6102f3576040517f08c379a000000000000000000000000000000000000000000000000000000000815260206004820152603f60248201527f4c324261746368496e626f783a2066756e6374696f6e2063616e206f6e6c792060448201527f62652063616c6c65642066726f6d20746865206f746865722062726964676500606482015260840160405180910390fd5b806102fd57600080fd5b60005b8181101561035e57600160008085858581811061031f5761031f61068f565b90506020020135815260200190815260200160002060006101000a81548160ff0219169083151502179055508080610356906106ed565b915050610300565b505050565b606061038e7f0000000000000000000000000000000000000000000000000000000000000000610406565b6103b77f0000000000000000000000000000000000000000000000000000000000000000610406565b6103e07f0000000000000000000000000000000000000000000000000000000000000000610406565b6040516020016103f293929190610725565b604051602081830303815290604052905090565b60608160000361044957505060408051808201909152600181527f3000000000000000000000000000000000000000000000000000000000000000602082015290565b8160005b8115610473578061045d816106ed565b915061046c9050600a836107ca565b915061044d565b60008167ffffffffffffffff81111561048e5761048e6107de565b6040519080825280601f01601f1916602001820160405280156104b8576020820181803683370190505b5090505b841561053b576104cd60018361080d565b91506104da600a86610824565b6104e5906030610838565b60f81b8183815181106104fa576104fa61068f565b60200101907effffffffffffffffffffffffffffffffffffffffffffffffffffffffffffff1916908160001a905350610534600a866107ca565b94506104bc565b949350505050565b6000806020838503121561055657600080fd5b823567ffffffffffffffff8082111561056e57600080fd5b818501915085601f83011261058257600080fd5b81358181111561059157600080fd5b8660208260051b85010111156105a657600080fd5b60209290920196919550909350505050565b60005b838110156105d35781810151838201526020016105bb565b838111156105e2576000848401525b50505050565b60208152600082518060208401526106078160408501602087016105b8565b601f017fffffffffffffffffffffffffffffffffffffffffffffffffffffffffffffffe0169190910160400192915050565b60006020828403121561064b57600080fd5b5035919050565b60006020828403121561066457600080fd5b815173ffffffffffffffffffffffffffffffffffffffff8116811461068857600080fd5b9392505050565b7f4e487b7100000000000000000000000000000000000000000000000000000000600052603260045260246000fd5b7f4e487b7100000000000000000000000000000000000000000000000000000000600052601160045260246000fd5b60007fffffffffffffffffffffffffffffffffffffffffffffffffffffffffffffffff820361071e5761071e6106be565b5060010190565b600084516107378184602089016105b8565b80830190507f2e000000000000000000000000000000000000000000000000000000000000008082528551610773816001850160208a016105b8565b6001920191820152835161078e8160028401602088016105b8565b0160020195945050505050565b7f4e487b7100000000000000000000000000000000000000000000000000000000600052601260045260246000fd5b6000826107d9576107d961079b565b500490565b7f4e487b7100000000000000000000000000000000000000000000000000000000600052604160045260246000fd5b60008282101561081f5761081f6106be565b500390565b6000826108335761083361079b565b500690565b6000821982111561084b5761084b6106be565b50019056fea164736f6c634300080f000a",
  "devdoc": {
    "version": 1,
    "kind": "dev",
    "methods": {
      "constructor": {
        "params": {
          "_otherBridge": "Address of the BatchInbox."
        }
      },
      "version()": {
        "returns": {
          "_0": "Semver contract version as a string."
        }
      }
    },
    "title": "L2BatchInbox"
  },
  "userdoc": {
    "version": 1,
    "kind": "user",
    "methods": {
      "MESSENGER()": {
        "notice": "Messenger contract on this domain."
      },
      "OTHER_BRIDGE()": {
        "notice": "BatchInbox on L1 is the only one who can call this through CrossDomainMessenger"
      },
      "appendSequencerBatchFromL1(bytes32[])": {
        "notice": "appends an array of valid version hashes to the chain, each VH is checked via the VH precompile."
      },
      "version()": {
        "notice": "Returns the full semver contract version."
      }
    },
    "notice": "The L2BatchInbox receives L1 PoDA messages and stores them in podaMap, useful for L3's which need DA from L1"
  },
  "storageLayout": {
    "storage": [
      {
        "astId": 3389,
        "contract": "contracts/L2/L2BatchInbox.sol:L2BatchInbox",
        "label": "podaMap",
        "offset": 0,
        "slot": "0",
        "type": "t_mapping(t_bytes32,t_bool)"
      }
    ],
    "types": {
      "t_bool": {
        "encoding": "inplace",
        "label": "bool",
        "numberOfBytes": "1"
      },
      "t_bytes32": {
        "encoding": "inplace",
        "label": "bytes32",
        "numberOfBytes": "32"
      },
      "t_mapping(t_bytes32,t_bool)": {
        "encoding": "mapping",
        "key": "t_bytes32",
        "label": "mapping(bytes32 => bool)",
        "numberOfBytes": "32",
        "value": "t_bool"
      }
    }
  }
}