{
  "address": "0x39CadECd381928F1330D1B2c13c8CAC358Dce65A",
  "abi": [
    {
      "inputs": [
        {
          "internalType": "address",
          "name": "_recipient",
          "type": "address"
        },
        {
          "internalType": "uint256",
          "name": "_minWithdrawalAmount",
          "type": "uint256"
        },
        {
          "internalType": "enum FeeVault.WithdrawalNetwork",
          "name": "_withdrawalNetwork",
          "type": "uint8"
        }
      ],
      "stateMutability": "nonpayable",
      "type": "constructor"
    },
    {
      "anonymous": false,
      "inputs": [
        {
          "indexed": false,
          "internalType": "uint256",
          "name": "value",
          "type": "uint256"
        },
        {
          "indexed": false,
          "internalType": "address",
          "name": "to",
          "type": "address"
        },
        {
          "indexed": false,
          "internalType": "address",
          "name": "from",
          "type": "address"
        }
      ],
      "name": "Withdrawal",
      "type": "event"
    },
    {
      "anonymous": false,
      "inputs": [
        {
          "indexed": false,
          "internalType": "uint256",
          "name": "value",
          "type": "uint256"
        },
        {
          "indexed": false,
          "internalType": "address",
          "name": "to",
          "type": "address"
        },
        {
          "indexed": false,
          "internalType": "address",
          "name": "from",
          "type": "address"
        },
        {
          "indexed": false,
          "internalType": "enum FeeVault.WithdrawalNetwork",
          "name": "withdrawalNetwork",
          "type": "uint8"
        }
      ],
      "name": "Withdrawal",
      "type": "event"
    },
    {
      "inputs": [],
      "name": "MIN_WITHDRAWAL_AMOUNT",
      "outputs": [
        {
          "internalType": "uint256",
          "name": "",
          "type": "uint256"
        }
      ],
      "stateMutability": "view",
      "type": "function"
    },
    {
      "inputs": [],
      "name": "RECIPIENT",
      "outputs": [
        {
          "internalType": "address",
          "name": "",
          "type": "address"
        }
      ],
      "stateMutability": "view",
      "type": "function"
    },
    {
      "inputs": [],
      "name": "WITHDRAWAL_NETWORK",
      "outputs": [
        {
          "internalType": "enum FeeVault.WithdrawalNetwork",
          "name": "",
          "type": "uint8"
        }
      ],
      "stateMutability": "view",
      "type": "function"
    },
    {
      "inputs": [],
      "name": "l1FeeWallet",
      "outputs": [
        {
          "internalType": "address",
          "name": "",
          "type": "address"
        }
      ],
      "stateMutability": "view",
      "type": "function"
    },
    {
      "inputs": [],
      "name": "totalProcessed",
      "outputs": [
        {
          "internalType": "uint256",
          "name": "",
          "type": "uint256"
        }
      ],
      "stateMutability": "view",
      "type": "function"
    },
    {
      "inputs": [],
      "name": "version",
      "outputs": [
        {
          "internalType": "string",
          "name": "",
          "type": "string"
        }
      ],
      "stateMutability": "view",
      "type": "function"
    },
    {
      "inputs": [],
      "name": "withdraw",
      "outputs": [],
      "stateMutability": "nonpayable",
      "type": "function"
    },
    {
      "stateMutability": "payable",
      "type": "receive"
    }
  ],
  "transactionHash": "0x48f871df43557ee06f1a690e6248caebd0509bffe24d02a4feef886bffdaee68",
  "args": [
    "0x5FBe15a6568140dB42B01092bC415a9B92ca4f58",
    "0x8ac7230489e80000",
    1
  ],
  "numDeployments": 1,
  "solcInputHash": "5d7c3679a42e4e615809a471ae7db729",
  "bytecode": "0x61014060405234801561001157600080fd5b50604051610bba380380610bba83398101604081905261003091610090565b6001600160a01b03831660a0526080829052600160026000858585808681111561005c5761005c6100e3565b60c0816001811115610070576100706100e3565b905250505060e0939093526101009190915261012052506100f992505050565b6000806000606084860312156100a557600080fd5b83516001600160a01b03811681146100bc57600080fd5b602085015160408601519194509250600281106100d857600080fd5b809150509250925092565b634e487b7160e01b600052602160045260246000fd5b60805160a05160c05160e0516101005161012051610a3b61017f600039600061054201526000610519015260006104f001526000818161014d0152818161039201526103cd0152600081816092015281816101bf015281816102e10152818161037001528181610407015261048801526000818161018e01526101e50152610a3b6000f3fe6080604052600436106100745760003560e01c806384411d651161004e57806384411d6514610117578063d0e12f901461013b578063d3e5792b1461017c578063d4ff9218146101b057600080fd5b80630d9019e1146100805780633ccfd60b146100de57806354fd4d50146100f557600080fd5b3661007b57005b600080fd5b34801561008c57600080fd5b506100b47f000000000000000000000000000000000000000000000000000000000000000081565b60405173ffffffffffffffffffffffffffffffffffffffff90911681526020015b60405180910390f35b3480156100ea57600080fd5b506100f36101e3565b005b34801561010157600080fd5b5061010a6104e9565b6040516100d59190610759565b34801561012357600080fd5b5061012d60005481565b6040519081526020016100d5565b34801561014757600080fd5b5061016f7f000000000000000000000000000000000000000000000000000000000000000081565b6040516100d591906107dd565b34801561018857600080fd5b5061012d7f000000000000000000000000000000000000000000000000000000000000000081565b3480156101bc57600080fd5b507f00000000000000000000000000000000000000000000000000000000000000006100b4565b7f00000000000000000000000000000000000000000000000000000000000000004710156102bd576040517f08c379a000000000000000000000000000000000000000000000000000000000815260206004820152604a60248201527f4665655661756c743a207769746864726177616c20616d6f756e74206d75737460448201527f2062652067726561746572207468616e206d696e696d756d207769746864726160648201527f77616c20616d6f756e7400000000000000000000000000000000000000000000608482015260a40160405180910390fd5b6000479050806000808282546102d39190610820565b9091555050604080518281527f000000000000000000000000000000000000000000000000000000000000000073ffffffffffffffffffffffffffffffffffffffff166020820152338183015290517fc8a211cc64b6ed1b50595a9fcb1932b6d1e5a6e8ef15b60e5b1f988ea9086bba9181900360600190a17f38e04cbeb8c10f8f568618aa75be0f10b6729b8b4237743b4de20cbcde2839ee817f0000000000000000000000000000000000000000000000000000000000000000337f00000000000000000000000000000000000000000000000000000000000000006040516103c19493929190610838565b60405180910390a160017f000000000000000000000000000000000000000000000000000000000000000060018111156103fd576103fd610773565b036104315761042d7f00000000000000000000000000000000000000000000000000000000000000005a8361058c565b5050565b604080516020810182526000815290517fe11013dd0000000000000000000000000000000000000000000000000000000081527342000000000000000000000000000000000000109163e11013dd9184916104b4917f0000000000000000000000000000000000000000000000000000000000000000916188b891600401610879565b6000604051808303818588803b1580156104cd57600080fd5b505af11580156104e1573d6000803e3d6000fd5b505050505050565b60606105147f00000000000000000000000000000000000000000000000000000000000000006105a2565b61053d7f00000000000000000000000000000000000000000000000000000000000000006105a2565b6105667f00000000000000000000000000000000000000000000000000000000000000006105a2565b604051602001610578939291906108b4565b604051602081830303815290604052905090565b600080600080600080868989f195945050505050565b6060816000036105e557505060408051808201909152600181527f3000000000000000000000000000000000000000000000000000000000000000602082015290565b8160005b811561060f57806105f98161092a565b91506106089050600a83610991565b91506105e9565b60008167ffffffffffffffff81111561062a5761062a6109a5565b6040519080825280601f01601f191660200182016040528015610654576020820181803683370190505b5090505b84156106d7576106696001836109d4565b9150610676600a866109eb565b610681906030610820565b60f81b818381518110610696576106966109ff565b60200101907effffffffffffffffffffffffffffffffffffffffffffffffffffffffffffff1916908160001a9053506106d0600a86610991565b9450610658565b949350505050565b60005b838110156106fa5781810151838201526020016106e2565b83811115610709576000848401525b50505050565b600081518084526107278160208601602086016106df565b601f017fffffffffffffffffffffffffffffffffffffffffffffffffffffffffffffffe0169290920160200192915050565b60208152600061076c602083018461070f565b9392505050565b7f4e487b7100000000000000000000000000000000000000000000000000000000600052602160045260246000fd5b600281106107d9577f4e487b7100000000000000000000000000000000000000000000000000000000600052602160045260246000fd5b9052565b602081016107eb82846107a2565b92915050565b7f4e487b7100000000000000000000000000000000000000000000000000000000600052601160045260246000fd5b60008219821115610833576108336107f1565b500190565b84815273ffffffffffffffffffffffffffffffffffffffff8481166020830152831660408201526080810161087060608301846107a2565b95945050505050565b73ffffffffffffffffffffffffffffffffffffffff8416815263ffffffff83166020820152606060408201526000610870606083018461070f565b600084516108c68184602089016106df565b80830190507f2e000000000000000000000000000000000000000000000000000000000000008082528551610902816001850160208a016106df565b6001920191820152835161091d8160028401602088016106df565b0160020195945050505050565b60007fffffffffffffffffffffffffffffffffffffffffffffffffffffffffffffffff820361095b5761095b6107f1565b5060010190565b7f4e487b7100000000000000000000000000000000000000000000000000000000600052601260045260246000fd5b6000826109a0576109a0610962565b500490565b7f4e487b7100000000000000000000000000000000000000000000000000000000600052604160045260246000fd5b6000828210156109e6576109e66107f1565b500390565b6000826109fa576109fa610962565b500690565b7f4e487b7100000000000000000000000000000000000000000000000000000000600052603260045260246000fdfea164736f6c634300080f000a",
  "devdoc": {},
  "userdoc": {}
}