{
  "address": "0xF8c84292fe2A4DCBB18a67c7283089A58234E294",
  "abi": [
    {
      "inputs": [
        {
          "internalType": "address payable",
          "name": "_messenger",
          "type": "address"
        }
      ],
      "stateMutability": "nonpayable",
      "type": "constructor"
    },
    {
      "anonymous": false,
      "inputs": [
        {
          "indexed": true,
          "internalType": "address",
          "name": "localToken",
          "type": "address"
        },
        {
          "indexed": true,
          "internalType": "address",
          "name": "remoteToken",
          "type": "address"
        },
        {
          "indexed": true,
          "internalType": "address",
          "name": "from",
          "type": "address"
        },
        {
          "indexed": false,
          "internalType": "address",
          "name": "to",
          "type": "address"
        },
        {
          "indexed": false,
          "internalType": "uint256",
          "name": "amount",
          "type": "uint256"
        },
        {
          "indexed": false,
          "internalType": "bytes",
          "name": "extraData",
          "type": "bytes"
        }
      ],
      "name": "ERC20BridgeFinalized",
      "type": "event"
    },
    {
      "anonymous": false,
      "inputs": [
        {
          "indexed": true,
          "internalType": "address",
          "name": "localToken",
          "type": "address"
        },
        {
          "indexed": true,
          "internalType": "address",
          "name": "remoteToken",
          "type": "address"
        },
        {
          "indexed": true,
          "internalType": "address",
          "name": "from",
          "type": "address"
        },
        {
          "indexed": false,
          "internalType": "address",
          "name": "to",
          "type": "address"
        },
        {
          "indexed": false,
          "internalType": "uint256",
          "name": "amount",
          "type": "uint256"
        },
        {
          "indexed": false,
          "internalType": "bytes",
          "name": "extraData",
          "type": "bytes"
        }
      ],
      "name": "ERC20BridgeInitiated",
      "type": "event"
    },
    {
      "anonymous": false,
      "inputs": [
        {
          "indexed": true,
          "internalType": "address",
          "name": "l1Token",
          "type": "address"
        },
        {
          "indexed": true,
          "internalType": "address",
          "name": "l2Token",
          "type": "address"
        },
        {
          "indexed": true,
          "internalType": "address",
          "name": "from",
          "type": "address"
        },
        {
          "indexed": false,
          "internalType": "address",
          "name": "to",
          "type": "address"
        },
        {
          "indexed": false,
          "internalType": "uint256",
          "name": "amount",
          "type": "uint256"
        },
        {
          "indexed": false,
          "internalType": "bytes",
          "name": "extraData",
          "type": "bytes"
        }
      ],
      "name": "ERC20DepositInitiated",
      "type": "event"
    },
    {
      "anonymous": false,
      "inputs": [
        {
          "indexed": true,
          "internalType": "address",
          "name": "l1Token",
          "type": "address"
        },
        {
          "indexed": true,
          "internalType": "address",
          "name": "l2Token",
          "type": "address"
        },
        {
          "indexed": true,
          "internalType": "address",
          "name": "from",
          "type": "address"
        },
        {
          "indexed": false,
          "internalType": "address",
          "name": "to",
          "type": "address"
        },
        {
          "indexed": false,
          "internalType": "uint256",
          "name": "amount",
          "type": "uint256"
        },
        {
          "indexed": false,
          "internalType": "bytes",
          "name": "extraData",
          "type": "bytes"
        }
      ],
      "name": "ERC20WithdrawalFinalized",
      "type": "event"
    },
    {
      "anonymous": false,
      "inputs": [
        {
          "indexed": true,
          "internalType": "address",
          "name": "from",
          "type": "address"
        },
        {
          "indexed": true,
          "internalType": "address",
          "name": "to",
          "type": "address"
        },
        {
          "indexed": false,
          "internalType": "uint256",
          "name": "amount",
          "type": "uint256"
        },
        {
          "indexed": false,
          "internalType": "bytes",
          "name": "extraData",
          "type": "bytes"
        }
      ],
      "name": "ETHBridgeFinalized",
      "type": "event"
    },
    {
      "anonymous": false,
      "inputs": [
        {
          "indexed": true,
          "internalType": "address",
          "name": "from",
          "type": "address"
        },
        {
          "indexed": true,
          "internalType": "address",
          "name": "to",
          "type": "address"
        },
        {
          "indexed": false,
          "internalType": "uint256",
          "name": "amount",
          "type": "uint256"
        },
        {
          "indexed": false,
          "internalType": "bytes",
          "name": "extraData",
          "type": "bytes"
        }
      ],
      "name": "ETHBridgeInitiated",
      "type": "event"
    },
    {
      "anonymous": false,
      "inputs": [
        {
          "indexed": true,
          "internalType": "address",
          "name": "from",
          "type": "address"
        },
        {
          "indexed": true,
          "internalType": "address",
          "name": "to",
          "type": "address"
        },
        {
          "indexed": false,
          "internalType": "uint256",
          "name": "amount",
          "type": "uint256"
        },
        {
          "indexed": false,
          "internalType": "bytes",
          "name": "extraData",
          "type": "bytes"
        }
      ],
      "name": "ETHDepositInitiated",
      "type": "event"
    },
    {
      "anonymous": false,
      "inputs": [
        {
          "indexed": true,
          "internalType": "address",
          "name": "from",
          "type": "address"
        },
        {
          "indexed": true,
          "internalType": "address",
          "name": "to",
          "type": "address"
        },
        {
          "indexed": false,
          "internalType": "uint256",
          "name": "amount",
          "type": "uint256"
        },
        {
          "indexed": false,
          "internalType": "bytes",
          "name": "extraData",
          "type": "bytes"
        }
      ],
      "name": "ETHWithdrawalFinalized",
      "type": "event"
    },
    {
      "inputs": [],
      "name": "MESSENGER",
      "outputs": [
        {
          "internalType": "contract CrossDomainMessenger",
          "name": "",
          "type": "address"
        }
      ],
      "stateMutability": "view",
      "type": "function"
    },
    {
      "inputs": [],
      "name": "OTHER_BRIDGE",
      "outputs": [
        {
          "internalType": "contract StandardBridge",
          "name": "",
          "type": "address"
        }
      ],
      "stateMutability": "view",
      "type": "function"
    },
    {
      "inputs": [],
      "name": "appendSequencerBatch",
      "outputs": [],
      "stateMutability": "view",
      "type": "function"
    },
    {
      "inputs": [],
      "name": "appendSequencerBatchToL2",
      "outputs": [],
      "stateMutability": "nonpayable",
      "type": "function"
    },
    {
      "inputs": [
        {
          "internalType": "address",
          "name": "_localToken",
          "type": "address"
        },
        {
          "internalType": "address",
          "name": "_remoteToken",
          "type": "address"
        },
        {
          "internalType": "uint256",
          "name": "_amount",
          "type": "uint256"
        },
        {
          "internalType": "uint32",
          "name": "_minGasLimit",
          "type": "uint32"
        },
        {
          "internalType": "bytes",
          "name": "_extraData",
          "type": "bytes"
        }
      ],
      "name": "bridgeERC20",
      "outputs": [],
      "stateMutability": "nonpayable",
      "type": "function"
    },
    {
      "inputs": [
        {
          "internalType": "address",
          "name": "_localToken",
          "type": "address"
        },
        {
          "internalType": "address",
          "name": "_remoteToken",
          "type": "address"
        },
        {
          "internalType": "address",
          "name": "_to",
          "type": "address"
        },
        {
          "internalType": "uint256",
          "name": "_amount",
          "type": "uint256"
        },
        {
          "internalType": "uint32",
          "name": "_minGasLimit",
          "type": "uint32"
        },
        {
          "internalType": "bytes",
          "name": "_extraData",
          "type": "bytes"
        }
      ],
      "name": "bridgeERC20To",
      "outputs": [],
      "stateMutability": "nonpayable",
      "type": "function"
    },
    {
      "inputs": [
        {
          "internalType": "uint32",
          "name": "_minGasLimit",
          "type": "uint32"
        },
        {
          "internalType": "bytes",
          "name": "_extraData",
          "type": "bytes"
        }
      ],
      "name": "bridgeETH",
      "outputs": [],
      "stateMutability": "payable",
      "type": "function"
    },
    {
      "inputs": [
        {
          "internalType": "address",
          "name": "_to",
          "type": "address"
        },
        {
          "internalType": "uint32",
          "name": "_minGasLimit",
          "type": "uint32"
        },
        {
          "internalType": "bytes",
          "name": "_extraData",
          "type": "bytes"
        }
      ],
      "name": "bridgeETHTo",
      "outputs": [],
      "stateMutability": "payable",
      "type": "function"
    },
    {
      "inputs": [
        {
          "internalType": "address",
          "name": "_l1Token",
          "type": "address"
        },
        {
          "internalType": "address",
          "name": "_l2Token",
          "type": "address"
        },
        {
          "internalType": "uint256",
          "name": "_amount",
          "type": "uint256"
        },
        {
          "internalType": "uint32",
          "name": "_minGasLimit",
          "type": "uint32"
        },
        {
          "internalType": "bytes",
          "name": "_extraData",
          "type": "bytes"
        }
      ],
      "name": "depositERC20",
      "outputs": [],
      "stateMutability": "nonpayable",
      "type": "function"
    },
    {
      "inputs": [
        {
          "internalType": "address",
          "name": "_l1Token",
          "type": "address"
        },
        {
          "internalType": "address",
          "name": "_l2Token",
          "type": "address"
        },
        {
          "internalType": "address",
          "name": "_to",
          "type": "address"
        },
        {
          "internalType": "uint256",
          "name": "_amount",
          "type": "uint256"
        },
        {
          "internalType": "uint32",
          "name": "_minGasLimit",
          "type": "uint32"
        },
        {
          "internalType": "bytes",
          "name": "_extraData",
          "type": "bytes"
        }
      ],
      "name": "depositERC20To",
      "outputs": [],
      "stateMutability": "nonpayable",
      "type": "function"
    },
    {
      "inputs": [
        {
          "internalType": "uint32",
          "name": "_minGasLimit",
          "type": "uint32"
        },
        {
          "internalType": "bytes",
          "name": "_extraData",
          "type": "bytes"
        }
      ],
      "name": "depositETH",
      "outputs": [],
      "stateMutability": "payable",
      "type": "function"
    },
    {
      "inputs": [
        {
          "internalType": "address",
          "name": "_to",
          "type": "address"
        },
        {
          "internalType": "uint32",
          "name": "_minGasLimit",
          "type": "uint32"
        },
        {
          "internalType": "bytes",
          "name": "_extraData",
          "type": "bytes"
        }
      ],
      "name": "depositETHTo",
      "outputs": [],
      "stateMutability": "payable",
      "type": "function"
    },
    {
      "inputs": [
        {
          "internalType": "address",
          "name": "",
          "type": "address"
        },
        {
          "internalType": "address",
          "name": "",
          "type": "address"
        }
      ],
      "name": "deposits",
      "outputs": [
        {
          "internalType": "uint256",
          "name": "",
          "type": "uint256"
        }
      ],
      "stateMutability": "view",
      "type": "function"
    },
    {
      "inputs": [
        {
          "internalType": "address",
          "name": "_localToken",
          "type": "address"
        },
        {
          "internalType": "address",
          "name": "_remoteToken",
          "type": "address"
        },
        {
          "internalType": "address",
          "name": "_from",
          "type": "address"
        },
        {
          "internalType": "address",
          "name": "_to",
          "type": "address"
        },
        {
          "internalType": "uint256",
          "name": "_amount",
          "type": "uint256"
        },
        {
          "internalType": "bytes",
          "name": "_extraData",
          "type": "bytes"
        }
      ],
      "name": "finalizeBridgeERC20",
      "outputs": [],
      "stateMutability": "nonpayable",
      "type": "function"
    },
    {
      "inputs": [
        {
          "internalType": "address",
          "name": "_from",
          "type": "address"
        },
        {
          "internalType": "address",
          "name": "_to",
          "type": "address"
        },
        {
          "internalType": "uint256",
          "name": "_amount",
          "type": "uint256"
        },
        {
          "internalType": "bytes",
          "name": "_extraData",
          "type": "bytes"
        }
      ],
      "name": "finalizeBridgeETH",
      "outputs": [],
      "stateMutability": "payable",
      "type": "function"
    },
    {
      "inputs": [
        {
          "internalType": "address",
          "name": "_l1Token",
          "type": "address"
        },
        {
          "internalType": "address",
          "name": "_l2Token",
          "type": "address"
        },
        {
          "internalType": "address",
          "name": "_from",
          "type": "address"
        },
        {
          "internalType": "address",
          "name": "_to",
          "type": "address"
        },
        {
          "internalType": "uint256",
          "name": "_amount",
          "type": "uint256"
        },
        {
          "internalType": "bytes",
          "name": "_extraData",
          "type": "bytes"
        }
      ],
      "name": "finalizeERC20Withdrawal",
      "outputs": [],
      "stateMutability": "nonpayable",
      "type": "function"
    },
    {
      "inputs": [
        {
          "internalType": "address",
          "name": "_from",
          "type": "address"
        },
        {
          "internalType": "address",
          "name": "_to",
          "type": "address"
        },
        {
          "internalType": "uint256",
          "name": "_amount",
          "type": "uint256"
        },
        {
          "internalType": "bytes",
          "name": "_extraData",
          "type": "bytes"
        }
      ],
      "name": "finalizeETHWithdrawal",
      "outputs": [],
      "stateMutability": "payable",
      "type": "function"
    },
    {
      "inputs": [],
      "name": "l2TokenBridge",
      "outputs": [
        {
          "internalType": "address",
          "name": "",
          "type": "address"
        }
      ],
      "stateMutability": "view",
      "type": "function"
    },
    {
      "inputs": [],
      "name": "messenger",
      "outputs": [
        {
          "internalType": "contract CrossDomainMessenger",
          "name": "",
          "type": "address"
        }
      ],
      "stateMutability": "view",
      "type": "function"
    },
    {
      "inputs": [],
      "name": "version",
      "outputs": [
        {
          "internalType": "string",
          "name": "",
          "type": "string"
        }
      ],
      "stateMutability": "view",
      "type": "function"
    },
    {
      "stateMutability": "payable",
      "type": "receive"
    }
  ],
  "transactionHash": "0x3722dc9afcad2de4f04cee3517091d999b4c23332e4db5a538f7ae841ed0d011",
  "args": [
    "0xae5Ded57631D96E2ff785AAE467B5C9a755E3615"
  ],
  "numDeployments": 1,
  "solcInputHash": "a38e45a6ee0fd3bc54175ae04961b2d8",
  "bytecode": "0x6101206040523480156200001257600080fd5b5060405162002fc338038062002fc383398101604081905262000035916200006f565b6001600160a01b031660805273420000000000000000000000000000000000001060a052600160c081905260e052600061010052620000a1565b6000602082840312156200008257600080fd5b81516001600160a01b03811681146200009a57600080fd5b9392505050565b60805160a05160c05160e05161010051612e7b62000148600039600061115001526000611127015260006110fe01526000818161035c015281816104130152818161052e01528181610a0f015281816116410152611cf3015260008181610289015281816104490152818161050401528181610565015281816109e501528181610a4601528181610cd301528181610fb8015281816116040152611cb70152612e7b6000f3fe6080604052600436106101635760003560e01c8063838b2520116100c05780639a2ac6d511610074578063b1a1a88211610059578063b1a1a8821461049e578063d0f89344146104b1578063e11013dd146104c657600080fd5b80639a2ac6d51461046b578063a9f9e6751461047e57600080fd5b80638f601f66116100a55780638f601f66146103be57806391c49bf814610404578063927ede2d1461043757600080fd5b8063838b25201461037e578063870876231461039e57600080fd5b80634e1fcfc51161011757806354fd4d50116100fc57806354fd4d501461030857806358a997f61461032a5780637f46ddb21461034a57600080fd5b80634e1fcfc5146102d3578063540abf73146102e857600080fd5b80631532ec34116101485780631532ec34146102545780631635f5fd146102675780633cb747bf1461027a57600080fd5b80630166a07a1461022157806309fc88431461024157600080fd5b3661021c57333b156101fc576040517f08c379a000000000000000000000000000000000000000000000000000000000815260206004820152603760248201527f5374616e646172644272696467653a2066756e6374696f6e2063616e206f6e6c60448201527f792062652063616c6c65642066726f6d20616e20454f4100000000000000000060648201526084015b60405180910390fd5b61021a333362030d40604051806020016040528060008152506104d9565b005b600080fd5b34801561022d57600080fd5b5061021a61023c36600461272f565b6104ec565b61021a61024f3660046127e0565b6108e2565b61021a610262366004612833565b6109b9565b61021a610275366004612833565b6109cd565b34801561028657600080fd5b507f00000000000000000000000000000000000000000000000000000000000000005b60405173ffffffffffffffffffffffffffffffffffffffff90911681526020015b60405180910390f35b3480156102df57600080fd5b5061021a610ea2565b3480156102f457600080fd5b5061021a6103033660046128a6565b6110b2565b34801561031457600080fd5b5061031d6110f7565b6040516102ca9190612993565b34801561033657600080fd5b5061021a6103453660046129a6565b61119a565b34801561035657600080fd5b506102a97f000000000000000000000000000000000000000000000000000000000000000081565b34801561038a57600080fd5b5061021a6103993660046128a6565b61126e565b3480156103aa57600080fd5b5061021a6103b93660046129a6565b6112b3565b3480156103ca57600080fd5b506103f66103d9366004612a29565b600260209081526000928352604080842090915290825290205481565b6040519081526020016102ca565b34801561041057600080fd5b507f00000000000000000000000000000000000000000000000000000000000000006102a9565b34801561044357600080fd5b506102a97f000000000000000000000000000000000000000000000000000000000000000081565b61021a610479366004612a62565b611387565b34801561048a57600080fd5b5061021a61049936600461272f565b6113c9565b61021a6104ac3660046127e0565b6113d8565b3480156104bd57600080fd5b5061021a6114a9565b61021a6104d4366004612a62565b611524565b6104e68484348585611567565b50505050565b3373ffffffffffffffffffffffffffffffffffffffff7f00000000000000000000000000000000000000000000000000000000000000001614801561060a57507f000000000000000000000000000000000000000000000000000000000000000073ffffffffffffffffffffffffffffffffffffffff167f000000000000000000000000000000000000000000000000000000000000000073ffffffffffffffffffffffffffffffffffffffff16636e296e456040518163ffffffff1660e01b8152600401602060405180830381865afa1580156105ce573d6000803e3d6000fd5b505050506040513d601f19601f820116820180604052508101906105f29190612ac5565b73ffffffffffffffffffffffffffffffffffffffff16145b6106bc576040517f08c379a000000000000000000000000000000000000000000000000000000000815260206004820152604160248201527f5374616e646172644272696467653a2066756e6374696f6e2063616e206f6e6c60448201527f792062652063616c6c65642066726f6d20746865206f7468657220627269646760648201527f6500000000000000000000000000000000000000000000000000000000000000608482015260a4016101f3565b6106c58761174b565b15610813576106d487876117ad565b610786576040517f08c379a000000000000000000000000000000000000000000000000000000000815260206004820152604a60248201527f5374616e646172644272696467653a2077726f6e672072656d6f746520746f6b60448201527f656e20666f72204f7074696d69736d204d696e7461626c65204552433230206c60648201527f6f63616c20746f6b656e00000000000000000000000000000000000000000000608482015260a4016101f3565b6040517f40c10f1900000000000000000000000000000000000000000000000000000000815273ffffffffffffffffffffffffffffffffffffffff8581166004830152602482018590528816906340c10f1990604401600060405180830381600087803b1580156107f657600080fd5b505af115801561080a573d6000803e3d6000fd5b50505050610895565b73ffffffffffffffffffffffffffffffffffffffff8088166000908152600260209081526040808320938a1683529290522054610851908490612b11565b73ffffffffffffffffffffffffffffffffffffffff8089166000818152600260209081526040808320948c16835293905291909120919091556108959085856118cd565b6108d9878787878787878080601f0160208091040260200160405190810160405280939291908181526020018383808284376000920191909152506119a192505050565b50505050505050565b333b15610971576040517f08c379a000000000000000000000000000000000000000000000000000000000815260206004820152603760248201527f5374616e646172644272696467653a2066756e6374696f6e2063616e206f6e6c60448201527f792062652063616c6c65642066726f6d20616e20454f4100000000000000000060648201526084016101f3565b6109b43333348686868080601f01602080910402602001604051908101604052809392919081815260200183838082843760009201919091525061156792505050565b505050565b6109c685858585856109cd565b5050505050565b3373ffffffffffffffffffffffffffffffffffffffff7f000000000000000000000000000000000000000000000000000000000000000016148015610aeb57507f000000000000000000000000000000000000000000000000000000000000000073ffffffffffffffffffffffffffffffffffffffff167f000000000000000000000000000000000000000000000000000000000000000073ffffffffffffffffffffffffffffffffffffffff16636e296e456040518163ffffffff1660e01b8152600401602060405180830381865afa158015610aaf573d6000803e3d6000fd5b505050506040513d601f19601f82011682018060405250810190610ad39190612ac5565b73ffffffffffffffffffffffffffffffffffffffff16145b610b9d576040517f08c379a000000000000000000000000000000000000000000000000000000000815260206004820152604160248201527f5374616e646172644272696467653a2066756e6374696f6e2063616e206f6e6c60448201527f792062652063616c6c65642066726f6d20746865206f7468657220627269646760648201527f6500000000000000000000000000000000000000000000000000000000000000608482015260a4016101f3565b823414610c2c576040517f08c379a000000000000000000000000000000000000000000000000000000000815260206004820152603a60248201527f5374616e646172644272696467653a20616d6f756e742073656e7420646f657360448201527f206e6f74206d6174636820616d6f756e7420726571756972656400000000000060648201526084016101f3565b3073ffffffffffffffffffffffffffffffffffffffff851603610cd1576040517f08c379a000000000000000000000000000000000000000000000000000000000815260206004820152602360248201527f5374616e646172644272696467653a2063616e6e6f742073656e6420746f207360448201527f656c66000000000000000000000000000000000000000000000000000000000060648201526084016101f3565b7f000000000000000000000000000000000000000000000000000000000000000073ffffffffffffffffffffffffffffffffffffffff168473ffffffffffffffffffffffffffffffffffffffff1603610dac576040517f08c379a000000000000000000000000000000000000000000000000000000000815260206004820152602860248201527f5374616e646172644272696467653a2063616e6e6f742073656e6420746f206d60448201527f657373656e67657200000000000000000000000000000000000000000000000060648201526084016101f3565b610dee85858585858080601f016020809104026020016040519081016040528093929190818152602001838380828437600092019190915250611a2f92505050565b6000610e0b855a8660405180602001604052806000815250611aa2565b905080610e9a576040517f08c379a000000000000000000000000000000000000000000000000000000000815260206004820152602360248201527f5374616e646172644272696467653a20455448207472616e736665722066616960448201527f6c6564000000000000000000000000000000000000000000000000000000000060648201526084016101f3565b505050505050565b600063d0f8934460e01b600036604051602401610ec0929190612b28565b604080517fffffffffffffffffffffffffffffffffffffffffffffffffffffffffffffffe0818403018152919052602080820180517bffffffffffffffffffffffffffffffffffffffffffffffffffffffff167fffffffff00000000000000000000000000000000000000000000000000000000909416939093179092529150610f4b600436612b11565b610f559190612ba4565b15610f5f57600080fd5b60045b610f6d602036612b11565b8111610fb6576040516020828237602081016040526000806020836063610578fa905080801561021c573d610fa157600080fd5b50610faf9050602082612bb8565b9050610f62565b7f000000000000000000000000000000000000000000000000000000000000000073ffffffffffffffffffffffffffffffffffffffff16633dbb202b3073ffffffffffffffffffffffffffffffffffffffff166391c49bf86040518163ffffffff1660e01b8152600401602060405180830381865afa15801561103d573d6000803e3d6000fd5b505050506040513d601f19601f820116820180604052508101906110619190612ac5565b8462030d406040518463ffffffff1660e01b815260040161108493929190612bd0565b600060405180830381600087803b15801561109e57600080fd5b505af1158015610e9a573d6000803e3d6000fd5b6108d987873388888888888080601f016020809104026020016040519081016040528093929190818152602001838380828437600092019190915250611abc92505050565b60606111227f0000000000000000000000000000000000000000000000000000000000000000611e03565b61114b7f0000000000000000000000000000000000000000000000000000000000000000611e03565b6111747f0000000000000000000000000000000000000000000000000000000000000000611e03565b60405160200161118693929190612c15565b604051602081830303815290604052905090565b333b15611229576040517f08c379a000000000000000000000000000000000000000000000000000000000815260206004820152603760248201527f5374616e646172644272696467653a2066756e6374696f6e2063616e206f6e6c60448201527f792062652063616c6c65642066726f6d20616e20454f4100000000000000000060648201526084016101f3565b610e9a86863333888888888080601f016020809104026020016040519081016040528093929190818152602001838380828437600092019190915250611f4092505050565b6108d987873388888888888080601f016020809104026020016040519081016040528093929190818152602001838380828437600092019190915250611f4092505050565b333b15611342576040517f08c379a000000000000000000000000000000000000000000000000000000000815260206004820152603760248201527f5374616e646172644272696467653a2066756e6374696f6e2063616e206f6e6c60448201527f792062652063616c6c65642066726f6d20616e20454f4100000000000000000060648201526084016101f3565b610e9a86863333888888888080601f016020809104026020016040519081016040528093929190818152602001838380828437600092019190915250611abc92505050565b6104e633858585858080601f0160208091040260200160405190810160405280939291908181526020018383808284376000920191909152506104d992505050565b6108d9878787878787876104ec565b333b15611467576040517f08c379a000000000000000000000000000000000000000000000000000000000815260206004820152603760248201527f5374616e646172644272696467653a2066756e6374696f6e2063616e206f6e6c60448201527f792062652063616c6c65642066726f6d20616e20454f4100000000000000000060648201526084016101f3565b6109b433338585858080601f0160208091040260200160405190810160405280939291908181526020018383808284376000920191909152506104d992505050565b60206114b6600436612b11565b6114c09190612ba4565b156114ca57600080fd5b60045b6114d8602036612b11565b8111611521576040516020828237602081016040526000806020836063610578fa905080801561021c573d61150c57600080fd5b5061151a9050602082612bb8565b90506114cd565b50565b6104e63385348686868080601f01602080910402602001604051908101604052809392919081815260200183838082843760009201919091525061156792505050565b8234146115f6576040517f08c379a000000000000000000000000000000000000000000000000000000000815260206004820152603e60248201527f5374616e646172644272696467653a206272696467696e6720455448206d757360448201527f7420696e636c7564652073756666696369656e74204554482076616c7565000060648201526084016101f3565b61160285858584611f4f565b7f000000000000000000000000000000000000000000000000000000000000000073ffffffffffffffffffffffffffffffffffffffff16633dbb202b847f0000000000000000000000000000000000000000000000000000000000000000631635f5fd60e01b8989898860405160240161167f9493929190612c8b565b604080517fffffffffffffffffffffffffffffffffffffffffffffffffffffffffffffffe08184030181529181526020820180517bffffffffffffffffffffffffffffffffffffffffffffffffffffffff167fffffffff000000000000000000000000000000000000000000000000000000009485161790525160e086901b909216825261171292918890600401612bd0565b6000604051808303818588803b15801561172b57600080fd5b505af115801561173f573d6000803e3d6000fd5b50505050505050505050565b6000611777827f1d1d8b6300000000000000000000000000000000000000000000000000000000611fc2565b806117a757506117a7827fec4fc8e300000000000000000000000000000000000000000000000000000000611fc2565b92915050565b60006117d9837f1d1d8b6300000000000000000000000000000000000000000000000000000000611fc2565b15611882578273ffffffffffffffffffffffffffffffffffffffff1663c01e1bd66040518163ffffffff1660e01b8152600401602060405180830381865afa158015611829573d6000803e3d6000fd5b505050506040513d601f19601f8201168201806040525081019061184d9190612ac5565b73ffffffffffffffffffffffffffffffffffffffff168273ffffffffffffffffffffffffffffffffffffffff161490506117a7565b8273ffffffffffffffffffffffffffffffffffffffff1663d6c0b2c46040518163ffffffff1660e01b8152600401602060405180830381865afa158015611829573d6000803e3d6000fd5b60405173ffffffffffffffffffffffffffffffffffffffff83166024820152604481018290526109b49084907fa9059cbb00000000000000000000000000000000000000000000000000000000906064015b604080517fffffffffffffffffffffffffffffffffffffffffffffffffffffffffffffffe08184030181529190526020810180517bffffffffffffffffffffffffffffffffffffffffffffffffffffffff167fffffffff0000000000000000000000000000000000000000000000000000000090931692909217909152611fe5565b8373ffffffffffffffffffffffffffffffffffffffff168573ffffffffffffffffffffffffffffffffffffffff168773ffffffffffffffffffffffffffffffffffffffff167f3ceee06c1e37648fcbb6ed52e17b3e1f275a1f8c7b22a84b2b84732431e046b3868686604051611a1993929190612cd4565b60405180910390a4610e9a8686868686866120f1565b8273ffffffffffffffffffffffffffffffffffffffff168473ffffffffffffffffffffffffffffffffffffffff167f2ac69ee804d9a7a0984249f508dfab7cb2534b465b6ce1580f99a38ba9c5e6318484604051611a8e929190612d12565b60405180910390a36104e684848484612179565b600080600080845160208601878a8af19695505050505050565b611ac58761174b565b15611c1357611ad487876117ad565b611b86576040517f08c379a000000000000000000000000000000000000000000000000000000000815260206004820152604a60248201527f5374616e646172644272696467653a2077726f6e672072656d6f746520746f6b60448201527f656e20666f72204f7074696d69736d204d696e7461626c65204552433230206c60648201527f6f63616c20746f6b656e00000000000000000000000000000000000000000000608482015260a4016101f3565b6040517f9dc29fac00000000000000000000000000000000000000000000000000000000815273ffffffffffffffffffffffffffffffffffffffff868116600483015260248201859052881690639dc29fac90604401600060405180830381600087803b158015611bf657600080fd5b505af1158015611c0a573d6000803e3d6000fd5b50505050611ca7565b611c3573ffffffffffffffffffffffffffffffffffffffff88168630866121e6565b73ffffffffffffffffffffffffffffffffffffffff8088166000908152600260209081526040808320938a1683529290522054611c73908490612bb8565b73ffffffffffffffffffffffffffffffffffffffff8089166000908152600260209081526040808320938b16835292905220555b611cb5878787878786612244565b7f000000000000000000000000000000000000000000000000000000000000000073ffffffffffffffffffffffffffffffffffffffff16633dbb202b7f0000000000000000000000000000000000000000000000000000000000000000630166a07a60e01b898b8a8a8a89604051602401611d3596959493929190612d2b565b604080517fffffffffffffffffffffffffffffffffffffffffffffffffffffffffffffffe08184030181529181526020820180517bffffffffffffffffffffffffffffffffffffffffffffffffffffffff167fffffffff000000000000000000000000000000000000000000000000000000009485161790525160e085901b9092168252611dc892918790600401612bd0565b600060405180830381600087803b158015611de257600080fd5b505af1158015611df6573d6000803e3d6000fd5b5050505050505050505050565b606081600003611e4657505060408051808201909152600181527f3000000000000000000000000000000000000000000000000000000000000000602082015290565b8160005b8115611e705780611e5a81612d86565b9150611e699050600a83612dbe565b9150611e4a565b60008167ffffffffffffffff811115611e8b57611e8b612dd2565b6040519080825280601f01601f191660200182016040528015611eb5576020820181803683370190505b5090505b8415611f3857611eca600183612b11565b9150611ed7600a86612ba4565b611ee2906030612bb8565b60f81b818381518110611ef757611ef7612e01565b60200101907effffffffffffffffffffffffffffffffffffffffffffffffffffffffffffff1916908160001a905350611f31600a86612dbe565b9450611eb9565b949350505050565b6108d987878787878787611abc565b8273ffffffffffffffffffffffffffffffffffffffff168473ffffffffffffffffffffffffffffffffffffffff167f35d79ab81f2b2017e19afb5c5571778877782d7a8786f5907f93b0f4702f4f238484604051611fae929190612d12565b60405180910390a36104e6848484846122d2565b6000611fcd83612331565b8015611fde5750611fde8383612395565b9392505050565b6000612047826040518060400160405280602081526020017f5361666545524332303a206c6f772d6c6576656c2063616c6c206661696c65648152508573ffffffffffffffffffffffffffffffffffffffff166124649092919063ffffffff16565b8051909150156109b457808060200190518101906120659190612e30565b6109b4576040517f08c379a000000000000000000000000000000000000000000000000000000000815260206004820152602a60248201527f5361666545524332303a204552433230206f7065726174696f6e20646964206e60448201527f6f7420737563636565640000000000000000000000000000000000000000000060648201526084016101f3565b8373ffffffffffffffffffffffffffffffffffffffff168573ffffffffffffffffffffffffffffffffffffffff168773ffffffffffffffffffffffffffffffffffffffff167fd59c65b35445225835c83f50b6ede06a7be047d22e357073e250d9af537518cd86868660405161216993929190612cd4565b60405180910390a4505050505050565b8273ffffffffffffffffffffffffffffffffffffffff168473ffffffffffffffffffffffffffffffffffffffff167f31b2166ff604fc5672ea5df08a78081d2bc6d746cadce880747f3643d819e83d84846040516121d8929190612d12565b60405180910390a350505050565b60405173ffffffffffffffffffffffffffffffffffffffff808516602483015283166044820152606481018290526104e69085907f23b872dd000000000000000000000000000000000000000000000000000000009060840161191f565b8373ffffffffffffffffffffffffffffffffffffffff168573ffffffffffffffffffffffffffffffffffffffff168773ffffffffffffffffffffffffffffffffffffffff167f718594027abd4eaed59f95162563e0cc6d0e8d5b86b1c7be8b1b0ac3343d03968686866040516122bc93929190612cd4565b60405180910390a4610e9a868686868686612473565b8273ffffffffffffffffffffffffffffffffffffffff168473ffffffffffffffffffffffffffffffffffffffff167f2849b43074093a05396b6f2a937dee8565b15a48a7b3d4bffb732a5017380af584846040516121d8929190612d12565b600061235d827f01ffc9a700000000000000000000000000000000000000000000000000000000612395565b80156117a7575061238e827fffffffff00000000000000000000000000000000000000000000000000000000612395565b1592915050565b604080517fffffffff000000000000000000000000000000000000000000000000000000008316602480830191909152825180830390910181526044909101909152602080820180517bffffffffffffffffffffffffffffffffffffffffffffffffffffffff167f01ffc9a700000000000000000000000000000000000000000000000000000000178152825160009392849283928392918391908a617530fa92503d9150600051905082801561244d575060208210155b80156124595750600081115b979650505050505050565b6060611f3884846000856124eb565b8373ffffffffffffffffffffffffffffffffffffffff168573ffffffffffffffffffffffffffffffffffffffff168773ffffffffffffffffffffffffffffffffffffffff167f7ff126db8024424bbfd9826e8ab82ff59136289ea440b04b39a0df1b03b9cabf86868660405161216993929190612cd4565b60608247101561257d576040517f08c379a000000000000000000000000000000000000000000000000000000000815260206004820152602660248201527f416464726573733a20696e73756666696369656e742062616c616e636520666f60448201527f722063616c6c000000000000000000000000000000000000000000000000000060648201526084016101f3565b73ffffffffffffffffffffffffffffffffffffffff85163b6125fb576040517f08c379a000000000000000000000000000000000000000000000000000000000815260206004820152601d60248201527f416464726573733a2063616c6c20746f206e6f6e2d636f6e747261637400000060448201526064016101f3565b6000808673ffffffffffffffffffffffffffffffffffffffff1685876040516126249190612e52565b60006040518083038185875af1925050503d8060008114612661576040519150601f19603f3d011682016040523d82523d6000602084013e612666565b606091505b509150915061245982828660608315612680575081611fde565b8251156126905782518084602001fd5b816040517f08c379a00000000000000000000000000000000000000000000000000000000081526004016101f39190612993565b73ffffffffffffffffffffffffffffffffffffffff8116811461152157600080fd5b60008083601f8401126126f857600080fd5b50813567ffffffffffffffff81111561271057600080fd5b60208301915083602082850101111561272857600080fd5b9250929050565b600080600080600080600060c0888a03121561274a57600080fd5b8735612755816126c4565b96506020880135612765816126c4565b95506040880135612775816126c4565b94506060880135612785816126c4565b93506080880135925060a088013567ffffffffffffffff8111156127a857600080fd5b6127b48a828b016126e6565b989b979a50959850939692959293505050565b803563ffffffff811681146127db57600080fd5b919050565b6000806000604084860312156127f557600080fd5b6127fe846127c7565b9250602084013567ffffffffffffffff81111561281a57600080fd5b612826868287016126e6565b9497909650939450505050565b60008060008060006080868803121561284b57600080fd5b8535612856816126c4565b94506020860135612866816126c4565b935060408601359250606086013567ffffffffffffffff81111561288957600080fd5b612895888289016126e6565b969995985093965092949392505050565b600080600080600080600060c0888a0312156128c157600080fd5b87356128cc816126c4565b965060208801356128dc816126c4565b955060408801356128ec816126c4565b945060608801359350612901608089016127c7565b925060a088013567ffffffffffffffff8111156127a857600080fd5b60005b83811015612938578181015183820152602001612920565b838111156104e65750506000910152565b6000815180845261296181602086016020860161291d565b601f017fffffffffffffffffffffffffffffffffffffffffffffffffffffffffffffffe0169290920160200192915050565b602081526000611fde6020830184612949565b60008060008060008060a087890312156129bf57600080fd5b86356129ca816126c4565b955060208701356129da816126c4565b9450604087013593506129ef606088016127c7565b9250608087013567ffffffffffffffff811115612a0b57600080fd5b612a1789828a016126e6565b979a9699509497509295939492505050565b60008060408385031215612a3c57600080fd5b8235612a47816126c4565b91506020830135612a57816126c4565b809150509250929050565b60008060008060608587031215612a7857600080fd5b8435612a83816126c4565b9350612a91602086016127c7565b9250604085013567ffffffffffffffff811115612aad57600080fd5b612ab9878288016126e6565b95989497509550505050565b600060208284031215612ad757600080fd5b8151611fde816126c4565b7f4e487b7100000000000000000000000000000000000000000000000000000000600052601160045260246000fd5b600082821015612b2357612b23612ae2565b500390565b60208152816020820152818360408301376000818301604090810191909152601f9092017fffffffffffffffffffffffffffffffffffffffffffffffffffffffffffffffe0160101919050565b7f4e487b7100000000000000000000000000000000000000000000000000000000600052601260045260246000fd5b600082612bb357612bb3612b75565b500690565b60008219821115612bcb57612bcb612ae2565b500190565b73ffffffffffffffffffffffffffffffffffffffff84168152606060208201526000612bff6060830185612949565b905063ffffffff83166040830152949350505050565b60008451612c2781846020890161291d565b80830190507f2e000000000000000000000000000000000000000000000000000000000000008082528551612c63816001850160208a0161291d565b60019201918201528351612c7e81600284016020880161291d565b0160020195945050505050565b600073ffffffffffffffffffffffffffffffffffffffff808716835280861660208401525083604083015260806060830152612cca6080830184612949565b9695505050505050565b73ffffffffffffffffffffffffffffffffffffffff84168152826020820152606060408201526000612d096060830184612949565b95945050505050565b828152604060208201526000611f386040830184612949565b600073ffffffffffffffffffffffffffffffffffffffff80891683528088166020840152808716604084015280861660608401525083608083015260c060a0830152612d7a60c0830184612949565b98975050505050505050565b60007fffffffffffffffffffffffffffffffffffffffffffffffffffffffffffffffff8203612db757612db7612ae2565b5060010190565b600082612dcd57612dcd612b75565b500490565b7f4e487b7100000000000000000000000000000000000000000000000000000000600052604160045260246000fd5b7f4e487b7100000000000000000000000000000000000000000000000000000000600052603260045260246000fd5b600060208284031215612e4257600080fd5b81518015158114611fde57600080fd5b60008251612e6481846020870161291d565b919091019291505056fea164736f6c634300080f000a",
  "devdoc": {
    "version": 1,
    "kind": "dev",
    "methods": {
      "bridgeERC20(address,address,uint256,uint32,bytes)": {
        "params": {
          "_amount": "Amount of local tokens to deposit.",
          "_extraData": "Extra data to be sent with the transaction. Note that the recipient will                     not be triggered with this data, but it will be emitted and can be used                     to identify the transaction.",
          "_localToken": "Address of the ERC20 on this chain.",
          "_minGasLimit": "Minimum amount of gas that the bridge can be relayed with.",
          "_remoteToken": "Address of the corresponding token on the remote chain."
        }
      },
      "bridgeERC20To(address,address,address,uint256,uint32,bytes)": {
        "params": {
          "_amount": "Amount of local tokens to deposit.",
          "_extraData": "Extra data to be sent with the transaction. Note that the recipient will                     not be triggered with this data, but it will be emitted and can be used                     to identify the transaction.",
          "_localToken": "Address of the ERC20 on this chain.",
          "_minGasLimit": "Minimum amount of gas that the bridge can be relayed with.",
          "_remoteToken": "Address of the corresponding token on the remote chain.",
          "_to": "Address of the receiver."
        }
      },
      "bridgeETH(uint32,bytes)": {
        "params": {
          "_extraData": "Extra data to be sent with the transaction. Note that the recipient will                     not be triggered with this data, but it will be emitted and can be used                     to identify the transaction.",
          "_minGasLimit": "Minimum amount of gas that the bridge can be relayed with."
        }
      },
      "bridgeETHTo(address,uint32,bytes)": {
        "params": {
          "_extraData": "Extra data to be sent with the transaction. Note that the recipient will                     not be triggered with this data, but it will be emitted and can be used                     to identify the transaction.",
          "_minGasLimit": "Minimum amount of gas that the bridge can be relayed with.",
          "_to": "Address of the receiver."
        }
      },
      "constructor": {
        "params": {
          "_messenger": "Address of the L1CrossDomainMessenger."
        }
      },
      "depositERC20(address,address,uint256,uint32,bytes)": {
        "params": {
          "_amount": "Amount of the ERC20 to deposit.",
          "_extraData": "Optional data to forward to L2. Data supplied here will not be used to                     execute any code on L2 and is only emitted as extra data for the                     convenience of off-chain tooling.",
          "_l1Token": "Address of the L1 token being deposited.",
          "_l2Token": "Address of the corresponding token on L2.",
          "_minGasLimit": "Minimum gas limit for the deposit message on L2."
        }
      },
      "depositERC20To(address,address,address,uint256,uint32,bytes)": {
        "params": {
          "_amount": "Amount of the ERC20 to deposit.",
          "_extraData": "Optional data to forward to L2. Data supplied here will not be used to                     execute any code on L2 and is only emitted as extra data for the                     convenience of off-chain tooling.",
          "_l1Token": "Address of the L1 token being deposited.",
          "_l2Token": "Address of the corresponding token on L2.",
          "_minGasLimit": "Minimum gas limit for the deposit message on L2.",
          "_to": "Address of the recipient on L2."
        }
      },
      "depositETH(uint32,bytes)": {
        "params": {
          "_extraData": "Optional data to forward to L2. Data supplied here will not be used to                     execute any code on L2 and is only emitted as extra data for the                     convenience of off-chain tooling.",
          "_minGasLimit": "Minimum gas limit for the deposit message on L2."
        }
      },
      "depositETHTo(address,uint32,bytes)": {
        "params": {
          "_extraData": "Optional data to forward to L2. Data supplied here will not be used to                     execute any code on L2 and is only emitted as extra data for the                     convenience of off-chain tooling.",
          "_minGasLimit": "Minimum gas limit for the deposit message on L2.",
          "_to": "Address of the recipient on L2."
        }
      },
      "finalizeBridgeERC20(address,address,address,address,uint256,bytes)": {
        "params": {
          "_amount": "Amount of the ERC20 being bridged.",
          "_extraData": "Extra data to be sent with the transaction. Note that the recipient will                     not be triggered with this data, but it will be emitted and can be used                     to identify the transaction.",
          "_from": "Address of the sender.",
          "_localToken": "Address of the ERC20 on this chain.",
          "_remoteToken": "Address of the corresponding token on the remote chain.",
          "_to": "Address of the receiver."
        }
      },
      "finalizeBridgeETH(address,address,uint256,bytes)": {
        "params": {
          "_amount": "Amount of ETH being bridged.",
          "_extraData": "Extra data to be sent with the transaction. Note that the recipient will                   not be triggered with this data, but it will be emitted and can be used                   to identify the transaction.",
          "_from": "Address of the sender.",
          "_to": "Address of the receiver."
        }
      },
      "finalizeERC20Withdrawal(address,address,address,address,uint256,bytes)": {
        "params": {
          "_amount": "Amount of the ERC20 to withdraw.",
          "_extraData": "Optional data forwarded from L2.",
          "_from": "Address of the withdrawer on L2.",
          "_l1Token": "Address of the token on L1.",
          "_l2Token": "Address of the corresponding token on L2.",
          "_to": "Address of the recipient on L1."
        }
      },
      "finalizeETHWithdrawal(address,address,uint256,bytes)": {
        "params": {
          "_amount": "Amount of ETH to withdraw.",
          "_extraData": "Optional data forwarded from L2.",
          "_from": "Address of the withdrawer on L2.",
          "_to": "Address of the recipient on L1."
        }
      },
      "l2TokenBridge()": {
        "returns": {
          "_0": "Address of the corresponding L2 bridge contract."
        }
      },
      "messenger()": {
        "returns": {
          "_0": "Messenger contract on this domain."
        }
      },
      "version()": {
        "returns": {
          "_0": "Semver contract version as a string."
        }
      }
    },
    "events": {
      "ERC20DepositInitiated(address,address,address,address,uint256,bytes)": {
        "params": {
          "amount": "Amount of the ERC20 deposited.",
          "extraData": "Extra data attached to the deposit.",
          "from": "Address of the depositor.",
          "l1Token": "Address of the token on L1.",
          "l2Token": "Address of the corresponding token on L2.",
          "to": "Address of the recipient on L2."
        }
      },
      "ERC20WithdrawalFinalized(address,address,address,address,uint256,bytes)": {
        "params": {
          "amount": "Amount of the ERC20 withdrawn.",
          "extraData": "Extra data attached to the withdrawal.",
          "from": "Address of the withdrawer.",
          "l1Token": "Address of the token on L1.",
          "l2Token": "Address of the corresponding token on L2.",
          "to": "Address of the recipient on L1."
        }
      },
      "ETHDepositInitiated(address,address,uint256,bytes)": {
        "params": {
          "amount": "Amount of ETH deposited.",
          "extraData": "Extra data attached to the deposit.",
          "from": "Address of the depositor.",
          "to": "Address of the recipient on L2."
        }
      },
      "ETHWithdrawalFinalized(address,address,uint256,bytes)": {
        "params": {
          "amount": "Amount of ETH withdrawn.",
          "extraData": "Extra data attached to the withdrawal.",
          "from": "Address of the withdrawer.",
          "to": "Address of the recipient on L1."
        }
      }
    }
  },
  "userdoc": {
    "version": 1,
    "kind": "user",
    "methods": {
      "MESSENGER()": {
        "notice": "Messenger contract on this domain."
      },
      "OTHER_BRIDGE()": {
        "notice": "Corresponding bridge on the other domain."
      },
      "appendSequencerBatch()": {
        "notice": "appends an array of valid version hashes to the chain through calldata, each VH is checked via the VH precompile. the calldata should be contingious set of 32 byte version hashes to check via precompile. Will consume memory for 1 hash and check that the a hash value was parrtoed back to indicate validity."
      },
      "appendSequencerBatchToL2()": {
        "notice": "appends an array of valid version hashes to the chain through calldata and sends message to L2StandardBridge, each VH is checked via the VH precompile. the calldata should be contingious set of 32 byte version hashes to check via precompile. Will consume memory for 1 hash and check that the a hash value was parrtoed back to indicate validity."
      },
      "bridgeERC20(address,address,uint256,uint32,bytes)": {
        "notice": "Sends ERC20 tokens to the sender's address on the other chain. Note that if the         ERC20 token on the other chain does not recognize the local token as the correct         pair token, the ERC20 bridge will fail and the tokens will be returned to sender on         this chain."
      },
      "bridgeERC20To(address,address,address,uint256,uint32,bytes)": {
        "notice": "Sends ERC20 tokens to a receiver's address on the other chain. Note that if the         ERC20 token on the other chain does not recognize the local token as the correct         pair token, the ERC20 bridge will fail and the tokens will be returned to sender on         this chain."
      },
      "bridgeETH(uint32,bytes)": {
        "notice": "Sends ETH to the sender's address on the other chain."
      },
      "bridgeETHTo(address,uint32,bytes)": {
        "notice": "Sends ETH to a receiver's address on the other chain. Note that if ETH is sent to a         smart contract and the call fails, the ETH will be temporarily locked in the         StandardBridge on the other chain until the call is replayed. If the call cannot be         replayed with any amount of gas (call always reverts), then the ETH will be         permanently locked in the StandardBridge on the other chain. ETH will also         be locked if the receiver is the other bridge, because finalizeBridgeETH will revert         in that case."
      },
      "deposits(address,address)": {
        "notice": "Mapping that stores deposits for a given pair of local and remote tokens."
      },
      "finalizeBridgeERC20(address,address,address,address,uint256,bytes)": {
        "notice": "Finalizes an ERC20 bridge on this chain. Can only be triggered by the other         StandardBridge contract on the remote chain."
      },
      "finalizeBridgeETH(address,address,uint256,bytes)": {
        "notice": "Finalizes an ETH bridge on this chain. Can only be triggered by the other         StandardBridge contract on the remote chain."
      },
      "version()": {
        "notice": "Returns the full semver contract version."
      }
    },
    "events": {
      "ERC20BridgeFinalized(address,address,address,address,uint256,bytes)": {
        "notice": "Emitted when an ERC20 bridge is finalized on this chain."
      },
      "ERC20BridgeInitiated(address,address,address,address,uint256,bytes)": {
        "notice": "Emitted when an ERC20 bridge is initiated to the other chain."
      },
      "ETHBridgeFinalized(address,address,uint256,bytes)": {
        "notice": "Emitted when an ETH bridge is finalized on this chain."
      },
      "ETHBridgeInitiated(address,address,uint256,bytes)": {
        "notice": "Emitted when an ETH bridge is initiated to the other chain."
      }
    },
    "notice": "The L1StandardBridge is responsible for transfering ETH and ERC20 tokens between L1 and         L2. In the case that an ERC20 token is native to L1, it will be escrowed within this         contract. If the ERC20 token is native to L2, it will be burnt. Before Bedrock, ETH was         stored within this contract. After Bedrock, ETH is instead stored inside the         OptimismPortal contract.         NOTE: this contract is not intended to support all variations of ERC20 tokens. Examples         of some token types that may not be properly supported by this contract include, but are         not limited to: tokens with transfer fees, rebasing tokens, and tokens with blocklists."
  },
  "storageLayout": {
    "storage": [
      {
        "astId": 42079,
        "contract": "contracts/L1/L1StandardBridge.sol:L1StandardBridge",
        "label": "spacer_0_0_20",
        "offset": 0,
        "slot": "0",
        "type": "t_address"
      },
      {
        "astId": 42082,
        "contract": "contracts/L1/L1StandardBridge.sol:L1StandardBridge",
        "label": "spacer_1_0_20",
        "offset": 0,
        "slot": "1",
        "type": "t_address"
      },
      {
        "astId": 42089,
        "contract": "contracts/L1/L1StandardBridge.sol:L1StandardBridge",
        "label": "deposits",
        "offset": 0,
        "slot": "2",
        "type": "t_mapping(t_address,t_mapping(t_address,t_uint256))"
      },
      {
        "astId": 42094,
        "contract": "contracts/L1/L1StandardBridge.sol:L1StandardBridge",
        "label": "__gap",
        "offset": 0,
        "slot": "3",
        "type": "t_array(t_uint256)47_storage"
      }
    ],
    "types": {
      "t_address": {
        "encoding": "inplace",
        "label": "address",
        "numberOfBytes": "20"
      },
      "t_array(t_uint256)47_storage": {
        "encoding": "inplace",
        "label": "uint256[47]",
        "numberOfBytes": "1504",
        "base": "t_uint256"
      },
      "t_mapping(t_address,t_mapping(t_address,t_uint256))": {
        "encoding": "mapping",
        "key": "t_address",
        "label": "mapping(address => mapping(address => uint256))",
        "numberOfBytes": "32",
        "value": "t_mapping(t_address,t_uint256)"
      },
      "t_mapping(t_address,t_uint256)": {
        "encoding": "mapping",
        "key": "t_address",
        "label": "mapping(address => uint256)",
        "numberOfBytes": "32",
        "value": "t_uint256"
      },
      "t_uint256": {
        "encoding": "inplace",
        "label": "uint256",
        "numberOfBytes": "32"
      }
    }
  }
}