{
  "address": "0x94a5BA8DCFDb9D23C31E0Fee12F757230106Aac6",
  "abi": [
    {
      "inputs": [],
      "stateMutability": "nonpayable",
      "type": "constructor"
    },
    {
      "anonymous": false,
      "inputs": [
        {
          "indexed": false,
          "internalType": "uint8",
          "name": "version",
          "type": "uint8"
        }
      ],
      "name": "Initialized",
      "type": "event"
    },
    {
      "anonymous": false,
      "inputs": [
        {
          "indexed": true,
          "internalType": "address",
          "name": "previousOwner",
          "type": "address"
        },
        {
          "indexed": true,
          "internalType": "address",
          "name": "newOwner",
          "type": "address"
        }
      ],
      "name": "OwnershipTransferred",
      "type": "event"
    },
    {
      "inputs": [],
      "name": "EXIT_1_NO_RETURN_STEP",
      "outputs": [
        {
          "internalType": "uint8",
          "name": "",
          "type": "uint8"
        }
      ],
      "stateMutability": "view",
      "type": "function"
    },
    {
      "inputs": [],
      "name": "PROXY_TRANSFER_STEP",
      "outputs": [
        {
          "internalType": "uint8",
          "name": "",
          "type": "uint8"
        }
      ],
      "stateMutability": "view",
      "type": "function"
    },
    {
      "inputs": [],
      "name": "config",
      "outputs": [
        {
          "components": [
            {
              "internalType": "contract AddressManager",
              "name": "addressManager",
              "type": "address"
            },
            {
              "internalType": "contract ProxyAdmin",
              "name": "proxyAdmin",
              "type": "address"
            },
            {
              "internalType": "address",
              "name": "controller",
              "type": "address"
            },
            {
              "internalType": "address",
              "name": "finalOwner",
              "type": "address"
            }
          ],
          "internalType": "struct SystemDictator.GlobalConfig",
          "name": "globalConfig",
          "type": "tuple"
        },
        {
          "components": [
            {
              "internalType": "address",
              "name": "l2OutputOracleProxy",
              "type": "address"
            },
            {
              "internalType": "address",
              "name": "optimismPortalProxy",
              "type": "address"
            },
            {
              "internalType": "address",
              "name": "l1CrossDomainMessengerProxy",
              "type": "address"
            },
            {
              "internalType": "address",
              "name": "l1StandardBridgeProxy",
              "type": "address"
            },
            {
              "internalType": "address",
              "name": "optimismMintableERC20FactoryProxy",
              "type": "address"
            },
            {
              "internalType": "address",
              "name": "l1ERC721BridgeProxy",
              "type": "address"
            },
            {
              "internalType": "address",
              "name": "systemConfigProxy",
              "type": "address"
            },
            {
              "internalType": "address",
              "name": "batchInboxProxy",
              "type": "address"
            }
          ],
          "internalType": "struct SystemDictator.ProxyAddressConfig",
          "name": "proxyAddressConfig",
          "type": "tuple"
        },
        {
          "components": [
            {
              "internalType": "contract L2OutputOracle",
              "name": "l2OutputOracleImpl",
              "type": "address"
            },
            {
              "internalType": "contract OptimismPortal",
              "name": "optimismPortalImpl",
              "type": "address"
            },
            {
              "internalType": "contract L1CrossDomainMessenger",
              "name": "l1CrossDomainMessengerImpl",
              "type": "address"
            },
            {
              "internalType": "contract L1StandardBridge",
              "name": "l1StandardBridgeImpl",
              "type": "address"
            },
            {
              "internalType": "contract OptimismMintableERC20Factory",
              "name": "optimismMintableERC20FactoryImpl",
              "type": "address"
            },
            {
              "internalType": "contract L1ERC721Bridge",
              "name": "l1ERC721BridgeImpl",
              "type": "address"
            },
            {
              "internalType": "contract PortalSender",
              "name": "portalSenderImpl",
              "type": "address"
            },
            {
              "internalType": "contract SystemConfig",
              "name": "systemConfigImpl",
              "type": "address"
            },
            {
              "internalType": "contract BatchInbox",
              "name": "batchInboxImpl",
              "type": "address"
            }
          ],
          "internalType": "struct SystemDictator.ImplementationAddressConfig",
          "name": "implementationAddressConfig",
          "type": "tuple"
        },
        {
          "components": [
            {
              "internalType": "address",
              "name": "owner",
              "type": "address"
            },
            {
              "internalType": "uint256",
              "name": "overhead",
              "type": "uint256"
            },
            {
              "internalType": "uint256",
              "name": "scalar",
              "type": "uint256"
            },
            {
              "internalType": "bytes32",
              "name": "batcherHash",
              "type": "bytes32"
            },
            {
              "internalType": "uint64",
              "name": "gasLimit",
              "type": "uint64"
            },
            {
              "internalType": "address",
              "name": "unsafeBlockSigner",
              "type": "address"
            },
            {
              "components": [
                {
                  "internalType": "uint32",
                  "name": "maxResourceLimit",
                  "type": "uint32"
                },
                {
                  "internalType": "uint8",
                  "name": "elasticityMultiplier",
                  "type": "uint8"
                },
                {
                  "internalType": "uint8",
                  "name": "baseFeeMaxChangeDenominator",
                  "type": "uint8"
                },
                {
                  "internalType": "uint32",
                  "name": "minimumBaseFee",
                  "type": "uint32"
                },
                {
                  "internalType": "uint32",
                  "name": "systemTxMaxGas",
                  "type": "uint32"
                },
                {
                  "internalType": "uint128",
                  "name": "maximumBaseFee",
                  "type": "uint128"
                }
              ],
              "internalType": "struct ResourceMetering.ResourceConfig",
              "name": "resourceConfig",
              "type": "tuple"
            }
          ],
          "internalType": "struct SystemDictator.SystemConfigConfig",
          "name": "systemConfigConfig",
          "type": "tuple"
        },
        {
          "components": [
            {
              "internalType": "address",
              "name": "batchInboxOwner",
              "type": "address"
            }
          ],
          "internalType": "struct SystemDictator.BatchInboxConfig",
          "name": "batchInboxConfig",
          "type": "tuple"
        }
      ],
      "stateMutability": "view",
      "type": "function"
    },
    {
      "inputs": [],
      "name": "currentStep",
      "outputs": [
        {
          "internalType": "uint8",
          "name": "",
          "type": "uint8"
        }
      ],
      "stateMutability": "view",
      "type": "function"
    },
    {
      "inputs": [],
      "name": "dynamicConfigSet",
      "outputs": [
        {
          "internalType": "bool",
          "name": "",
          "type": "bool"
        }
      ],
      "stateMutability": "view",
      "type": "function"
    },
    {
      "inputs": [],
      "name": "exit1",
      "outputs": [],
      "stateMutability": "nonpayable",
      "type": "function"
    },
    {
      "inputs": [],
      "name": "exited",
      "outputs": [
        {
          "internalType": "bool",
          "name": "",
          "type": "bool"
        }
      ],
      "stateMutability": "view",
      "type": "function"
    },
    {
      "inputs": [],
      "name": "finalize",
      "outputs": [],
      "stateMutability": "nonpayable",
      "type": "function"
    },
    {
      "inputs": [],
      "name": "finalized",
      "outputs": [
        {
          "internalType": "bool",
          "name": "",
          "type": "bool"
        }
      ],
      "stateMutability": "view",
      "type": "function"
    },
    {
      "inputs": [
        {
          "components": [
            {
              "components": [
                {
                  "internalType": "contract AddressManager",
                  "name": "addressManager",
                  "type": "address"
                },
                {
                  "internalType": "contract ProxyAdmin",
                  "name": "proxyAdmin",
                  "type": "address"
                },
                {
                  "internalType": "address",
                  "name": "controller",
                  "type": "address"
                },
                {
                  "internalType": "address",
                  "name": "finalOwner",
                  "type": "address"
                }
              ],
              "internalType": "struct SystemDictator.GlobalConfig",
              "name": "globalConfig",
              "type": "tuple"
            },
            {
              "components": [
                {
                  "internalType": "address",
                  "name": "l2OutputOracleProxy",
                  "type": "address"
                },
                {
                  "internalType": "address",
                  "name": "optimismPortalProxy",
                  "type": "address"
                },
                {
                  "internalType": "address",
                  "name": "l1CrossDomainMessengerProxy",
                  "type": "address"
                },
                {
                  "internalType": "address",
                  "name": "l1StandardBridgeProxy",
                  "type": "address"
                },
                {
                  "internalType": "address",
                  "name": "optimismMintableERC20FactoryProxy",
                  "type": "address"
                },
                {
                  "internalType": "address",
                  "name": "l1ERC721BridgeProxy",
                  "type": "address"
                },
                {
                  "internalType": "address",
                  "name": "systemConfigProxy",
                  "type": "address"
                },
                {
                  "internalType": "address",
                  "name": "batchInboxProxy",
                  "type": "address"
                }
              ],
              "internalType": "struct SystemDictator.ProxyAddressConfig",
              "name": "proxyAddressConfig",
              "type": "tuple"
            },
            {
              "components": [
                {
                  "internalType": "contract L2OutputOracle",
                  "name": "l2OutputOracleImpl",
                  "type": "address"
                },
                {
                  "internalType": "contract OptimismPortal",
                  "name": "optimismPortalImpl",
                  "type": "address"
                },
                {
                  "internalType": "contract L1CrossDomainMessenger",
                  "name": "l1CrossDomainMessengerImpl",
                  "type": "address"
                },
                {
                  "internalType": "contract L1StandardBridge",
                  "name": "l1StandardBridgeImpl",
                  "type": "address"
                },
                {
                  "internalType": "contract OptimismMintableERC20Factory",
                  "name": "optimismMintableERC20FactoryImpl",
                  "type": "address"
                },
                {
                  "internalType": "contract L1ERC721Bridge",
                  "name": "l1ERC721BridgeImpl",
                  "type": "address"
                },
                {
                  "internalType": "contract PortalSender",
                  "name": "portalSenderImpl",
                  "type": "address"
                },
                {
                  "internalType": "contract SystemConfig",
                  "name": "systemConfigImpl",
                  "type": "address"
                },
                {
                  "internalType": "contract BatchInbox",
                  "name": "batchInboxImpl",
                  "type": "address"
                }
              ],
              "internalType": "struct SystemDictator.ImplementationAddressConfig",
              "name": "implementationAddressConfig",
              "type": "tuple"
            },
            {
              "components": [
                {
                  "internalType": "address",
                  "name": "owner",
                  "type": "address"
                },
                {
                  "internalType": "uint256",
                  "name": "overhead",
                  "type": "uint256"
                },
                {
                  "internalType": "uint256",
                  "name": "scalar",
                  "type": "uint256"
                },
                {
                  "internalType": "bytes32",
                  "name": "batcherHash",
                  "type": "bytes32"
                },
                {
                  "internalType": "uint64",
                  "name": "gasLimit",
                  "type": "uint64"
                },
                {
                  "internalType": "address",
                  "name": "unsafeBlockSigner",
                  "type": "address"
                },
                {
                  "components": [
                    {
                      "internalType": "uint32",
                      "name": "maxResourceLimit",
                      "type": "uint32"
                    },
                    {
                      "internalType": "uint8",
                      "name": "elasticityMultiplier",
                      "type": "uint8"
                    },
                    {
                      "internalType": "uint8",
                      "name": "baseFeeMaxChangeDenominator",
                      "type": "uint8"
                    },
                    {
                      "internalType": "uint32",
                      "name": "minimumBaseFee",
                      "type": "uint32"
                    },
                    {
                      "internalType": "uint32",
                      "name": "systemTxMaxGas",
                      "type": "uint32"
                    },
                    {
                      "internalType": "uint128",
                      "name": "maximumBaseFee",
                      "type": "uint128"
                    }
                  ],
                  "internalType": "struct ResourceMetering.ResourceConfig",
                  "name": "resourceConfig",
                  "type": "tuple"
                }
              ],
              "internalType": "struct SystemDictator.SystemConfigConfig",
              "name": "systemConfigConfig",
              "type": "tuple"
            },
            {
              "components": [
                {
                  "internalType": "address",
                  "name": "batchInboxOwner",
                  "type": "address"
                }
              ],
              "internalType": "struct SystemDictator.BatchInboxConfig",
              "name": "batchInboxConfig",
              "type": "tuple"
            }
          ],
          "internalType": "struct SystemDictator.DeployConfig",
          "name": "_config",
          "type": "tuple"
        }
      ],
      "name": "initialize",
      "outputs": [],
      "stateMutability": "nonpayable",
      "type": "function"
    },
    {
      "inputs": [],
      "name": "l2OutputOracleDynamicConfig",
      "outputs": [
        {
          "internalType": "uint256",
          "name": "l2OutputOracleStartingBlockNumber",
          "type": "uint256"
        },
        {
          "internalType": "uint256",
          "name": "l2OutputOracleStartingTimestamp",
          "type": "uint256"
        }
      ],
      "stateMutability": "view",
      "type": "function"
    },
    {
      "inputs": [],
      "name": "oldL1CrossDomainMessenger",
      "outputs": [
        {
          "internalType": "address",
          "name": "",
          "type": "address"
        }
      ],
      "stateMutability": "view",
      "type": "function"
    },
    {
      "inputs": [],
      "name": "optimismPortalDynamicConfig",
      "outputs": [
        {
          "internalType": "bool",
          "name": "",
          "type": "bool"
        }
      ],
      "stateMutability": "view",
      "type": "function"
    },
    {
      "inputs": [],
      "name": "owner",
      "outputs": [
        {
          "internalType": "address",
          "name": "",
          "type": "address"
        }
      ],
      "stateMutability": "view",
      "type": "function"
    },
    {
      "inputs": [],
      "name": "renounceOwnership",
      "outputs": [],
      "stateMutability": "nonpayable",
      "type": "function"
    },
    {
      "inputs": [],
      "name": "step1",
      "outputs": [],
      "stateMutability": "nonpayable",
      "type": "function"
    },
    {
      "inputs": [],
      "name": "step2",
      "outputs": [],
      "stateMutability": "nonpayable",
      "type": "function"
    },
    {
      "inputs": [],
      "name": "step3",
      "outputs": [],
      "stateMutability": "nonpayable",
      "type": "function"
    },
    {
      "inputs": [],
      "name": "step4",
      "outputs": [],
      "stateMutability": "nonpayable",
      "type": "function"
    },
    {
      "inputs": [],
      "name": "step5",
      "outputs": [],
      "stateMutability": "nonpayable",
      "type": "function"
    },
    {
      "inputs": [
        {
          "internalType": "address",
          "name": "newOwner",
          "type": "address"
        }
      ],
      "name": "transferOwnership",
      "outputs": [],
      "stateMutability": "nonpayable",
      "type": "function"
    },
    {
      "inputs": [
        {
          "components": [
            {
              "internalType": "uint256",
              "name": "l2OutputOracleStartingBlockNumber",
              "type": "uint256"
            },
            {
              "internalType": "uint256",
              "name": "l2OutputOracleStartingTimestamp",
              "type": "uint256"
            }
          ],
          "internalType": "struct SystemDictator.L2OutputOracleDynamicConfig",
          "name": "_l2OutputOracleDynamicConfig",
          "type": "tuple"
        },
        {
          "internalType": "bool",
          "name": "_optimismPortalDynamicConfig",
          "type": "bool"
        }
      ],
      "name": "updateDynamicConfig",
      "outputs": [],
      "stateMutability": "nonpayable",
      "type": "function"
    }
  ],
  "transactionHash": "0x098e25b0541e062846c1eb3a0c466d490f6b36569af9a6a14b7bcb1594210868",
  "args": [],
  "numDeployments": 1,
  "solcInputHash": "06e93ff9edeee8d517cd2da7b3b38012",
  "bytecode": "0x60806040523480156200001157600080fd5b506000620000296200013560201b62002c6c1760201c565b604080516101208082018352600060a080840182815260c080860184905260e0808701859052610100808801869052928752875180840189528581526020818101879052818a0187905260608083018890526080838101899052838801899052838601899052838501899052828b01939093528a519889018b52878952888201889052888b01889052888101889052888301889052888701889052888501889052888401889052948801879052888a01979097528851918201895285825281870186905281890186905281840186905281810186905293810185905290810188905290850152845192830190945280825292820152919250906200012d90620001ac565b505062000726565b6040805160c081018252600080825260208201819052918101829052606081018290526080810182905260a0810191909152506040805160c0810182526301312d008152600a6020820152600891810191909152633b9aca006060820152620f424060808201526001600160801b0360a082015290565b600054610100900460ff1615808015620001cd5750600054600160ff909116105b80620001fd5750620001ea30620005f660201b62002cec1760201c565b158015620001fd575060005460ff166001145b620002665760405162461bcd60e51b815260206004820152602e60248201527f496e697469616c697a61626c653a20636f6e747261637420697320616c72656160448201526d191e481a5b9a5d1a585b1a5e995960921b60648201526084015b60405180910390fd5b6000805460ff1916600117905580156200028a576000805461ff0019166101001790555b81518051606580546001600160a01b03199081166001600160a01b039384161790915560208084015160668054841691851691909117905560408085015160678054851691861691909117905560609485015160688054851691861691909117905581870151805160698054861691871691909117905580830151606a8054861691871691909117905580820151606b8054861691871691909117905580860151606c80548616918716919091179055608080820151606d8054871691881691909117905560a080830151606e8054881691891691909117905560c080840151606f80548916918a1691909117905560e093840151607080548916918a16919091179055848b01518051607180548a16918b1691909117905580870151607280548a16918b1691909117905580860151607380548a16918b16919091179055808a0151607480548a16918b1691909117905580840151607580548a16918b1691909117905580830151607680548a16918b1691909117905580820151607780548a16918b1691909117905593840151607880548916918a1691909117905561010093840151607980548916918a16919091179055888b01518051607a80548a16918b1691909117905580870151607b5580860151607c55808a0151607d5580840151607e8054838601516001600160401b039093166001600160e01b03199091161768010000000000000000928c169290920291909117905501518051607f805497830151968301519a83015183860151939094015163ffffffff92831664ffffffffff199099169890981764010000000060ff988916021764ffffffffff60281b19166501000000000097909b169690960263ffffffff60301b1916999099176601000000000000928a169290920291909117600160501b600160f01b0319166a01000000000000000000009890911697909702600160701b600160f01b03191696909617600160701b6001600160801b03909416939093029290921790558386015151845490921691909216179091556083805461ff00191690911790556200059462000605565b606754620005ab906001600160a01b03166200066d565b8015620005f2576000805461ff0019169055604051600181527f7f26b83ff96e1f2b6a682f133852f6798a09c465da95921460cefb38474024989060200160405180910390a15b5050565b6001600160a01b03163b151590565b600054610100900460ff16620006615760405162461bcd60e51b815260206004820152602b60248201526000805160206200467783398151915260448201526a6e697469616c697a696e6760a81b60648201526084016200025d565b6200066b620006bf565b565b603380546001600160a01b038381166001600160a01b0319831681179093556040519116919082907f8be0079c531659141344cd1fd0a4f28419497f9722a3daafe3b4186f6b6457e090600090a35050565b600054610100900460ff166200071b5760405162461bcd60e51b815260206004820152602b60248201526000805160206200467783398151915260448201526a6e697469616c697a696e6760a81b60648201526084016200025d565b6200066b336200066d565b613f4180620007366000396000f3fe608060405234801561001057600080fd5b50600436106101825760003560e01c80638f4ed333116100d8578063d40a71fb1161008c578063f2fde38b11610066578063f2fde38b14610500578063fb5d737614610513578063fe6b1ddf1461051b57600080fd5b8063d40a71fb146104e3578063d7efbb30146104eb578063df4ec249146104f857600080fd5b8063b3f05b97116100bd578063b3f05b9714610493578063cf03c22d146104a7578063d36ec430146104d057600080fd5b80638f4ed33314610478578063b2fffaa51461048057600080fd5b80635ce6c3271161013a5780637d1d95a6116101145780637d1d95a61461041e57806389cb7343146104265780638da5cb5b1461043957600080fd5b80635ce6c327146101ed578063715018a61461021257806379502c551461021a57600080fd5b80634bb278f31161016b5780634bb278f3146101c95780634fb4bcec146101d35780635bc34f71146101db57600080fd5b8063204c881c14610187578063289c6af7146101af575b600080fd5b608154608254610195919082565b604080519283526020830191909152015b60405180910390f35b6101b7600381565b60405160ff90911681526020016101a6565b6101d1610523565b005b6101d161078d565b6083546101b790610100900460ff1681565b60835461020290640100000000900460ff1681565b60405190151581526020016101a6565b6101d1611266565b604080516080808201835260655473ffffffffffffffffffffffffffffffffffffffff9081168352606654811660208085019190915260675482168486015260685482166060808601919091528551610100808201885260695485168252606a54851682850152606b54851682890152606c54851682840152606d54851682870152606e54851660a080840191909152606f54861660c080850191909152607054871660e0808601919091528a5161012081018c52607154891681526072548916818901526073548916818d01526074548916818801526075548916818b01526076548916818501526077548916818401526078548916818301526079548916948101949094528a519081018b52607a5488168152607b5481880152607c54818c0152607d5481870152607e5467ffffffffffffffff8116828b01526801000000000000000090048816818401528a518083018c52607f5463ffffffff8082168352640100000000820460ff908116848c015265010000000000830416838f0152660100000000000082048116988301989098526a01000000000000000000008104909716818b01526e0100000000000000000000000000009096046fffffffffffffffffffffffffffffffff169286019290925281019390935287519384019097529354909216815261040d94919085565b6040516101a695949392919061305f565b6101b7600481565b6083546102029062010000900460ff1681565b60335473ffffffffffffffffffffffffffffffffffffffff165b60405173ffffffffffffffffffffffffffffffffffffffff90911681526020016101a6565b6101d161127a565b6101d161048e3660046137ec565b6115e9565b608354610202906301000000900460ff1681565b6083546104539065010000000000900473ffffffffffffffffffffffffffffffffffffffff1681565b6101d16104de3660046138c4565b611b80565b6101d1611bf3565b6083546102029060ff1681565b6101d16120d5565b6101d161050e366004613963565b612699565b6101d1612750565b6101d1612a48565b61052b612d08565b6066546068546040517ff2fde38b00000000000000000000000000000000000000000000000000000000815273ffffffffffffffffffffffffffffffffffffffff918216600482015291169063f2fde38b90602401600060405180830381600087803b15801561059a57600080fd5b505af11580156105ae573d6000803e3d6000fd5b5050608354600461010090910460ff1611915061075d9050576065546068546040517ff2fde38b00000000000000000000000000000000000000000000000000000000815273ffffffffffffffffffffffffffffffffffffffff918216600482015291169063f2fde38b90602401600060405180830381600087803b15801561063657600080fd5b505af115801561064a573d6000803e3d6000fd5b5050606c546068546040517f13af403500000000000000000000000000000000000000000000000000000000815273ffffffffffffffffffffffffffffffffffffffff9182166004820152911692506313af40359150602401600060405180830381600087803b1580156106bd57600080fd5b505af11580156106d1573d6000803e3d6000fd5b5050606e546068546040517f8f28397000000000000000000000000000000000000000000000000000000000815273ffffffffffffffffffffffffffffffffffffffff918216600482015291169250638f2839709150602401600060405180830381600087803b15801561074457600080fd5b505af1158015610758573d6000803e3d6000fd5b505050505b608380547fffffffffffffffffffffffffffffffffffffffffffffffffffffffff00ffffff166301000000179055565b610795612d08565b6083546005906301000000900460ff1615610837576040517f08c379a000000000000000000000000000000000000000000000000000000000815260206004820152602160248201527f53797374656d4469637461746f723a20616c72656164792066696e616c697a6560448201527f640000000000000000000000000000000000000000000000000000000000000060648201526084015b60405180910390fd5b608354640100000000900460ff16156108ac576040517f08c379a000000000000000000000000000000000000000000000000000000000815260206004820152601e60248201527f53797374656d4469637461746f723a20616c7265616479206578697465640000604482015260640161082e565b60835460ff8281166101009092041614610922576040517f08c379a000000000000000000000000000000000000000000000000000000000815260206004820152601e60248201527f53797374656d4469637461746f723a20696e636f727265637420737465700000604482015260640161082e565b60835462010000900460ff166109ba576040517f08c379a000000000000000000000000000000000000000000000000000000000815260206004820152603c60248201527f53797374656d4469637461746f723a2064796e616d6963206f7261636c65206360448201527f6f6e666967206973206e6f742079657420696e697469616c697a656400000000606482015260840161082e565b6066546069546071546081546082546040516024810192909252604482015273ffffffffffffffffffffffffffffffffffffffff93841693639623609d938116921690606401604080517fffffffffffffffffffffffffffffffffffffffffffffffffffffffffffffffe08184030181529181526020820180517bffffffffffffffffffffffffffffffffffffffffffffffffffffffff167fe4a3011600000000000000000000000000000000000000000000000000000000179052517fffffffff0000000000000000000000000000000000000000000000000000000060e086901b168152610aaf939291906004016139fd565b600060405180830381600087803b158015610ac957600080fd5b505af1158015610add573d6000803e3d6000fd5b505060665460705460795460805460405173ffffffffffffffffffffffffffffffffffffffff91821660248201529381169550639623609d945091821692911690604401604080517fffffffffffffffffffffffffffffffffffffffffffffffffffffffffffffffe08184030181529181526020820180517bffffffffffffffffffffffffffffffffffffffffffffffffffffffff167fc4d66de800000000000000000000000000000000000000000000000000000000179052517fffffffff0000000000000000000000000000000000000000000000000000000060e086901b168152610bd0939291906004016139fd565b600060405180830381600087803b158015610bea57600080fd5b505af1158015610bfe573d6000803e3d6000fd5b5050606654606a5460725460835460405160ff9091161515602482015273ffffffffffffffffffffffffffffffffffffffff9384169550639623609d9450918316921690604401604080517fffffffffffffffffffffffffffffffffffffffffffffffffffffffffffffffe08184030181529181526020820180517bffffffffffffffffffffffffffffffffffffffffffffffffffffffff167fd53a822f00000000000000000000000000000000000000000000000000000000179052517fffffffff0000000000000000000000000000000000000000000000000000000060e086901b168152610cf4939291906004016139fd565b600060405180830381600087803b158015610d0e57600080fd5b505af1158015610d22573d6000803e3d6000fd5b5050606654606b546073546040517f99a88ec400000000000000000000000000000000000000000000000000000000815273ffffffffffffffffffffffffffffffffffffffff92831660048201529082166024820152911692506399a88ec49150604401600060405180830381600087803b158015610da057600080fd5b505af1158015610db4573d6000803e3d6000fd5b5050606b54604080517f8129fc1c000000000000000000000000000000000000000000000000000000008152905173ffffffffffffffffffffffffffffffffffffffff9092169350638129fc1c925060048181019260009290919082900301818387803b158015610e2457600080fd5b505af1925050508015610e35575060015b610f9257610e41613a3f565b806308c379a003610f085750610e55613a5b565b80610e605750610f0a565b7f7a2a4e26842155ea933fe6eb6e3137eb5a296dcdf55721c552be7b4c3cc2375981604051602001610e929190613b03565b604051602081830303815290604052805190602001201481604051602001610eba9190613b1f565b60405160208183030381529060405290610f01576040517f08c379a000000000000000000000000000000000000000000000000000000000815260040161082e9190613b8a565b5050610f92565b505b6040517f08c379a000000000000000000000000000000000000000000000000000000000815260206004820152603f60248201527f53797374656d4469637461746f723a20756e6578706563746564206572726f7260448201527f20696e697469616c697a696e67204c3158444d20286e6f20726561736f6e2900606482015260840161082e565b606654606c546077546040805160048082526024820183526020820180517bffffffffffffffffffffffffffffffffffffffffffffffffffffffff167fed88c68e0000000000000000000000000000000000000000000000000000000017905291517f9623609d00000000000000000000000000000000000000000000000000000000815273ffffffffffffffffffffffffffffffffffffffff95861695639623609d95611048959082169491169291016139fd565b600060405180830381600087803b15801561106257600080fd5b505af1158015611076573d6000803e3d6000fd5b5050606654606c546074546040517f99a88ec400000000000000000000000000000000000000000000000000000000815273ffffffffffffffffffffffffffffffffffffffff92831660048201529082166024820152911692506399a88ec49150604401600060405180830381600087803b1580156110f457600080fd5b505af1158015611108573d6000803e3d6000fd5b5050606654606d546075546040517f99a88ec400000000000000000000000000000000000000000000000000000000815273ffffffffffffffffffffffffffffffffffffffff92831660048201529082166024820152911692506399a88ec49150604401600060405180830381600087803b15801561118657600080fd5b505af115801561119a573d6000803e3d6000fd5b5050606654606e546076546040517f99a88ec400000000000000000000000000000000000000000000000000000000815273ffffffffffffffffffffffffffffffffffffffff92831660048201529082166024820152911692506399a88ec491506044015b600060405180830381600087803b15801561121957600080fd5b505af115801561122d573d6000803e3d6000fd5b505060838054610100900460ff1692509050600161124a83613bcc565b91906101000a81548160ff021916908360ff1602179055505050565b61126e612d08565b6112786000612d89565b565b611282612d08565b6083546002906301000000900460ff161561131f576040517f08c379a000000000000000000000000000000000000000000000000000000000815260206004820152602160248201527f53797374656d4469637461746f723a20616c72656164792066696e616c697a6560448201527f6400000000000000000000000000000000000000000000000000000000000000606482015260840161082e565b608354640100000000900460ff1615611394576040517f08c379a000000000000000000000000000000000000000000000000000000000815260206004820152601e60248201527f53797374656d4469637461746f723a20616c7265616479206578697465640000604482015260640161082e565b60835460ff828116610100909204161461140a576040517f08c379a000000000000000000000000000000000000000000000000000000000815260206004820152601e60248201527f53797374656d4469637461746f723a20696e636f727265637420737465700000604482015260640161082e565b6065546040517fbf40fac100000000000000000000000000000000000000000000000000000000815273ffffffffffffffffffffffffffffffffffffffff9091169063bf40fac19061145e90600401613beb565b602060405180830381865afa15801561147b573d6000803e3d6000fd5b505050506040513d601f19601f8201168201806040525081019061149f9190613c2e565b608380547fffffffffffffff0000000000000000000000000000000000000000ffffffffff166501000000000073ffffffffffffffffffffffffffffffffffffffff938416021790556065546040517f9b2ea4bd000000000000000000000000000000000000000000000000000000008152911690639b2ea4bd9061152990600090600401613c4b565b600060405180830381600087803b15801561154357600080fd5b505af1158015611557573d6000803e3d6000fd5b5050606554604080517f9b2ea4bd0000000000000000000000000000000000000000000000000000000081526004810191909152601160448201527f44544c5f534855544f46465f424c4f434b000000000000000000000000000000606482015273ffffffffffffffffffffffffffffffffffffffff43811660248301529091169250639b2ea4bd91506084016111ff565b600054610100900460ff16158080156116095750600054600160ff909116105b806116235750303b158015611623575060005460ff166001145b6116af576040517f08c379a000000000000000000000000000000000000000000000000000000000815260206004820152602e60248201527f496e697469616c697a61626c653a20636f6e747261637420697320616c72656160448201527f647920696e697469616c697a6564000000000000000000000000000000000000606482015260840161082e565b600080547fffffffffffffffffffffffffffffffffffffffffffffffffffffffffffffff00166001179055801561170d57600080547fffffffffffffffffffffffffffffffffffffffffffffffffffffffffffff00ff166101001790555b81518051606580547fffffffffffffffffffffffff000000000000000000000000000000000000000090811673ffffffffffffffffffffffffffffffffffffffff9384161790915560208084015160668054841691851691909117905560408085015160678054851691861691909117905560609485015160688054851691861691909117905581870151805160698054861691871691909117905580830151606a8054861691871691909117905580820151606b8054861691871691909117905580860151606c80548616918716919091179055608080820151606d8054871691881691909117905560a080830151606e8054881691891691909117905560c080840151606f80548916918a1691909117905560e093840151607080548916918a16919091179055848b01518051607180548a16918b1691909117905580870151607280548a16918b1691909117905580860151607380548a16918b16919091179055808a0151607480548a16918b1691909117905580840151607580548a16918b1691909117905580830151607680548a16918b1691909117905580820151607780548a16918b1691909117905593840151607880548916918a1691909117905561010093840151607980548916918a16919091179055888b01518051607a80548a16918b1691909117905580870151607b5580860151607c55808a0151607d5580840151607e80548386015167ffffffffffffffff9093167fffffffff000000000000000000000000000000000000000000000000000000009091161768010000000000000000928c169290920291909117905501518051607f805497830151968301519a83015183860151939094015163ffffffff9283167fffffffffffffffffffffffffffffffffffffffffffffffffffffff00000000009099169890981764010000000060ff98891602177fffffffffffffffffffffffffffffffffffffffffffff0000000000ffffffffff166501000000000097909b16969096027fffffffffffffffffffffffffffffffffffffffffffff00000000ffffffffffff16999099176601000000000000928a1692909202919091177fffff0000000000000000000000000000000000000000ffffffffffffffffffff166a010000000000000000000098909116979097027fffff00000000000000000000000000000000ffffffffffffffffffffffffffff16969096176e0100000000000000000000000000006fffffffffffffffffffffffffffffffff90941693909302929092179055838601515184549092169190921617909155608380547fffffffffffffffffffffffffffffffffffffffffffffffffffffffffffff00ff169091179055611af7612e00565b606754611b199073ffffffffffffffffffffffffffffffffffffffff16612d89565b8015611b7c57600080547fffffffffffffffffffffffffffffffffffffffffffffffffffffffffffff00ff169055604051600181527f7f26b83ff96e1f2b6a682f133852f6798a09c465da95921460cefb38474024989060200160405180910390a15b5050565b611b88612d08565b8151608155602090910151608255608380547fffffffffffffffffffffffffffffffffffffffffffffffffffffffffff00ffff921515929092167fffffffffffffffffffffffffffffffffffffffffffffffffffffffffff00ff009092169190911762010000179055565b611bfb612d08565b6083546001906301000000900460ff1615611c98576040517f08c379a000000000000000000000000000000000000000000000000000000000815260206004820152602160248201527f53797374656d4469637461746f723a20616c72656164792066696e616c697a6560448201527f6400000000000000000000000000000000000000000000000000000000000000606482015260840161082e565b608354640100000000900460ff1615611d0d576040517f08c379a000000000000000000000000000000000000000000000000000000000815260206004820152601e60248201527f53797374656d4469637461746f723a20616c7265616479206578697465640000604482015260640161082e565b60835460ff8281166101009092041614611d83576040517f08c379a000000000000000000000000000000000000000000000000000000000815260206004820152601e60248201527f53797374656d4469637461746f723a20696e636f727265637420737465700000604482015260640161082e565b6066546065546040517f0652b57a00000000000000000000000000000000000000000000000000000000815273ffffffffffffffffffffffffffffffffffffffff9182166004820152911690630652b57a90602401600060405180830381600087803b158015611df257600080fd5b505af1158015611e06573d6000803e3d6000fd5b5050606654606b546040517f8d52d4a000000000000000000000000000000000000000000000000000000000815273ffffffffffffffffffffffffffffffffffffffff9283169450638d52d4a09350611e689290911690600290600401613cac565b600060405180830381600087803b158015611e8257600080fd5b505af1158015611e96573d6000803e3d6000fd5b5050606654606b546040517f860f7cda00000000000000000000000000000000000000000000000000000000815273ffffffffffffffffffffffffffffffffffffffff928316945063860f7cda9350611ef59290911690600401613d0d565b600060405180830381600087803b158015611f0f57600080fd5b505af1158015611f23573d6000803e3d6000fd5b5050606654606c546040517f8d52d4a000000000000000000000000000000000000000000000000000000000815273ffffffffffffffffffffffffffffffffffffffff9283169450638d52d4a09350611f859290911690600190600401613cac565b600060405180830381600087803b158015611f9f57600080fd5b505af1158015611fb3573d6000803e3d6000fd5b5050606654606f54607854607a54607b54607c54607d54607e5460405173ffffffffffffffffffffffffffffffffffffffff9889169a50639623609d99509688169795861696612026969586169567ffffffffffffffff8316926801000000000000000090041690607f90602401613d66565b604080517fffffffffffffffffffffffffffffffffffffffffffffffffffffffffffffffe08184030181529181526020820180517bffffffffffffffffffffffffffffffffffffffffffffffffffffffff167ff975e92500000000000000000000000000000000000000000000000000000000179052517fffffffff0000000000000000000000000000000000000000000000000000000060e086901b1681526111ff939291906004016139fd565b6120dd612d08565b6083546003906301000000900460ff161561217a576040517f08c379a000000000000000000000000000000000000000000000000000000000815260206004820152602160248201527f53797374656d4469637461746f723a20616c72656164792066696e616c697a6560448201527f6400000000000000000000000000000000000000000000000000000000000000606482015260840161082e565b608354640100000000900460ff16156121ef576040517f08c379a000000000000000000000000000000000000000000000000000000000815260206004820152601e60248201527f53797374656d4469637461746f723a20616c7265616479206578697465640000604482015260640161082e565b60835460ff8281166101009092041614612265576040517f08c379a000000000000000000000000000000000000000000000000000000000815260206004820152601e60248201527f53797374656d4469637461746f723a20696e636f727265637420737465700000604482015260640161082e565b60006040518061022001604052806040518060400160405280601d81526020017f4f564d5f43616e6f6e6963616c5472616e73616374696f6e436861696e00000081525081526020016040518060400160405280601a81526020017f4f564d5f4c3243726f7373446f6d61696e4d657373656e6765720000000000008152508152602001604051806060016040528060228152602001613ecb6022913981526020016040518060400160405280600d81526020017f4f564d5f53657175656e6365720000000000000000000000000000000000000081525081526020016040518060400160405280600c81526020017f4f564d5f50726f706f73657200000000000000000000000000000000000000008152508152602001604051806060016040528060258152602001613eed602591398152602001604051806060016040528060238152602001613f12602391398152604080518082018252601d81527f4f564d5f43616e6f6e6963616c5472616e73616374696f6e436861696e0000006020828101919091528084019190915281518083018352601881527f4f564d5f5374617465436f6d6d69746d656e74436861696e0000000000000000818301528284015281518083018352600f81527f4f564d5f426f6e644d616e61676572000000000000000000000000000000000081830152606084015281518083018352601481527f4f564d5f457865637574696f6e4d616e616765720000000000000000000000008183015260808401528151808301835260118082527f4f564d5f467261756456657269666965720000000000000000000000000000008284015260a085019190915282518084018452601781527f4f564d5f53746174654d616e61676572466163746f72790000000000000000008184015260c085015282518084018452601c81527f4f564d5f53746174655472616e736974696f6e6572466163746f7279000000008184015260e0850152825180840184529081527f4f564d5f536166657479436865636b65720000000000000000000000000000008183015261010084015281518083018352601981527f4f564d5f4c314d756c74694d65737361676552656c6179657200000000000000818301526101208401528151808301909252600b82527f426f6e644d616e616765720000000000000000000000000000000000000000009082015261014090910152905060005b601181101561267f5760655473ffffffffffffffffffffffffffffffffffffffff16639b2ea4bd83836011811061261657612616613e2b565b602002015160006040518363ffffffff1660e01b815260040161263a929190613e5a565b600060405180830381600087803b15801561265457600080fd5b505af1158015612668573d6000803e3d6000fd5b50505050808061267790613e92565b9150506125dd565b505060838054610100900460ff1690600161124a83613bcc565b6126a1612d08565b73ffffffffffffffffffffffffffffffffffffffff8116612744576040517f08c379a000000000000000000000000000000000000000000000000000000000815260206004820152602660248201527f4f776e61626c653a206e6577206f776e657220697320746865207a65726f206160448201527f6464726573730000000000000000000000000000000000000000000000000000606482015260840161082e565b61274d81612d89565b50565b612758612d08565b6083546004906301000000900460ff16156127f5576040517f08c379a000000000000000000000000000000000000000000000000000000000815260206004820152602160248201527f53797374656d4469637461746f723a20616c72656164792066696e616c697a6560448201527f6400000000000000000000000000000000000000000000000000000000000000606482015260840161082e565b608354640100000000900460ff161561286a576040517f08c379a000000000000000000000000000000000000000000000000000000000815260206004820152601e60248201527f53797374656d4469637461746f723a20616c7265616479206578697465640000604482015260640161082e565b60835460ff82811661010090920416146128e0576040517f08c379a000000000000000000000000000000000000000000000000000000000815260206004820152601e60248201527f53797374656d4469637461746f723a20696e636f727265637420737465700000604482015260640161082e565b6065546066546040517ff2fde38b00000000000000000000000000000000000000000000000000000000815273ffffffffffffffffffffffffffffffffffffffff918216600482015291169063f2fde38b90602401600060405180830381600087803b15801561294f57600080fd5b505af1158015612963573d6000803e3d6000fd5b5050606c546066546040517f13af403500000000000000000000000000000000000000000000000000000000815273ffffffffffffffffffffffffffffffffffffffff9182166004820152911692506313af40359150602401600060405180830381600087803b1580156129d657600080fd5b505af11580156129ea573d6000803e3d6000fd5b5050606e546066546040517f8f28397000000000000000000000000000000000000000000000000000000000815273ffffffffffffffffffffffffffffffffffffffff918216600482015291169250638f28397091506024016111ff565b612a50612d08565b608354610100900460ff16600314612aea576040517f08c379a000000000000000000000000000000000000000000000000000000000815260206004820152603860248201527f53797374656d4469637461746f723a2063616e206f6e6c79206578697431206260448201527f65666f7265207374657020332069732065786563757465640000000000000000606482015260840161082e565b6065546083546040517f9b2ea4bd00000000000000000000000000000000000000000000000000000000815273ffffffffffffffffffffffffffffffffffffffff92831692639b2ea4bd92612b4f926501000000000090910490911690600401613c4b565b600060405180830381600087803b158015612b6957600080fd5b505af1158015612b7d573d6000803e3d6000fd5b5050606554604080517f9b2ea4bd0000000000000000000000000000000000000000000000000000000081526004810191909152601160448201527f44544c5f534855544f46465f424c4f434b00000000000000000000000000000060648201526000602482015273ffffffffffffffffffffffffffffffffffffffff9091169250639b2ea4bd9150608401600060405180830381600087803b158015612c2357600080fd5b505af1158015612c37573d6000803e3d6000fd5b5050608380547fffffffffffffffffffffffffffffffffffffffffffffffffffffff00ffffffff166401000000001790555050565b6040805160c081018252600080825260208201819052918101829052606081018290526080810182905260a0810191909152506040805160c0810182526301312d008152600a6020820152600891810191909152633b9aca006060820152620f424060808201526fffffffffffffffffffffffffffffffff60a082015290565b73ffffffffffffffffffffffffffffffffffffffff163b151590565b60335473ffffffffffffffffffffffffffffffffffffffff163314611278576040517f08c379a000000000000000000000000000000000000000000000000000000000815260206004820181905260248201527f4f776e61626c653a2063616c6c6572206973206e6f7420746865206f776e6572604482015260640161082e565b6033805473ffffffffffffffffffffffffffffffffffffffff8381167fffffffffffffffffffffffff0000000000000000000000000000000000000000831681179093556040519116919082907f8be0079c531659141344cd1fd0a4f28419497f9722a3daafe3b4186f6b6457e090600090a35050565b600054610100900460ff16612e97576040517f08c379a000000000000000000000000000000000000000000000000000000000815260206004820152602b60248201527f496e697469616c697a61626c653a20636f6e7472616374206973206e6f74206960448201527f6e697469616c697a696e67000000000000000000000000000000000000000000606482015260840161082e565b611278600054610100900460ff16612f31576040517f08c379a000000000000000000000000000000000000000000000000000000000815260206004820152602b60248201527f496e697469616c697a61626c653a20636f6e7472616374206973206e6f74206960448201527f6e697469616c697a696e67000000000000000000000000000000000000000000606482015260840161082e565b61127833612d89565b73ffffffffffffffffffffffffffffffffffffffff808251168352806020830151166020840152806040830151166040840152506060810151612f95606084018273ffffffffffffffffffffffffffffffffffffffff169052565b506080810151612fbd608084018273ffffffffffffffffffffffffffffffffffffffff169052565b5060a0810151612fe560a084018273ffffffffffffffffffffffffffffffffffffffff169052565b5060c081015161300d60c084018273ffffffffffffffffffffffffffffffffffffffff169052565b5060e081015161303560e084018273ffffffffffffffffffffffffffffffffffffffff169052565b506101008181015173ffffffffffffffffffffffffffffffffffffffff8116848301525b50505050565b855173ffffffffffffffffffffffffffffffffffffffff90811682526020808801518216818401526040808901518316818501526060808a015184168186015288518416608086015291880151831660a0850152870151821660c084015286015190811660e083015261044082019050608086015173ffffffffffffffffffffffffffffffffffffffff81166101008401525060a086015173ffffffffffffffffffffffffffffffffffffffff81166101208401525060c086015173ffffffffffffffffffffffffffffffffffffffff81166101408401525060e086015173ffffffffffffffffffffffffffffffffffffffff811661016084015250613169610180830186612f3a565b6132376102a083018573ffffffffffffffffffffffffffffffffffffffff80825116835260208201516020840152604082015160408401526060820151606084015267ffffffffffffffff60808301511660808401528060a08301511660a08401525060c081015163ffffffff8082511660c085015260ff60208301511660e085015260ff6040830151166101008501528060608301511661012085015280608083015116610140850152506fffffffffffffffffffffffffffffffff60a082015116610160840152505050565b825173ffffffffffffffffffffffffffffffffffffffff166104208301529695505050505050565b60a0810181811067ffffffffffffffff821117156132a6577f4e487b7100000000000000000000000000000000000000000000000000000000600052604160045260246000fd5b60405250565b6080810181811067ffffffffffffffff821117156132a6577f4e487b7100000000000000000000000000000000000000000000000000000000600052604160045260246000fd5b7fffffffffffffffffffffffffffffffffffffffffffffffffffffffffffffffe0601f830116810181811067ffffffffffffffff8211171561335e577f4e487b7100000000000000000000000000000000000000000000000000000000600052604160045260246000fd5b6040525050565b604051610120810167ffffffffffffffff811182821017156133b0577f4e487b7100000000000000000000000000000000000000000000000000000000600052604160045260246000fd5b60405290565b73ffffffffffffffffffffffffffffffffffffffff8116811461274d57600080fd5b80356133e3816133b6565b919050565b60006101008083850312156133fc57600080fd5b6040519081019067ffffffffffffffff82118183101715613446577f4e487b7100000000000000000000000000000000000000000000000000000000600052604160045260246000fd5b81604052809250613456846133d8565b8152613464602085016133d8565b6020820152613475604085016133d8565b6040820152613486606085016133d8565b6060820152613497608085016133d8565b60808201526134a860a085016133d8565b60a08201526134b960c085016133d8565b60c08201526134ca60e085016133d8565b60e0820152505092915050565b600061012082840312156134ea57600080fd5b6134f2613365565b90506134fd826133d8565b815261350b602083016133d8565b602082015261351c604083016133d8565b604082015261352d606083016133d8565b606082015261353e608083016133d8565b608082015261354f60a083016133d8565b60a082015261356060c083016133d8565b60c082015261357160e083016133d8565b60e08201526101006135848184016133d8565b9082015292915050565b803567ffffffffffffffff811681146133e357600080fd5b803563ffffffff811681146133e357600080fd5b803560ff811681146133e357600080fd5b600060c082840312156135dd57600080fd5b60405160c0810181811067ffffffffffffffff82111715613627577f4e487b7100000000000000000000000000000000000000000000000000000000600052604160045260246000fd5b604052905080613636836135a6565b8152613644602084016135ba565b6020820152613655604084016135ba565b6040820152613666606084016135a6565b6060820152613677608084016135a6565b608082015260a08301356fffffffffffffffffffffffffffffffff8116811461369f57600080fd5b60a0919091015292915050565b600061018082840312156136bf57600080fd5b60405160e0810181811067ffffffffffffffff82111715613709577f4e487b7100000000000000000000000000000000000000000000000000000000600052604160045260246000fd5b604052905080823561371a816133b6565b808252506020830135602082015260408301356040820152606083013560608201526137486080840161358e565b608082015261375960a084016133d8565b60a082015261376b8460c085016135cb565b60c08201525092915050565b60006020828403121561378957600080fd5b6040516020810181811067ffffffffffffffff821117156137d3577f4e487b7100000000000000000000000000000000000000000000000000000000600052604160045260246000fd5b60405290508082356137e4816133b6565b905292915050565b600081830361044081121561380057600080fd5b60405161380c8161325f565b608082121561381a57600080fd5b6040519150613828826132ac565b8335613833816133b6565b82526020840135613843816133b6565b60208301526040840135613856816133b6565b60408301526060840135613869816133b6565b606083015281815261387e85608086016133e8565b60208201526138918561018086016134d7565b60408201526138a4856102a086016136ac565b60608201526138b7856104208601613777565b6080820152949350505050565b60008082840360608112156138d857600080fd5b60408112156138e657600080fd5b506040516040810181811067ffffffffffffffff82111715613931577f4e487b7100000000000000000000000000000000000000000000000000000000600052604160045260246000fd5b60409081528435825260208086013590830152909250830135801515811461395857600080fd5b809150509250929050565b60006020828403121561397557600080fd5b8135613980816133b6565b9392505050565b60005b838110156139a257818101518382015260200161398a565b838111156130595750506000910152565b600081518084526139cb816020860160208601613987565b601f017fffffffffffffffffffffffffffffffffffffffffffffffffffffffffffffffe0169290920160200192915050565b600073ffffffffffffffffffffffffffffffffffffffff808616835280851660208401525060606040830152613a3660608301846139b3565b95945050505050565b600060033d1115613a585760046000803e5060005160e01c5b90565b600060443d1015613a695790565b6040517ffffffffffffffffffffffffffffffffffffffffffffffffffffffffffffffffc803d016004833e81513d67ffffffffffffffff8160248401118184111715613ab757505050505090565b8285019150815181811115613acf5750505050505090565b843d8701016020828501011115613ae95750505050505090565b613af8602082860101876132f3565b509095945050505050565b60008251613b15818460208701613987565b9190910192915050565b7f53797374656d4469637461746f723a20756e6578706563746564206572726f7281527f20696e697469616c697a696e67204c3158444d3a200000000000000000000000602082015260008251613b7d816035850160208701613987565b9190910160350192915050565b60208152600061398060208301846139b3565b7f4e487b7100000000000000000000000000000000000000000000000000000000600052601160045260246000fd5b600060ff821660ff8103613be257613be2613b9d565b60010192915050565b602081526000613c2860208301601a81527f4f564d5f4c3143726f7373446f6d61696e4d657373656e676572000000000000602082015260400190565b92915050565b600060208284031215613c4057600080fd5b8151613980816133b6565b604081526000613c8860408301601a81527f4f564d5f4c3143726f7373446f6d61696e4d657373656e676572000000000000602082015260400190565b905073ffffffffffffffffffffffffffffffffffffffff8316602083015292915050565b73ffffffffffffffffffffffffffffffffffffffff831681526040810160038310613d00577f4e487b7100000000000000000000000000000000000000000000000000000000600052602160045260246000fd5b8260208301529392505050565b73ffffffffffffffffffffffffffffffffffffffff8216815260406020820152600061398060408301601a81527f4f564d5f4c3143726f7373446f6d61696e4d657373656e676572000000000000602082015260400190565b60006101808201905073ffffffffffffffffffffffffffffffffffffffff808a16835288602084015287604084015286606084015267ffffffffffffffff8616608084015280851660a084015250825463ffffffff80821660c085015260ff8260201c1660e085015260ff8260281c16610100850152808260301c16610120850152613e006101408501828460501c1663ffffffff169052565b50607081901c6fffffffffffffffffffffffffffffffff166101608401525098975050505050505050565b7f4e487b7100000000000000000000000000000000000000000000000000000000600052603260045260246000fd5b604081526000613e6d60408301856139b3565b905073ffffffffffffffffffffffffffffffffffffffff831660208301529392505050565b60007fffffffffffffffffffffffffffffffffffffffffffffffffffffffffffffffff8203613ec357613ec3613b9d565b506001019056fe4f564d5f4465636f6d7072657373696f6e507265636f6d70696c65416464726573734f564d5f436861696e53746f72616765436f6e7461696e65722d4354432d626174636865734f564d5f436861696e53746f72616765436f6e7461696e65722d4354432d7175657565a164736f6c634300080f000a496e697469616c697a61626c653a20636f6e7472616374206973206e6f742069",
  "devdoc": {
    "version": 1,
    "kind": "dev",
    "methods": {
      "initialize(((address,address,address,address),(address,address,address,address,address,address,address,address),(address,address,address,address,address,address,address,address,address),(address,uint256,uint256,bytes32,uint64,address,(uint32,uint8,uint8,uint32,uint32,uint128)),(address)))": {
        "params": {
          "_config": "System configuration."
        }
      },
      "owner()": {
        "details": "Returns the address of the current owner."
      },
      "renounceOwnership()": {
        "details": "Leaves the contract without owner. It will not be possible to call `onlyOwner` functions anymore. Can only be called by the current owner. NOTE: Renouncing ownership will leave the contract without an owner, thereby removing any functionality that is only available to the owner."
      },
      "transferOwnership(address)": {
        "details": "Transfers ownership of the contract to a new account (`newOwner`). Can only be called by the current owner."
      },
      "updateDynamicConfig((uint256,uint256),bool)": {
        "params": {
          "_l2OutputOracleDynamicConfig": "Dynamic L2OutputOracle config.",
          "_optimismPortalDynamicConfig": "Dynamic OptimismPortal config."
        }
      }
    },
    "title": "SystemDictator"
  },
  "userdoc": {
    "version": 1,
    "kind": "user",
    "methods": {
      "EXIT_1_NO_RETURN_STEP()": {
        "notice": "Step after which exit 1 can no longer be used."
      },
      "PROXY_TRANSFER_STEP()": {
        "notice": "Step where proxy ownership is transferred."
      },
      "config()": {
        "notice": "System configuration."
      },
      "constructor": {
        "notice": "Constructor required to ensure that the implementation of the SystemDictator is         initialized upon deployment."
      },
      "currentStep()": {
        "notice": "Current step;"
      },
      "dynamicConfigSet()": {
        "notice": "Whether or not dynamic config has been set."
      },
      "exit1()": {
        "notice": "First exit point, can only be called before step 3 is executed."
      },
      "exited()": {
        "notice": "Whether or not the deployment has been exited."
      },
      "finalize()": {
        "notice": "Tranfers admin ownership to the final owner."
      },
      "finalized()": {
        "notice": "Whether or not the deployment is finalized."
      },
      "l2OutputOracleDynamicConfig()": {
        "notice": "Dynamic configuration for the L2OutputOracle."
      },
      "oldL1CrossDomainMessenger()": {
        "notice": "Address of the old L1CrossDomainMessenger implementation."
      },
      "optimismPortalDynamicConfig()": {
        "notice": "Dynamic configuration for the OptimismPortal. Determines         if the system should be paused when initialized."
      },
      "step1()": {
        "notice": "Configures the ProxyAdmin contract."
      },
      "step2()": {
        "notice": "Pauses the system by shutting down the L1CrossDomainMessenger and setting the         deposit halt flag to tell the Sequencer's DTL to stop accepting deposits."
      },
      "step3()": {
        "notice": "Removes deprecated addresses from the AddressManager."
      },
      "step4()": {
        "notice": "Transfers system ownership to the ProxyAdmin."
      },
      "step5()": {
        "notice": "Upgrades and initializes proxy contracts."
      },
      "updateDynamicConfig((uint256,uint256),bool)": {
        "notice": "Allows the owner to update dynamic config."
      }
    },
    "notice": "The SystemDictator is responsible for coordinating the deployment of a full Bedrock         system. The SystemDictator is designed to support both fresh network deployments and         upgrades to existing pre-Bedrock systems."
  },
  "storageLayout": {
    "storage": [
      {
        "astId": 48585,
        "contract": "contracts/deployment/SystemDictator.sol:SystemDictator",
        "label": "_initialized",
        "offset": 0,
        "slot": "0",
        "type": "t_uint8"
      },
      {
        "astId": 48588,
        "contract": "contracts/deployment/SystemDictator.sol:SystemDictator",
        "label": "_initializing",
        "offset": 1,
        "slot": "0",
        "type": "t_bool"
      },
      {
        "astId": 49013,
        "contract": "contracts/deployment/SystemDictator.sol:SystemDictator",
        "label": "__gap",
        "offset": 0,
        "slot": "1",
        "type": "t_array(t_uint256)50_storage"
      },
      {
        "astId": 48457,
        "contract": "contracts/deployment/SystemDictator.sol:SystemDictator",
        "label": "_owner",
        "offset": 0,
        "slot": "51",
        "type": "t_address"
      },
      {
        "astId": 48577,
        "contract": "contracts/deployment/SystemDictator.sol:SystemDictator",
        "label": "__gap",
        "offset": 0,
        "slot": "52",
        "type": "t_array(t_uint256)49_storage"
      },
      {
        "astId": 4387,
        "contract": "contracts/deployment/SystemDictator.sol:SystemDictator",
        "label": "config",
        "offset": 0,
        "slot": "101",
        "type": "t_struct(DeployConfig)4375_storage"
      },
      {
        "astId": 4391,
        "contract": "contracts/deployment/SystemDictator.sol:SystemDictator",
        "label": "l2OutputOracleDynamicConfig",
        "offset": 0,
        "slot": "129",
        "type": "t_struct(L2OutputOracleDynamicConfig)4343_storage"
      },
      {
        "astId": 4394,
        "contract": "contracts/deployment/SystemDictator.sol:SystemDictator",
        "label": "optimismPortalDynamicConfig",
        "offset": 0,
        "slot": "131",
        "type": "t_bool"
      },
      {
        "astId": 4397,
        "contract": "contracts/deployment/SystemDictator.sol:SystemDictator",
        "label": "currentStep",
        "offset": 1,
        "slot": "131",
        "type": "t_uint8"
      },
      {
        "astId": 4400,
        "contract": "contracts/deployment/SystemDictator.sol:SystemDictator",
        "label": "dynamicConfigSet",
        "offset": 2,
        "slot": "131",
        "type": "t_bool"
      },
      {
        "astId": 4403,
        "contract": "contracts/deployment/SystemDictator.sol:SystemDictator",
        "label": "finalized",
        "offset": 3,
        "slot": "131",
        "type": "t_bool"
      },
      {
        "astId": 4406,
        "contract": "contracts/deployment/SystemDictator.sol:SystemDictator",
        "label": "exited",
        "offset": 4,
        "slot": "131",
        "type": "t_bool"
      },
      {
        "astId": 4409,
        "contract": "contracts/deployment/SystemDictator.sol:SystemDictator",
        "label": "oldL1CrossDomainMessenger",
        "offset": 5,
        "slot": "131",
        "type": "t_address"
      }
    ],
    "types": {
      "t_address": {
        "encoding": "inplace",
        "label": "address",
        "numberOfBytes": "20"
      },
      "t_array(t_uint256)49_storage": {
        "encoding": "inplace",
        "label": "uint256[49]",
        "numberOfBytes": "1568",
        "base": "t_uint256"
      },
      "t_array(t_uint256)50_storage": {
        "encoding": "inplace",
        "label": "uint256[50]",
        "numberOfBytes": "1600",
        "base": "t_uint256"
      },
      "t_bool": {
        "encoding": "inplace",
        "label": "bool",
        "numberOfBytes": "1"
      },
      "t_bytes32": {
        "encoding": "inplace",
        "label": "bytes32",
        "numberOfBytes": "32"
      },
      "t_contract(AddressManager)6301": {
        "encoding": "inplace",
        "label": "contract AddressManager",
        "numberOfBytes": "20"
      },
      "t_contract(BatchInbox)80": {
        "encoding": "inplace",
        "label": "contract BatchInbox",
        "numberOfBytes": "20"
      },
      "t_contract(L1CrossDomainMessenger)206": {
        "encoding": "inplace",
        "label": "contract L1CrossDomainMessenger",
        "numberOfBytes": "20"
      },
      "t_contract(L1ERC721Bridge)406": {
        "encoding": "inplace",
        "label": "contract L1ERC721Bridge",
        "numberOfBytes": "20"
      },
      "t_contract(L1StandardBridge)853": {
        "encoding": "inplace",
        "label": "contract L1StandardBridge",
        "numberOfBytes": "20"
      },
      "t_contract(L2OutputOracle)1314": {
        "encoding": "inplace",
        "label": "contract L2OutputOracle",
        "numberOfBytes": "20"
      },
      "t_contract(OptimismMintableERC20Factory)46539": {
        "encoding": "inplace",
        "label": "contract OptimismMintableERC20Factory",
        "numberOfBytes": "20"
      },
      "t_contract(OptimismPortal)1964": {
        "encoding": "inplace",
        "label": "contract OptimismPortal",
        "numberOfBytes": "20"
      },
      "t_contract(PortalSender)4242": {
        "encoding": "inplace",
        "label": "contract PortalSender",
        "numberOfBytes": "20"
      },
      "t_contract(ProxyAdmin)47600": {
        "encoding": "inplace",
        "label": "contract ProxyAdmin",
        "numberOfBytes": "20"
      },
      "t_contract(SystemConfig)2724": {
        "encoding": "inplace",
        "label": "contract SystemConfig",
        "numberOfBytes": "20"
      },
      "t_struct(BatchInboxConfig)4338_storage": {
        "encoding": "inplace",
        "label": "struct SystemDictator.BatchInboxConfig",
        "numberOfBytes": "32",
        "members": [
          {
            "astId": 4337,
            "contract": "contracts/deployment/SystemDictator.sol:SystemDictator",
            "label": "batchInboxOwner",
            "offset": 0,
            "slot": "0",
            "type": "t_address"
          }
        ]
      },
      "t_struct(DeployConfig)4375_storage": {
        "encoding": "inplace",
        "label": "struct SystemDictator.DeployConfig",
        "numberOfBytes": "896",
        "members": [
          {
            "astId": 4362,
            "contract": "contracts/deployment/SystemDictator.sol:SystemDictator",
            "label": "globalConfig",
            "offset": 0,
            "slot": "0",
            "type": "t_struct(GlobalConfig)4290_storage"
          },
          {
            "astId": 4365,
            "contract": "contracts/deployment/SystemDictator.sol:SystemDictator",
            "label": "proxyAddressConfig",
            "offset": 0,
            "slot": "4",
            "type": "t_struct(ProxyAddressConfig)4307_storage"
          },
          {
            "astId": 4368,
            "contract": "contracts/deployment/SystemDictator.sol:SystemDictator",
            "label": "implementationAddressConfig",
            "offset": 0,
            "slot": "12",
            "type": "t_struct(ImplementationAddressConfig)4335_storage"
          },
          {
            "astId": 4371,
            "contract": "contracts/deployment/SystemDictator.sol:SystemDictator",
            "label": "systemConfigConfig",
            "offset": 0,
            "slot": "21",
            "type": "t_struct(SystemConfigConfig)4359_storage"
          },
          {
            "astId": 4374,
            "contract": "contracts/deployment/SystemDictator.sol:SystemDictator",
            "label": "batchInboxConfig",
            "offset": 0,
            "slot": "27",
            "type": "t_struct(BatchInboxConfig)4338_storage"
          }
        ]
      },
      "t_struct(GlobalConfig)4290_storage": {
        "encoding": "inplace",
        "label": "struct SystemDictator.GlobalConfig",
        "numberOfBytes": "128",
        "members": [
          {
            "astId": 4282,
            "contract": "contracts/deployment/SystemDictator.sol:SystemDictator",
            "label": "addressManager",
            "offset": 0,
            "slot": "0",
            "type": "t_contract(AddressManager)6301"
          },
          {
            "astId": 4285,
            "contract": "contracts/deployment/SystemDictator.sol:SystemDictator",
            "label": "proxyAdmin",
            "offset": 0,
            "slot": "1",
            "type": "t_contract(ProxyAdmin)47600"
          },
          {
            "astId": 4287,
            "contract": "contracts/deployment/SystemDictator.sol:SystemDictator",
            "label": "controller",
            "offset": 0,
            "slot": "2",
            "type": "t_address"
          },
          {
            "astId": 4289,
            "contract": "contracts/deployment/SystemDictator.sol:SystemDictator",
            "label": "finalOwner",
            "offset": 0,
            "slot": "3",
            "type": "t_address"
          }
        ]
      },
      "t_struct(ImplementationAddressConfig)4335_storage": {
        "encoding": "inplace",
        "label": "struct SystemDictator.ImplementationAddressConfig",
        "numberOfBytes": "288",
        "members": [
          {
            "astId": 4310,
            "contract": "contracts/deployment/SystemDictator.sol:SystemDictator",
            "label": "l2OutputOracleImpl",
            "offset": 0,
            "slot": "0",
            "type": "t_contract(L2OutputOracle)1314"
          },
          {
            "astId": 4313,
            "contract": "contracts/deployment/SystemDictator.sol:SystemDictator",
            "label": "optimismPortalImpl",
            "offset": 0,
            "slot": "1",
            "type": "t_contract(OptimismPortal)1964"
          },
          {
            "astId": 4316,
            "contract": "contracts/deployment/SystemDictator.sol:SystemDictator",
            "label": "l1CrossDomainMessengerImpl",
            "offset": 0,
            "slot": "2",
            "type": "t_contract(L1CrossDomainMessenger)206"
          },
          {
            "astId": 4319,
            "contract": "contracts/deployment/SystemDictator.sol:SystemDictator",
            "label": "l1StandardBridgeImpl",
            "offset": 0,
            "slot": "3",
            "type": "t_contract(L1StandardBridge)853"
          },
          {
            "astId": 4322,
            "contract": "contracts/deployment/SystemDictator.sol:SystemDictator",
            "label": "optimismMintableERC20FactoryImpl",
            "offset": 0,
            "slot": "4",
            "type": "t_contract(OptimismMintableERC20Factory)46539"
          },
          {
            "astId": 4325,
            "contract": "contracts/deployment/SystemDictator.sol:SystemDictator",
            "label": "l1ERC721BridgeImpl",
            "offset": 0,
            "slot": "5",
            "type": "t_contract(L1ERC721Bridge)406"
          },
          {
            "astId": 4328,
            "contract": "contracts/deployment/SystemDictator.sol:SystemDictator",
            "label": "portalSenderImpl",
            "offset": 0,
            "slot": "6",
            "type": "t_contract(PortalSender)4242"
          },
          {
            "astId": 4331,
            "contract": "contracts/deployment/SystemDictator.sol:SystemDictator",
            "label": "systemConfigImpl",
            "offset": 0,
            "slot": "7",
            "type": "t_contract(SystemConfig)2724"
          },
          {
            "astId": 4334,
            "contract": "contracts/deployment/SystemDictator.sol:SystemDictator",
            "label": "batchInboxImpl",
            "offset": 0,
            "slot": "8",
            "type": "t_contract(BatchInbox)80"
          }
        ]
      },
      "t_struct(L2OutputOracleDynamicConfig)4343_storage": {
        "encoding": "inplace",
        "label": "struct SystemDictator.L2OutputOracleDynamicConfig",
        "numberOfBytes": "64",
        "members": [
          {
            "astId": 4340,
            "contract": "contracts/deployment/SystemDictator.sol:SystemDictator",
            "label": "l2OutputOracleStartingBlockNumber",
            "offset": 0,
            "slot": "0",
            "type": "t_uint256"
          },
          {
            "astId": 4342,
            "contract": "contracts/deployment/SystemDictator.sol:SystemDictator",
            "label": "l2OutputOracleStartingTimestamp",
            "offset": 0,
            "slot": "1",
            "type": "t_uint256"
          }
        ]
      },
      "t_struct(ProxyAddressConfig)4307_storage": {
        "encoding": "inplace",
        "label": "struct SystemDictator.ProxyAddressConfig",
        "numberOfBytes": "256",
        "members": [
          {
            "astId": 4292,
            "contract": "contracts/deployment/SystemDictator.sol:SystemDictator",
            "label": "l2OutputOracleProxy",
            "offset": 0,
            "slot": "0",
            "type": "t_address"
          },
          {
            "astId": 4294,
            "contract": "contracts/deployment/SystemDictator.sol:SystemDictator",
            "label": "optimismPortalProxy",
            "offset": 0,
            "slot": "1",
            "type": "t_address"
          },
          {
            "astId": 4296,
            "contract": "contracts/deployment/SystemDictator.sol:SystemDictator",
            "label": "l1CrossDomainMessengerProxy",
            "offset": 0,
            "slot": "2",
            "type": "t_address"
          },
          {
            "astId": 4298,
            "contract": "contracts/deployment/SystemDictator.sol:SystemDictator",
            "label": "l1StandardBridgeProxy",
            "offset": 0,
            "slot": "3",
            "type": "t_address"
          },
          {
            "astId": 4300,
            "contract": "contracts/deployment/SystemDictator.sol:SystemDictator",
            "label": "optimismMintableERC20FactoryProxy",
            "offset": 0,
            "slot": "4",
            "type": "t_address"
          },
          {
            "astId": 4302,
            "contract": "contracts/deployment/SystemDictator.sol:SystemDictator",
            "label": "l1ERC721BridgeProxy",
            "offset": 0,
            "slot": "5",
            "type": "t_address"
          },
          {
            "astId": 4304,
            "contract": "contracts/deployment/SystemDictator.sol:SystemDictator",
            "label": "systemConfigProxy",
            "offset": 0,
            "slot": "6",
            "type": "t_address"
          },
          {
            "astId": 4306,
            "contract": "contracts/deployment/SystemDictator.sol:SystemDictator",
            "label": "batchInboxProxy",
            "offset": 0,
            "slot": "7",
            "type": "t_address"
          }
        ]
      },
      "t_struct(ResourceConfig)1997_storage": {
        "encoding": "inplace",
        "label": "struct ResourceMetering.ResourceConfig",
        "numberOfBytes": "32",
        "members": [
          {
            "astId": 1986,
            "contract": "contracts/deployment/SystemDictator.sol:SystemDictator",
            "label": "maxResourceLimit",
            "offset": 0,
            "slot": "0",
            "type": "t_uint32"
          },
          {
            "astId": 1988,
            "contract": "contracts/deployment/SystemDictator.sol:SystemDictator",
            "label": "elasticityMultiplier",
            "offset": 4,
            "slot": "0",
            "type": "t_uint8"
          },
          {
            "astId": 1990,
            "contract": "contracts/deployment/SystemDictator.sol:SystemDictator",
            "label": "baseFeeMaxChangeDenominator",
            "offset": 5,
            "slot": "0",
            "type": "t_uint8"
          },
          {
            "astId": 1992,
            "contract": "contracts/deployment/SystemDictator.sol:SystemDictator",
            "label": "minimumBaseFee",
            "offset": 6,
            "slot": "0",
            "type": "t_uint32"
          },
          {
            "astId": 1994,
            "contract": "contracts/deployment/SystemDictator.sol:SystemDictator",
            "label": "systemTxMaxGas",
            "offset": 10,
            "slot": "0",
            "type": "t_uint32"
          },
          {
            "astId": 1996,
            "contract": "contracts/deployment/SystemDictator.sol:SystemDictator",
            "label": "maximumBaseFee",
            "offset": 14,
            "slot": "0",
            "type": "t_uint128"
          }
        ]
      },
      "t_struct(SystemConfigConfig)4359_storage": {
        "encoding": "inplace",
        "label": "struct SystemDictator.SystemConfigConfig",
        "numberOfBytes": "192",
        "members": [
          {
            "astId": 4345,
            "contract": "contracts/deployment/SystemDictator.sol:SystemDictator",
            "label": "owner",
            "offset": 0,
            "slot": "0",
            "type": "t_address"
          },
          {
            "astId": 4347,
            "contract": "contracts/deployment/SystemDictator.sol:SystemDictator",
            "label": "overhead",
            "offset": 0,
            "slot": "1",
            "type": "t_uint256"
          },
          {
            "astId": 4349,
            "contract": "contracts/deployment/SystemDictator.sol:SystemDictator",
            "label": "scalar",
            "offset": 0,
            "slot": "2",
            "type": "t_uint256"
          },
          {
            "astId": 4351,
            "contract": "contracts/deployment/SystemDictator.sol:SystemDictator",
            "label": "batcherHash",
            "offset": 0,
            "slot": "3",
            "type": "t_bytes32"
          },
          {
            "astId": 4353,
            "contract": "contracts/deployment/SystemDictator.sol:SystemDictator",
            "label": "gasLimit",
            "offset": 0,
            "slot": "4",
            "type": "t_uint64"
          },
          {
            "astId": 4355,
            "contract": "contracts/deployment/SystemDictator.sol:SystemDictator",
            "label": "unsafeBlockSigner",
            "offset": 8,
            "slot": "4",
            "type": "t_address"
          },
          {
            "astId": 4358,
            "contract": "contracts/deployment/SystemDictator.sol:SystemDictator",
            "label": "resourceConfig",
            "offset": 0,
            "slot": "5",
            "type": "t_struct(ResourceConfig)1997_storage"
          }
        ]
      },
      "t_uint128": {
        "encoding": "inplace",
        "label": "uint128",
        "numberOfBytes": "16"
      },
      "t_uint256": {
        "encoding": "inplace",
        "label": "uint256",
        "numberOfBytes": "32"
      },
      "t_uint32": {
        "encoding": "inplace",
        "label": "uint32",
        "numberOfBytes": "4"
      },
      "t_uint64": {
        "encoding": "inplace",
        "label": "uint64",
        "numberOfBytes": "8"
      },
      "t_uint8": {
        "encoding": "inplace",
        "label": "uint8",
        "numberOfBytes": "1"
      }
    }
  }
}