{
  "address": "0x6889C6633F6BF09AAac909204e4FDA37e47C3C3f",
  "abi": [
    {
      "inputs": [],
      "stateMutability": "nonpayable",
      "type": "constructor"
    },
    {
      "anonymous": false,
      "inputs": [
        {
          "indexed": false,
          "internalType": "uint8",
          "name": "version",
          "type": "uint8"
        }
      ],
      "name": "Initialized",
      "type": "event"
    },
    {
      "anonymous": false,
      "inputs": [
        {
          "indexed": true,
          "internalType": "address",
          "name": "previousOwner",
          "type": "address"
        },
        {
          "indexed": true,
          "internalType": "address",
          "name": "newOwner",
          "type": "address"
        }
      ],
      "name": "OwnershipTransferred",
      "type": "event"
    },
    {
      "inputs": [],
      "name": "EXIT_1_NO_RETURN_STEP",
      "outputs": [
        {
          "internalType": "uint8",
          "name": "",
          "type": "uint8"
        }
      ],
      "stateMutability": "view",
      "type": "function"
    },
    {
      "inputs": [],
      "name": "PROXY_TRANSFER_STEP",
      "outputs": [
        {
          "internalType": "uint8",
          "name": "",
          "type": "uint8"
        }
      ],
      "stateMutability": "view",
      "type": "function"
    },
    {
      "inputs": [],
      "name": "config",
      "outputs": [
        {
          "components": [
            {
              "internalType": "contract ProxyAdmin",
              "name": "proxyAdmin",
              "type": "address"
            },
            {
              "internalType": "address",
              "name": "controller",
              "type": "address"
            },
            {
              "internalType": "address",
              "name": "finalOwner",
              "type": "address"
            }
          ],
          "internalType": "struct SystemDictator.GlobalConfig",
          "name": "globalConfig",
          "type": "tuple"
        },
        {
          "components": [
            {
              "internalType": "address",
              "name": "l2OutputOracleProxy",
              "type": "address"
            },
            {
              "internalType": "address",
              "name": "optimismPortalProxy",
              "type": "address"
            },
            {
              "internalType": "address",
              "name": "l1CrossDomainMessengerProxy",
              "type": "address"
            },
            {
              "internalType": "address",
              "name": "l1StandardBridgeProxy",
              "type": "address"
            },
            {
              "internalType": "address",
              "name": "optimismMintableERC20FactoryProxy",
              "type": "address"
            },
            {
              "internalType": "address",
              "name": "l1ERC721BridgeProxy",
              "type": "address"
            },
            {
              "internalType": "address",
              "name": "systemConfigProxy",
              "type": "address"
            }
          ],
          "internalType": "struct SystemDictator.ProxyAddressConfig",
          "name": "proxyAddressConfig",
          "type": "tuple"
        },
        {
          "components": [
            {
              "internalType": "contract L2OutputOracle",
              "name": "l2OutputOracleImpl",
              "type": "address"
            },
            {
              "internalType": "contract OptimismPortal",
              "name": "optimismPortalImpl",
              "type": "address"
            },
            {
              "internalType": "contract L1CrossDomainMessenger",
              "name": "l1CrossDomainMessengerImpl",
              "type": "address"
            },
            {
              "internalType": "contract L1StandardBridge",
              "name": "l1StandardBridgeImpl",
              "type": "address"
            },
            {
              "internalType": "contract OptimismMintableERC20Factory",
              "name": "optimismMintableERC20FactoryImpl",
              "type": "address"
            },
            {
              "internalType": "contract L1ERC721Bridge",
              "name": "l1ERC721BridgeImpl",
              "type": "address"
            },
            {
              "internalType": "contract PortalSender",
              "name": "portalSenderImpl",
              "type": "address"
            },
            {
              "internalType": "contract SystemConfig",
              "name": "systemConfigImpl",
              "type": "address"
            }
          ],
          "internalType": "struct SystemDictator.ImplementationAddressConfig",
          "name": "implementationAddressConfig",
          "type": "tuple"
        },
        {
          "components": [
            {
              "internalType": "address",
              "name": "owner",
              "type": "address"
            },
            {
              "internalType": "uint256",
              "name": "overhead",
              "type": "uint256"
            },
            {
              "internalType": "uint256",
              "name": "scalar",
              "type": "uint256"
            },
            {
              "internalType": "bytes32",
              "name": "batcherHash",
              "type": "bytes32"
            },
            {
              "internalType": "uint64",
              "name": "gasLimit",
              "type": "uint64"
            },
            {
              "internalType": "address",
              "name": "unsafeBlockSigner",
              "type": "address"
            },
            {
              "components": [
                {
                  "internalType": "uint32",
                  "name": "maxResourceLimit",
                  "type": "uint32"
                },
                {
                  "internalType": "uint8",
                  "name": "elasticityMultiplier",
                  "type": "uint8"
                },
                {
                  "internalType": "uint8",
                  "name": "baseFeeMaxChangeDenominator",
                  "type": "uint8"
                },
                {
                  "internalType": "uint32",
                  "name": "minimumBaseFee",
                  "type": "uint32"
                },
                {
                  "internalType": "uint32",
                  "name": "systemTxMaxGas",
                  "type": "uint32"
                },
                {
                  "internalType": "uint128",
                  "name": "maximumBaseFee",
                  "type": "uint128"
                }
              ],
              "internalType": "struct ResourceMetering.ResourceConfig",
              "name": "resourceConfig",
              "type": "tuple"
            }
          ],
          "internalType": "struct SystemDictator.SystemConfigConfig",
          "name": "systemConfigConfig",
          "type": "tuple"
        }
      ],
      "stateMutability": "view",
      "type": "function"
    },
    {
      "inputs": [],
      "name": "currentStep",
      "outputs": [
        {
          "internalType": "uint8",
          "name": "",
          "type": "uint8"
        }
      ],
      "stateMutability": "view",
      "type": "function"
    },
    {
      "inputs": [],
      "name": "dynamicConfigSet",
      "outputs": [
        {
          "internalType": "bool",
          "name": "",
          "type": "bool"
        }
      ],
      "stateMutability": "view",
      "type": "function"
    },
    {
      "inputs": [],
      "name": "exit1",
      "outputs": [],
      "stateMutability": "nonpayable",
      "type": "function"
    },
    {
      "inputs": [],
      "name": "exited",
      "outputs": [
        {
          "internalType": "bool",
          "name": "",
          "type": "bool"
        }
      ],
      "stateMutability": "view",
      "type": "function"
    },
    {
      "inputs": [],
      "name": "finalize",
      "outputs": [],
      "stateMutability": "nonpayable",
      "type": "function"
    },
    {
      "inputs": [],
      "name": "finalized",
      "outputs": [
        {
          "internalType": "bool",
          "name": "",
          "type": "bool"
        }
      ],
      "stateMutability": "view",
      "type": "function"
    },
    {
      "inputs": [
        {
          "components": [
            {
              "components": [
                {
                  "internalType": "contract ProxyAdmin",
                  "name": "proxyAdmin",
                  "type": "address"
                },
                {
                  "internalType": "address",
                  "name": "controller",
                  "type": "address"
                },
                {
                  "internalType": "address",
                  "name": "finalOwner",
                  "type": "address"
                }
              ],
              "internalType": "struct SystemDictator.GlobalConfig",
              "name": "globalConfig",
              "type": "tuple"
            },
            {
              "components": [
                {
                  "internalType": "address",
                  "name": "l2OutputOracleProxy",
                  "type": "address"
                },
                {
                  "internalType": "address",
                  "name": "optimismPortalProxy",
                  "type": "address"
                },
                {
                  "internalType": "address",
                  "name": "l1CrossDomainMessengerProxy",
                  "type": "address"
                },
                {
                  "internalType": "address",
                  "name": "l1StandardBridgeProxy",
                  "type": "address"
                },
                {
                  "internalType": "address",
                  "name": "optimismMintableERC20FactoryProxy",
                  "type": "address"
                },
                {
                  "internalType": "address",
                  "name": "l1ERC721BridgeProxy",
                  "type": "address"
                },
                {
                  "internalType": "address",
                  "name": "systemConfigProxy",
                  "type": "address"
                }
              ],
              "internalType": "struct SystemDictator.ProxyAddressConfig",
              "name": "proxyAddressConfig",
              "type": "tuple"
            },
            {
              "components": [
                {
                  "internalType": "contract L2OutputOracle",
                  "name": "l2OutputOracleImpl",
                  "type": "address"
                },
                {
                  "internalType": "contract OptimismPortal",
                  "name": "optimismPortalImpl",
                  "type": "address"
                },
                {
                  "internalType": "contract L1CrossDomainMessenger",
                  "name": "l1CrossDomainMessengerImpl",
                  "type": "address"
                },
                {
                  "internalType": "contract L1StandardBridge",
                  "name": "l1StandardBridgeImpl",
                  "type": "address"
                },
                {
                  "internalType": "contract OptimismMintableERC20Factory",
                  "name": "optimismMintableERC20FactoryImpl",
                  "type": "address"
                },
                {
                  "internalType": "contract L1ERC721Bridge",
                  "name": "l1ERC721BridgeImpl",
                  "type": "address"
                },
                {
                  "internalType": "contract PortalSender",
                  "name": "portalSenderImpl",
                  "type": "address"
                },
                {
                  "internalType": "contract SystemConfig",
                  "name": "systemConfigImpl",
                  "type": "address"
                }
              ],
              "internalType": "struct SystemDictator.ImplementationAddressConfig",
              "name": "implementationAddressConfig",
              "type": "tuple"
            },
            {
              "components": [
                {
                  "internalType": "address",
                  "name": "owner",
                  "type": "address"
                },
                {
                  "internalType": "uint256",
                  "name": "overhead",
                  "type": "uint256"
                },
                {
                  "internalType": "uint256",
                  "name": "scalar",
                  "type": "uint256"
                },
                {
                  "internalType": "bytes32",
                  "name": "batcherHash",
                  "type": "bytes32"
                },
                {
                  "internalType": "uint64",
                  "name": "gasLimit",
                  "type": "uint64"
                },
                {
                  "internalType": "address",
                  "name": "unsafeBlockSigner",
                  "type": "address"
                },
                {
                  "components": [
                    {
                      "internalType": "uint32",
                      "name": "maxResourceLimit",
                      "type": "uint32"
                    },
                    {
                      "internalType": "uint8",
                      "name": "elasticityMultiplier",
                      "type": "uint8"
                    },
                    {
                      "internalType": "uint8",
                      "name": "baseFeeMaxChangeDenominator",
                      "type": "uint8"
                    },
                    {
                      "internalType": "uint32",
                      "name": "minimumBaseFee",
                      "type": "uint32"
                    },
                    {
                      "internalType": "uint32",
                      "name": "systemTxMaxGas",
                      "type": "uint32"
                    },
                    {
                      "internalType": "uint128",
                      "name": "maximumBaseFee",
                      "type": "uint128"
                    }
                  ],
                  "internalType": "struct ResourceMetering.ResourceConfig",
                  "name": "resourceConfig",
                  "type": "tuple"
                }
              ],
              "internalType": "struct SystemDictator.SystemConfigConfig",
              "name": "systemConfigConfig",
              "type": "tuple"
            }
          ],
          "internalType": "struct SystemDictator.DeployConfig",
          "name": "_config",
          "type": "tuple"
        }
      ],
      "name": "initialize",
      "outputs": [],
      "stateMutability": "nonpayable",
      "type": "function"
    },
    {
      "inputs": [],
      "name": "l2OutputOracleDynamicConfig",
      "outputs": [
        {
          "internalType": "uint256",
          "name": "l2OutputOracleStartingBlockNumber",
          "type": "uint256"
        },
        {
          "internalType": "uint256",
          "name": "l2OutputOracleStartingTimestamp",
          "type": "uint256"
        }
      ],
      "stateMutability": "view",
      "type": "function"
    },
    {
      "inputs": [],
      "name": "oldL1CrossDomainMessenger",
      "outputs": [
        {
          "internalType": "address",
          "name": "",
          "type": "address"
        }
      ],
      "stateMutability": "view",
      "type": "function"
    },
    {
      "inputs": [],
      "name": "optimismPortalDynamicConfig",
      "outputs": [
        {
          "internalType": "bool",
          "name": "",
          "type": "bool"
        }
      ],
      "stateMutability": "view",
      "type": "function"
    },
    {
      "inputs": [],
      "name": "owner",
      "outputs": [
        {
          "internalType": "address",
          "name": "",
          "type": "address"
        }
      ],
      "stateMutability": "view",
      "type": "function"
    },
    {
      "inputs": [],
      "name": "phase1",
      "outputs": [],
      "stateMutability": "nonpayable",
      "type": "function"
    },
    {
      "inputs": [],
      "name": "phase2",
      "outputs": [],
      "stateMutability": "nonpayable",
      "type": "function"
    },
    {
      "inputs": [],
      "name": "renounceOwnership",
      "outputs": [],
      "stateMutability": "nonpayable",
      "type": "function"
    },
    {
      "inputs": [],
      "name": "step1",
      "outputs": [],
      "stateMutability": "nonpayable",
      "type": "function"
    },
    {
      "inputs": [],
      "name": "step2",
      "outputs": [],
      "stateMutability": "nonpayable",
      "type": "function"
    },
    {
      "inputs": [],
      "name": "step3",
      "outputs": [],
      "stateMutability": "nonpayable",
      "type": "function"
    },
    {
      "inputs": [],
      "name": "step4",
      "outputs": [],
      "stateMutability": "nonpayable",
      "type": "function"
    },
    {
      "inputs": [],
      "name": "step5",
      "outputs": [],
      "stateMutability": "nonpayable",
      "type": "function"
    },
    {
      "inputs": [
        {
          "internalType": "address",
          "name": "newOwner",
          "type": "address"
        }
      ],
      "name": "transferOwnership",
      "outputs": [],
      "stateMutability": "nonpayable",
      "type": "function"
    },
    {
      "inputs": [
        {
          "components": [
            {
              "internalType": "uint256",
              "name": "l2OutputOracleStartingBlockNumber",
              "type": "uint256"
            },
            {
              "internalType": "uint256",
              "name": "l2OutputOracleStartingTimestamp",
              "type": "uint256"
            }
          ],
          "internalType": "struct SystemDictator.L2OutputOracleDynamicConfig",
          "name": "_l2OutputOracleDynamicConfig",
          "type": "tuple"
        },
        {
          "internalType": "bool",
          "name": "_optimismPortalDynamicConfig",
          "type": "bool"
        }
      ],
      "name": "updateDynamicConfig",
      "outputs": [],
      "stateMutability": "nonpayable",
      "type": "function"
    }
  ],
  "transactionHash": "0x663b1dd735cbacd39c9a7df6e170db2581d3b92cb53b390e34ee2de40f8228c4",
  "args": [],
  "numDeployments": 1,
  "solcInputHash": "a38e45a6ee0fd3bc54175ae04961b2d8",
  "bytecode": "0x60806040523480156200001157600080fd5b506000620000296200010b60201b620021601760201c565b6040805160e080820183526000608080840182815260a080860184905260c0808701859052918652865180860188528481526020818101869052818901869052606082810187905282860187905282840187905282850187905281890192909252885161010081018a52868152808201879052808a01879052808301879052808601879052808401879052808501879052808801879052888a015288519687018952858752860185905296850184905284870184905291840183905290830182905282018590529282015291925090620001039062000182565b5050620006b0565b6040805160c081018252600080825260208201819052918101829052606081018290526080810182905260a0810191909152506040805160c0810182526301312d008152600a6020820152600891810191909152633b9aca006060820152620f424060808201526001600160801b0360a082015290565b600054610100900460ff1615808015620001a35750600054600160ff909116105b80620001d35750620001c0306200058060201b620021e01760201c565b158015620001d3575060005460ff166001145b6200023c5760405162461bcd60e51b815260206004820152602e60248201527f496e697469616c697a61626c653a20636f6e747261637420697320616c72656160448201526d191e481a5b9a5d1a585b1a5e995960921b60648201526084015b60405180910390fd5b6000805460ff19166001179055801562000260576000805461ff0019166101001790555b81518051606580546001600160a01b03199081166001600160a01b03938416179091556020808401516066805484169185169190911790556040938401516067805484169185169190911790558086015180516068805485169186169190911790558082015160698054851691861691909117905580850151606a80548516918616919091179055606080820151606b80548616918716919091179055608080830151606c8054871691881691909117905560a080840151606d8054881691891691909117905560c093840151606e80548816918916919091179055878a01518051606f80548916918a1691909117905580860151607080548916918a1691909117905580890151607180548916918a1691909117905580840151607280548916918a1691909117905580830151607380548916918a1691909117905580820151607480548916918a1691909117905580850151607580548916918a1691909117905560e00151607680548816918916919091179055828a015180516077805490981690891617909655858501516078558588015160795585830151607a5585820151607b8054888401516001600160401b039093166001600160e01b0319909116176801000000000000000092909916919091029790971790965593909101518051607c805494830151978301519383015195830151929096015163ffffffff91821664ffffffffff199095169490941764010000000060ff988916021764ffffffffff60281b191665010000000000979093169690960263ffffffff60301b19169190911766010000000000009386169390930292909217600160501b600160f01b0319166a01000000000000000000009490921693909302600160701b600160f01b03191617600160701b6001600160801b0390931692909202919091179055607f805461010061ff00199091161790556200051e6200058f565b60665462000535906001600160a01b0316620005f7565b80156200057c576000805461ff0019169055604051600181527f7f26b83ff96e1f2b6a682f133852f6798a09c465da95921460cefb38474024989060200160405180910390a15b5050565b6001600160a01b03163b151590565b600054610100900460ff16620005eb5760405162461bcd60e51b815260206004820152602b60248201526000805160206200367083398151915260448201526a6e697469616c697a696e6760a81b606482015260840162000233565b620005f562000649565b565b603380546001600160a01b038381166001600160a01b0319831681179093556040519116919082907f8be0079c531659141344cd1fd0a4f28419497f9722a3daafe3b4186f6b6457e090600090a35050565b600054610100900460ff16620006a55760405162461bcd60e51b815260206004820152602b60248201526000805160206200367083398151915260448201526a6e697469616c697a696e6760a81b606482015260840162000233565b620005f533620005f7565b612fb080620006c06000396000f3fe608060405234801561001057600080fd5b50600436106101985760003560e01c80638f4ed333116100e3578063d7efbb301161008c578063f2fde38b11610066578063f2fde38b146104fd578063fb5d737614610510578063fe6b1ddf1461051857600080fd5b8063d7efbb30146104e0578063df4ec249146104ed578063e7c56229146104f557600080fd5b8063d36ec430116100bd578063d36ec430146104bd578063d40a71fb146104d0578063d4deb3b6146104d857600080fd5b80638f4ed33314610478578063b3f05b9714610480578063cf03c22d1461049457600080fd5b8063715018a6116101455780637e1682071161011f5780637e1682071461041357806389cb7343146104265780638da5cb5b1461043957600080fd5b8063715018a61461022857806379502c55146102305780637d1d95a61461040b57600080fd5b80634fb4bcec116101765780634fb4bcec146101e95780635bc34f71146101f15780635ce6c3271461020357600080fd5b8063204c881c1461019d578063289c6af7146101c55780634bb278f3146101df575b600080fd5b607d54607e546101ab919082565b604080519283526020830191909152015b60405180910390f35b6101cd600381565b60405160ff90911681526020016101bc565b6101e7610520565b005b6101e761078a565b607f546101cd90610100900460ff1681565b607f5461021890640100000000900460ff1681565b60405190151581526020016101bc565b6101e7611142565b604080516060808201835260655473ffffffffffffffffffffffffffffffffffffffff90811683526066548116602080850191909152606754821684860152845160e0808201875260685484168252606954841682840152606a54841682880152606b54841682860152606c548416608080840191909152606d54851660a080850191909152606e54861660c080860191909152895161010081018b52606f54881681526070548816818801526071548816818c01526072548816818a01526073548816818501526074548816818401526075548816818301526076548816818601528a519485018b526077548816855260785485880152607954858c0152607a54858a0152607b5467ffffffffffffffff8116868601526801000000000000000090049097168483015289518082018b52607c5463ffffffff8082168352640100000000820460ff908116998401999099526501000000000082049098169b82019b909b5266010000000000008b048716988101989098526a01000000000000000000008a04909516918701919091526e0100000000000000000000000000009097046fffffffffffffffffffffffffffffffff1696850196909652908501929092526103fb9384565b6040516101bc949392919061242e565b6101cd600481565b6101e7610421366004612a6c565b611156565b607f546102189062010000900460ff1681565b60335473ffffffffffffffffffffffffffffffffffffffff165b60405173ffffffffffffffffffffffffffffffffffffffff90911681526020016101bc565b6101e76116a1565b607f54610218906301000000900460ff1681565b607f546104539065010000000000900473ffffffffffffffffffffffffffffffffffffffff1681565b6101e76104cb366004612b63565b611849565b6101e76118bc565b6101e7611bf9565b607f546102189060ff1681565b6101e7611c21565b6101e7611cc6565b6101e761050b366004612c02565b611cde565b6101e7611d95565b6101e761208d565b6105286121fc565b6065546067546040517ff2fde38b00000000000000000000000000000000000000000000000000000000815273ffffffffffffffffffffffffffffffffffffffff918216600482015291169063f2fde38b90602401600060405180830381600087803b15801561059757600080fd5b505af11580156105ab573d6000803e3d6000fd5b5050607f54600461010090910460ff1611915061075a905057606b546067546040517f13af403500000000000000000000000000000000000000000000000000000000815273ffffffffffffffffffffffffffffffffffffffff91821660048201529116906313af403590602401600060405180830381600087803b15801561063357600080fd5b505af1158015610647573d6000803e3d6000fd5b5050606d546067546040517f8f28397000000000000000000000000000000000000000000000000000000000815273ffffffffffffffffffffffffffffffffffffffff918216600482015291169250638f2839709150602401600060405180830381600087803b1580156106ba57600080fd5b505af11580156106ce573d6000803e3d6000fd5b5050606a546067546040517f8f28397000000000000000000000000000000000000000000000000000000000815273ffffffffffffffffffffffffffffffffffffffff918216600482015291169250638f2839709150602401600060405180830381600087803b15801561074157600080fd5b505af1158015610755573d6000803e3d6000fd5b505050505b607f80547fffffffffffffffffffffffffffffffffffffffffffffffffffffffff00ffffff166301000000179055565b6107926121fc565b607f546005906301000000900460ff1615610834576040517f08c379a000000000000000000000000000000000000000000000000000000000815260206004820152602160248201527f53797374656d4469637461746f723a20616c72656164792066696e616c697a6560448201527f640000000000000000000000000000000000000000000000000000000000000060648201526084015b60405180910390fd5b607f54640100000000900460ff16156108a9576040517f08c379a000000000000000000000000000000000000000000000000000000000815260206004820152601e60248201527f53797374656d4469637461746f723a20616c7265616479206578697465640000604482015260640161082b565b607f5460ff828116610100909204161461091f576040517f08c379a000000000000000000000000000000000000000000000000000000000815260206004820152601e60248201527f53797374656d4469637461746f723a20696e636f727265637420737465700000604482015260640161082b565b607f5462010000900460ff166109b7576040517f08c379a000000000000000000000000000000000000000000000000000000000815260206004820152603c60248201527f53797374656d4469637461746f723a2064796e616d6963206f7261636c65206360448201527f6f6e666967206973206e6f742079657420696e697469616c697a656400000000606482015260840161082b565b606554606854606f54607d54607e546040516024810192909252604482015273ffffffffffffffffffffffffffffffffffffffff93841693639623609d938116921690606401604080517fffffffffffffffffffffffffffffffffffffffffffffffffffffffffffffffe08184030181529181526020820180517bffffffffffffffffffffffffffffffffffffffffffffffffffffffff167fe4a3011600000000000000000000000000000000000000000000000000000000179052517fffffffff0000000000000000000000000000000000000000000000000000000060e086901b168152610aac93929190600401612ca0565b600060405180830381600087803b158015610ac657600080fd5b505af1158015610ada573d6000803e3d6000fd5b5050606554606954607054607f5460405160ff9091161515602482015273ffffffffffffffffffffffffffffffffffffffff9384169550639623609d9450918316921690604401604080517fffffffffffffffffffffffffffffffffffffffffffffffffffffffffffffffe08184030181529181526020820180517bffffffffffffffffffffffffffffffffffffffffffffffffffffffff167fd53a822f00000000000000000000000000000000000000000000000000000000179052517fffffffff0000000000000000000000000000000000000000000000000000000060e086901b168152610bd093929190600401612ca0565b600060405180830381600087803b158015610bea57600080fd5b505af1158015610bfe573d6000803e3d6000fd5b5050606554606a546071546040517f99a88ec400000000000000000000000000000000000000000000000000000000815273ffffffffffffffffffffffffffffffffffffffff92831660048201529082166024820152911692506399a88ec49150604401600060405180830381600087803b158015610c7c57600080fd5b505af1158015610c90573d6000803e3d6000fd5b5050606a54604080517f8129fc1c000000000000000000000000000000000000000000000000000000008152905173ffffffffffffffffffffffffffffffffffffffff9092169350638129fc1c925060048082019260009290919082900301818387803b158015610d0057600080fd5b505af1925050508015610d11575060015b610e6e57610d1d612cd9565b806308c379a003610de45750610d31612cf5565b80610d3c5750610de6565b7f7a2a4e26842155ea933fe6eb6e3137eb5a296dcdf55721c552be7b4c3cc2375981604051602001610d6e9190612d9d565b604051602081830303815290604052805190602001201481604051602001610d969190612db9565b60405160208183030381529060405290610ddd576040517f08c379a000000000000000000000000000000000000000000000000000000000815260040161082b9190612e24565b5050610e6e565b505b6040517f08c379a000000000000000000000000000000000000000000000000000000000815260206004820152603f60248201527f53797374656d4469637461746f723a20756e6578706563746564206572726f7260448201527f20696e697469616c697a696e67204c3158444d20286e6f20726561736f6e2900606482015260840161082b565b606554606b546075546040805160048082526024820183526020820180517bffffffffffffffffffffffffffffffffffffffffffffffffffffffff167fed88c68e0000000000000000000000000000000000000000000000000000000017905291517f9623609d00000000000000000000000000000000000000000000000000000000815273ffffffffffffffffffffffffffffffffffffffff95861695639623609d95610f2495908216949116929101612ca0565b600060405180830381600087803b158015610f3e57600080fd5b505af1158015610f52573d6000803e3d6000fd5b5050606554606b546072546040517f99a88ec400000000000000000000000000000000000000000000000000000000815273ffffffffffffffffffffffffffffffffffffffff92831660048201529082166024820152911692506399a88ec49150604401600060405180830381600087803b158015610fd057600080fd5b505af1158015610fe4573d6000803e3d6000fd5b5050606554606c546073546040517f99a88ec400000000000000000000000000000000000000000000000000000000815273ffffffffffffffffffffffffffffffffffffffff92831660048201529082166024820152911692506399a88ec49150604401600060405180830381600087803b15801561106257600080fd5b505af1158015611076573d6000803e3d6000fd5b5050606554606d546074546040517f99a88ec400000000000000000000000000000000000000000000000000000000815273ffffffffffffffffffffffffffffffffffffffff92831660048201529082166024820152911692506399a88ec491506044015b600060405180830381600087803b1580156110f557600080fd5b505af1158015611109573d6000803e3d6000fd5b5050607f8054610100900460ff1692509050600161112683612e37565b91906101000a81548160ff021916908360ff1602179055505050565b61114a6121fc565b611154600061227d565b565b600054610100900460ff16158080156111765750600054600160ff909116105b806111905750303b158015611190575060005460ff166001145b61121c576040517f08c379a000000000000000000000000000000000000000000000000000000000815260206004820152602e60248201527f496e697469616c697a61626c653a20636f6e747261637420697320616c72656160448201527f647920696e697469616c697a6564000000000000000000000000000000000000606482015260840161082b565b600080547fffffffffffffffffffffffffffffffffffffffffffffffffffffffffffffff00166001179055801561127a57600080547fffffffffffffffffffffffffffffffffffffffffffffffffffffffffffff00ff166101001790555b81518051606580547fffffffffffffffffffffffff000000000000000000000000000000000000000090811673ffffffffffffffffffffffffffffffffffffffff938416179091556020808401516066805484169185169190911790556040938401516067805484169185169190911790558086015180516068805485169186169190911790558082015160698054851691861691909117905580850151606a80548516918616919091179055606080820151606b80548616918716919091179055608080830151606c8054871691881691909117905560a080840151606d8054881691891691909117905560c093840151606e80548816918916919091179055878a01518051606f80548916918a1691909117905580860151607080548916918a1691909117905580890151607180548916918a1691909117905580840151607280548916918a1691909117905580830151607380548916918a1691909117905580820151607480548916918a1691909117905580850151607580548916918a1691909117905560e00151607680548816918916919091179055828a015180516077805490981690891617909655858501516078558588015160795585830151607a5585820151607b80548884015167ffffffffffffffff9093167fffffffff00000000000000000000000000000000000000000000000000000000909116176801000000000000000092909916919091029790971790965593909101518051607c805494830151978301519383015195830151929096015163ffffffff9182167fffffffffffffffffffffffffffffffffffffffffffffffffffffff00000000009095169490941764010000000060ff98891602177fffffffffffffffffffffffffffffffffffffffffffff0000000000ffffffffff166501000000000097909316969096027fffffffffffffffffffffffffffffffffffffffffffff00000000ffffffffffff1691909117660100000000000093861693909302929092177fffff0000000000000000000000000000000000000000ffffffffffffffffffff166a010000000000000000000094909216939093027fffff00000000000000000000000000000000ffffffffffffffffffffffffffff16176e0100000000000000000000000000006fffffffffffffffffffffffffffffffff90931692909202919091179055607f80546101007fffffffffffffffffffffffffffffffffffffffffffffffffffffffffffff00ff9091161790556116186122f4565b60665461163a9073ffffffffffffffffffffffffffffffffffffffff1661227d565b801561169d57600080547fffffffffffffffffffffffffffffffffffffffffffffffffffffffffffff00ff169055604051600181527f7f26b83ff96e1f2b6a682f133852f6798a09c465da95921460cefb38474024989060200160405180910390a15b5050565b6116a96121fc565b607f546002906301000000900460ff1615611746576040517f08c379a000000000000000000000000000000000000000000000000000000000815260206004820152602160248201527f53797374656d4469637461746f723a20616c72656164792066696e616c697a6560448201527f6400000000000000000000000000000000000000000000000000000000000000606482015260840161082b565b607f54640100000000900460ff16156117bb576040517f08c379a000000000000000000000000000000000000000000000000000000000815260206004820152601e60248201527f53797374656d4469637461746f723a20616c7265616479206578697465640000604482015260640161082b565b607f5460ff8281166101009092041614611831576040517f08c379a000000000000000000000000000000000000000000000000000000000815260206004820152601e60248201527f53797374656d4469637461746f723a20696e636f727265637420737465700000604482015260640161082b565b607f8054610100900460ff1690600161112683612e37565b6118516121fc565b8151607d55602090910151607e55607f80547fffffffffffffffffffffffffffffffffffffffffffffffffffffffffff00ffff921515929092167fffffffffffffffffffffffffffffffffffffffffffffffffffffffffff00ff009092169190911762010000179055565b6118c46121fc565b607f546001906301000000900460ff1615611961576040517f08c379a000000000000000000000000000000000000000000000000000000000815260206004820152602160248201527f53797374656d4469637461746f723a20616c72656164792066696e616c697a6560448201527f6400000000000000000000000000000000000000000000000000000000000000606482015260840161082b565b607f54640100000000900460ff16156119d6576040517f08c379a000000000000000000000000000000000000000000000000000000000815260206004820152601e60248201527f53797374656d4469637461746f723a20616c7265616479206578697465640000604482015260640161082b565b607f5460ff8281166101009092041614611a4c576040517f08c379a000000000000000000000000000000000000000000000000000000000815260206004820152601e60248201527f53797374656d4469637461746f723a20696e636f727265637420737465700000604482015260640161082b565b606554606b546040517f8d52d4a000000000000000000000000000000000000000000000000000000000815273ffffffffffffffffffffffffffffffffffffffff92831692638d52d4a092611aa992911690600190600401612e7d565b600060405180830381600087803b158015611ac357600080fd5b505af1158015611ad7573d6000803e3d6000fd5b5050606554606e54607654607754607854607954607a54607b5460405173ffffffffffffffffffffffffffffffffffffffff9889169a50639623609d99509688169795861696611b4a969586169567ffffffffffffffff8316926801000000000000000090041690607c90602401612ede565b604080517fffffffffffffffffffffffffffffffffffffffffffffffffffffffffffffffe08184030181529181526020820180517bffffffffffffffffffffffffffffffffffffffffffffffffffffffff167ff975e92500000000000000000000000000000000000000000000000000000000179052517fffffffff0000000000000000000000000000000000000000000000000000000060e086901b1681526110db93929190600401612ca0565b611c016121fc565b611c09611c21565b611c11611d95565b611c1961078a565b611154610520565b611c296121fc565b607f546003906301000000900460ff1615611746576040517f08c379a000000000000000000000000000000000000000000000000000000000815260206004820152602160248201527f53797374656d4469637461746f723a20616c72656164792066696e616c697a6560448201527f6400000000000000000000000000000000000000000000000000000000000000606482015260840161082b565b611cce6121fc565b611cd66118bc565b6111546116a1565b611ce66121fc565b73ffffffffffffffffffffffffffffffffffffffff8116611d89576040517f08c379a000000000000000000000000000000000000000000000000000000000815260206004820152602660248201527f4f776e61626c653a206e6577206f776e657220697320746865207a65726f206160448201527f6464726573730000000000000000000000000000000000000000000000000000606482015260840161082b565b611d928161227d565b50565b611d9d6121fc565b607f546004906301000000900460ff1615611e3a576040517f08c379a000000000000000000000000000000000000000000000000000000000815260206004820152602160248201527f53797374656d4469637461746f723a20616c72656164792066696e616c697a6560448201527f6400000000000000000000000000000000000000000000000000000000000000606482015260840161082b565b607f54640100000000900460ff1615611eaf576040517f08c379a000000000000000000000000000000000000000000000000000000000815260206004820152601e60248201527f53797374656d4469637461746f723a20616c7265616479206578697465640000604482015260640161082b565b607f5460ff8281166101009092041614611f25576040517f08c379a000000000000000000000000000000000000000000000000000000000815260206004820152601e60248201527f53797374656d4469637461746f723a20696e636f727265637420737465700000604482015260640161082b565b606b546065546040517f13af403500000000000000000000000000000000000000000000000000000000815273ffffffffffffffffffffffffffffffffffffffff91821660048201529116906313af403590602401600060405180830381600087803b158015611f9457600080fd5b505af1158015611fa8573d6000803e3d6000fd5b5050606d546065546040517f8f28397000000000000000000000000000000000000000000000000000000000815273ffffffffffffffffffffffffffffffffffffffff918216600482015291169250638f2839709150602401600060405180830381600087803b15801561201b57600080fd5b505af115801561202f573d6000803e3d6000fd5b5050606a546065546040517f8f28397000000000000000000000000000000000000000000000000000000000815273ffffffffffffffffffffffffffffffffffffffff918216600482015291169250638f28397091506024016110db565b6120956121fc565b607f54610100900460ff1660031461212f576040517f08c379a000000000000000000000000000000000000000000000000000000000815260206004820152603860248201527f53797374656d4469637461746f723a2063616e206f6e6c79206578697431206260448201527f65666f7265207374657020332069732065786563757465640000000000000000606482015260840161082b565b607f80547fffffffffffffffffffffffffffffffffffffffffffffffffffffff00ffffffff16640100000000179055565b6040805160c081018252600080825260208201819052918101829052606081018290526080810182905260a0810191909152506040805160c0810182526301312d008152600a6020820152600891810191909152633b9aca006060820152620f424060808201526fffffffffffffffffffffffffffffffff60a082015290565b73ffffffffffffffffffffffffffffffffffffffff163b151590565b60335473ffffffffffffffffffffffffffffffffffffffff163314611154576040517f08c379a000000000000000000000000000000000000000000000000000000000815260206004820181905260248201527f4f776e61626c653a2063616c6c6572206973206e6f7420746865206f776e6572604482015260640161082b565b6033805473ffffffffffffffffffffffffffffffffffffffff8381167fffffffffffffffffffffffff0000000000000000000000000000000000000000831681179093556040519116919082907f8be0079c531659141344cd1fd0a4f28419497f9722a3daafe3b4186f6b6457e090600090a35050565b600054610100900460ff1661238b576040517f08c379a000000000000000000000000000000000000000000000000000000000815260206004820152602b60248201527f496e697469616c697a61626c653a20636f6e7472616374206973206e6f74206960448201527f6e697469616c697a696e67000000000000000000000000000000000000000000606482015260840161082b565b611154600054610100900460ff16612425576040517f08c379a000000000000000000000000000000000000000000000000000000000815260206004820152602b60248201527f496e697469616c697a61626c653a20636f6e7472616374206973206e6f74206960448201527f6e697469616c697a696e67000000000000000000000000000000000000000000606482015260840161082b565b6111543361227d565b60006103c08201905073ffffffffffffffffffffffffffffffffffffffff8087511683528060208801511660208401528060408801511660408401528086511660608401528060208701511660808401528060408701511660a08401528060608701511660c08401528060808701511660e08401525060a08501516124cc61010084018273ffffffffffffffffffffffffffffffffffffffff169052565b5060c08581015173ffffffffffffffffffffffffffffffffffffffff908116610120850152855181166101408501526020808701518216610160860152604080880151831661018087015260608089015184166101a08801526080808a015185166101c089015260a0808b015186166101e08a01528a87015186166102008a015260e08b015186166102208a0152895186166102408a0152898501516102608a0152898401516102808a0152898301516102a08a01528982015167ffffffffffffffff166102c08a0152898101519095166102e089015294880151805163ffffffff9081166103008a01529381015160ff9081166103208a0152928101519092166103408801528101518216610360870152928301511661038085015201516fffffffffffffffffffffffffffffffff166103a08301525b95945050505050565b60e0810181811067ffffffffffffffff82111715612654577f4e487b7100000000000000000000000000000000000000000000000000000000600052604160045260246000fd5b60405250565b6060810181811067ffffffffffffffff82111715612654577f4e487b7100000000000000000000000000000000000000000000000000000000600052604160045260246000fd5b7fffffffffffffffffffffffffffffffffffffffffffffffffffffffffffffffe0601f830116810181811067ffffffffffffffff8211171561270c577f4e487b7100000000000000000000000000000000000000000000000000000000600052604160045260246000fd5b6040525050565b73ffffffffffffffffffffffffffffffffffffffff81168114611d9257600080fd5b803561274081612713565b919050565b600060e0828403121561275757600080fd5b6040516127638161260d565b809150823561277181612713565b8152602083013561278181612713565b6020820152604083013561279481612713565b604082015260608301356127a781612713565b606082015260808301356127ba81612713565b608082015260a08301356127cd81612713565b60a08201526127de60c08401612735565b60c08201525092915050565b60006101008083850312156127fe57600080fd5b6040519081019067ffffffffffffffff82118183101715612848577f4e487b7100000000000000000000000000000000000000000000000000000000600052604160045260246000fd5b8160405280925061285884612735565b815261286660208501612735565b602082015261287760408501612735565b604082015261288860608501612735565b606082015261289960808501612735565b60808201526128aa60a08501612735565b60a08201526128bb60c08501612735565b60c08201526128cc60e08501612735565b60e0820152505092915050565b803563ffffffff8116811461274057600080fd5b803560ff8116811461274057600080fd5b600060c0828403121561291057600080fd5b60405160c0810181811067ffffffffffffffff8211171561295a577f4e487b7100000000000000000000000000000000000000000000000000000000600052604160045260246000fd5b604052905080612969836128d9565b8152612977602084016128ed565b6020820152612988604084016128ed565b6040820152612999606084016128d9565b60608201526129aa608084016128d9565b608082015260a08301356fffffffffffffffffffffffffffffffff811681146129d257600080fd5b60a0919091015292915050565b600061018082840312156129f257600080fd5b6040516129fe8161260d565b8091508235612a0c81612713565b80825250602083013560208201526040830135604082015260608301356060820152608083013567ffffffffffffffff81168114612a4957600080fd5b6080820152612a5a60a08401612735565b60a08201526127de8460c085016128fe565b60008183036103c0811215612a8057600080fd5b6040516080810181811067ffffffffffffffff82111715612aca577f4e487b7100000000000000000000000000000000000000000000000000000000600052604160045260246000fd5b806040526060831215612adc57600080fd5b612ae58161265a565b84359250612af283612713565b918252602084013591612b0483612713565b8260a083015260408501359250612b1a83612713565b60c082018390528152612b308560608601612745565b6020820152612b438561014086016127ea565b6040820152612b568561024086016129df565b6060820152949350505050565b6000808284036060811215612b7757600080fd5b6040811215612b8557600080fd5b506040516040810181811067ffffffffffffffff82111715612bd0577f4e487b7100000000000000000000000000000000000000000000000000000000600052604160045260246000fd5b604090815284358252602080860135908301529092508301358015158114612bf757600080fd5b809150509250929050565b600060208284031215612c1457600080fd5b8135612c1f81612713565b9392505050565b60005b83811015612c41578181015183820152602001612c29565b83811115612c50576000848401525b50505050565b60008151808452612c6e816020860160208601612c26565b601f017fffffffffffffffffffffffffffffffffffffffffffffffffffffffffffffffe0169290920160200192915050565b600073ffffffffffffffffffffffffffffffffffffffff8086168352808516602084015250606060408301526126046060830184612c56565b600060033d1115612cf25760046000803e5060005160e01c5b90565b600060443d1015612d035790565b6040517ffffffffffffffffffffffffffffffffffffffffffffffffffffffffffffffffc803d016004833e81513d67ffffffffffffffff8160248401118184111715612d5157505050505090565b8285019150815181811115612d695750505050505090565b843d8701016020828501011115612d835750505050505090565b612d92602082860101876126a1565b509095945050505050565b60008251612daf818460208701612c26565b9190910192915050565b7f53797374656d4469637461746f723a20756e6578706563746564206572726f7281527f20696e697469616c697a696e67204c3158444d3a200000000000000000000000602082015260008251612e17816035850160208701612c26565b9190910160350192915050565b602081526000612c1f6020830184612c56565b600060ff821660ff8103612e74577f4e487b7100000000000000000000000000000000000000000000000000000000600052601160045260246000fd5b60010192915050565b73ffffffffffffffffffffffffffffffffffffffff831681526040810160038310612ed1577f4e487b7100000000000000000000000000000000000000000000000000000000600052602160045260246000fd5b8260208301529392505050565b60006101808201905073ffffffffffffffffffffffffffffffffffffffff808a16835288602084015287604084015286606084015267ffffffffffffffff8616608084015280851660a084015250825463ffffffff80821660c085015260ff8260201c1660e085015260ff8260281c16610100850152808260301c16610120850152612f786101408501828460501c1663ffffffff169052565b50607081901c6fffffffffffffffffffffffffffffffff16610160840152509897505050505050505056fea164736f6c634300080f000a496e697469616c697a61626c653a20636f6e7472616374206973206e6f742069",
  "devdoc": {
    "version": 1,
    "kind": "dev",
    "methods": {
      "initialize(((address,address,address),(address,address,address,address,address,address,address),(address,address,address,address,address,address,address,address),(address,uint256,uint256,bytes32,uint64,address,(uint32,uint8,uint8,uint32,uint32,uint128))))": {
        "params": {
          "_config": "System configuration."
        }
      },
      "owner()": {
        "details": "Returns the address of the current owner."
      },
      "renounceOwnership()": {
        "details": "Leaves the contract without owner. It will not be possible to call `onlyOwner` functions anymore. Can only be called by the current owner. NOTE: Renouncing ownership will leave the contract without an owner, thereby removing any functionality that is only available to the owner."
      },
      "transferOwnership(address)": {
        "details": "Transfers ownership of the contract to a new account (`newOwner`). Can only be called by the current owner."
      },
      "updateDynamicConfig((uint256,uint256),bool)": {
        "params": {
          "_l2OutputOracleDynamicConfig": "Dynamic L2OutputOracle config.",
          "_optimismPortalDynamicConfig": "Dynamic OptimismPortal config."
        }
      }
    },
    "title": "SystemDictator"
  },
  "userdoc": {
    "version": 1,
    "kind": "user",
    "methods": {
      "EXIT_1_NO_RETURN_STEP()": {
        "notice": "Step after which exit 1 can no longer be used."
      },
      "PROXY_TRANSFER_STEP()": {
        "notice": "Step where proxy ownership is transferred."
      },
      "config()": {
        "notice": "System configuration."
      },
      "constructor": {
        "notice": "Constructor required to ensure that the implementation of the SystemDictator is         initialized upon deployment."
      },
      "currentStep()": {
        "notice": "Current step;"
      },
      "dynamicConfigSet()": {
        "notice": "Whether or not dynamic config has been set."
      },
      "exit1()": {
        "notice": "First exit point, can only be called before step 3 is executed."
      },
      "exited()": {
        "notice": "Whether or not the deployment has been exited."
      },
      "finalize()": {
        "notice": "Tranfers admin ownership to the final owner."
      },
      "finalized()": {
        "notice": "Whether or not the deployment is finalized."
      },
      "l2OutputOracleDynamicConfig()": {
        "notice": "Dynamic configuration for the L2OutputOracle."
      },
      "oldL1CrossDomainMessenger()": {
        "notice": "Address of the old L1CrossDomainMessenger implementation."
      },
      "optimismPortalDynamicConfig()": {
        "notice": "Dynamic configuration for the OptimismPortal. Determines         if the system should be paused when initialized."
      },
      "phase1()": {
        "notice": "Calls the first 2 steps of the migration process."
      },
      "phase2()": {
        "notice": "Calls the remaining steps of the migration process, and finalizes."
      },
      "step1()": {
        "notice": "Configures the ProxyAdmin contract."
      },
      "step2()": {
        "notice": "Pauses the system by shutting down the L1CrossDomainMessenger and setting the         deposit halt flag to tell the Sequencer's DTL to stop accepting deposits."
      },
      "step3()": {
        "notice": "Removes deprecated addresses from the AddressManager."
      },
      "step4()": {
        "notice": "Transfers system ownership to the ProxyAdmin."
      },
      "step5()": {
        "notice": "Upgrades and initializes proxy contracts."
      },
      "updateDynamicConfig((uint256,uint256),bool)": {
        "notice": "Allows the owner to update dynamic config."
      }
    },
    "notice": "The SystemDictator is responsible for coordinating the deployment of a full Bedrock         system. The SystemDictator is designed to support both fresh network deployments and         upgrades to existing pre-Bedrock systems."
  },
  "storageLayout": {
    "storage": [
      {
        "astId": 42959,
        "contract": "contracts/deployment/SystemDictator.sol:SystemDictator",
        "label": "_initialized",
        "offset": 0,
        "slot": "0",
        "type": "t_uint8"
      },
      {
        "astId": 42962,
        "contract": "contracts/deployment/SystemDictator.sol:SystemDictator",
        "label": "_initializing",
        "offset": 1,
        "slot": "0",
        "type": "t_bool"
      },
      {
        "astId": 43387,
        "contract": "contracts/deployment/SystemDictator.sol:SystemDictator",
        "label": "__gap",
        "offset": 0,
        "slot": "1",
        "type": "t_array(t_uint256)50_storage"
      },
      {
        "astId": 42831,
        "contract": "contracts/deployment/SystemDictator.sol:SystemDictator",
        "label": "_owner",
        "offset": 0,
        "slot": "51",
        "type": "t_address"
      },
      {
        "astId": 42951,
        "contract": "contracts/deployment/SystemDictator.sol:SystemDictator",
        "label": "__gap",
        "offset": 0,
        "slot": "52",
        "type": "t_array(t_uint256)49_storage"
      },
      {
        "astId": 4468,
        "contract": "contracts/deployment/SystemDictator.sol:SystemDictator",
        "label": "config",
        "offset": 0,
        "slot": "101",
        "type": "t_struct(DeployConfig)4456_storage"
      },
      {
        "astId": 4472,
        "contract": "contracts/deployment/SystemDictator.sol:SystemDictator",
        "label": "l2OutputOracleDynamicConfig",
        "offset": 0,
        "slot": "125",
        "type": "t_struct(L2OutputOracleDynamicConfig)4427_storage"
      },
      {
        "astId": 4475,
        "contract": "contracts/deployment/SystemDictator.sol:SystemDictator",
        "label": "optimismPortalDynamicConfig",
        "offset": 0,
        "slot": "127",
        "type": "t_bool"
      },
      {
        "astId": 4478,
        "contract": "contracts/deployment/SystemDictator.sol:SystemDictator",
        "label": "currentStep",
        "offset": 1,
        "slot": "127",
        "type": "t_uint8"
      },
      {
        "astId": 4481,
        "contract": "contracts/deployment/SystemDictator.sol:SystemDictator",
        "label": "dynamicConfigSet",
        "offset": 2,
        "slot": "127",
        "type": "t_bool"
      },
      {
        "astId": 4484,
        "contract": "contracts/deployment/SystemDictator.sol:SystemDictator",
        "label": "finalized",
        "offset": 3,
        "slot": "127",
        "type": "t_bool"
      },
      {
        "astId": 4487,
        "contract": "contracts/deployment/SystemDictator.sol:SystemDictator",
        "label": "exited",
        "offset": 4,
        "slot": "127",
        "type": "t_bool"
      },
      {
        "astId": 4490,
        "contract": "contracts/deployment/SystemDictator.sol:SystemDictator",
        "label": "oldL1CrossDomainMessenger",
        "offset": 5,
        "slot": "127",
        "type": "t_address"
      }
    ],
    "types": {
      "t_address": {
        "encoding": "inplace",
        "label": "address",
        "numberOfBytes": "20"
      },
      "t_array(t_uint256)49_storage": {
        "encoding": "inplace",
        "label": "uint256[49]",
        "numberOfBytes": "1568",
        "base": "t_uint256"
      },
      "t_array(t_uint256)50_storage": {
        "encoding": "inplace",
        "label": "uint256[50]",
        "numberOfBytes": "1600",
        "base": "t_uint256"
      },
      "t_bool": {
        "encoding": "inplace",
        "label": "bool",
        "numberOfBytes": "1"
      },
      "t_bytes32": {
        "encoding": "inplace",
        "label": "bytes32",
        "numberOfBytes": "32"
      },
      "t_contract(L1CrossDomainMessenger)125": {
        "encoding": "inplace",
        "label": "contract L1CrossDomainMessenger",
        "numberOfBytes": "20"
      },
      "t_contract(L1ERC721Bridge)325": {
        "encoding": "inplace",
        "label": "contract L1ERC721Bridge",
        "numberOfBytes": "20"
      },
      "t_contract(L1StandardBridge)869": {
        "encoding": "inplace",
        "label": "contract L1StandardBridge",
        "numberOfBytes": "20"
      },
      "t_contract(L2OutputOracle)1330": {
        "encoding": "inplace",
        "label": "contract L2OutputOracle",
        "numberOfBytes": "20"
      },
      "t_contract(OptimismMintableERC20Factory)40924": {
        "encoding": "inplace",
        "label": "contract OptimismMintableERC20Factory",
        "numberOfBytes": "20"
      },
      "t_contract(OptimismPortal)2009": {
        "encoding": "inplace",
        "label": "contract OptimismPortal",
        "numberOfBytes": "20"
      },
      "t_contract(PortalSender)4341": {
        "encoding": "inplace",
        "label": "contract PortalSender",
        "numberOfBytes": "20"
      },
      "t_contract(ProxyAdmin)41974": {
        "encoding": "inplace",
        "label": "contract ProxyAdmin",
        "numberOfBytes": "20"
      },
      "t_contract(SystemConfig)2769": {
        "encoding": "inplace",
        "label": "contract SystemConfig",
        "numberOfBytes": "20"
      },
      "t_struct(DeployConfig)4456_storage": {
        "encoding": "inplace",
        "label": "struct SystemDictator.DeployConfig",
        "numberOfBytes": "768",
        "members": [
          {
            "astId": 4446,
            "contract": "contracts/deployment/SystemDictator.sol:SystemDictator",
            "label": "globalConfig",
            "offset": 0,
            "slot": "0",
            "type": "t_struct(GlobalConfig)4382_storage"
          },
          {
            "astId": 4449,
            "contract": "contracts/deployment/SystemDictator.sol:SystemDictator",
            "label": "proxyAddressConfig",
            "offset": 0,
            "slot": "3",
            "type": "t_struct(ProxyAddressConfig)4397_storage"
          },
          {
            "astId": 4452,
            "contract": "contracts/deployment/SystemDictator.sol:SystemDictator",
            "label": "implementationAddressConfig",
            "offset": 0,
            "slot": "10",
            "type": "t_struct(ImplementationAddressConfig)4422_storage"
          },
          {
            "astId": 4455,
            "contract": "contracts/deployment/SystemDictator.sol:SystemDictator",
            "label": "systemConfigConfig",
            "offset": 0,
            "slot": "18",
            "type": "t_struct(SystemConfigConfig)4443_storage"
          }
        ]
      },
      "t_struct(GlobalConfig)4382_storage": {
        "encoding": "inplace",
        "label": "struct SystemDictator.GlobalConfig",
        "numberOfBytes": "96",
        "members": [
          {
            "astId": 4377,
            "contract": "contracts/deployment/SystemDictator.sol:SystemDictator",
            "label": "proxyAdmin",
            "offset": 0,
            "slot": "0",
            "type": "t_contract(ProxyAdmin)41974"
          },
          {
            "astId": 4379,
            "contract": "contracts/deployment/SystemDictator.sol:SystemDictator",
            "label": "controller",
            "offset": 0,
            "slot": "1",
            "type": "t_address"
          },
          {
            "astId": 4381,
            "contract": "contracts/deployment/SystemDictator.sol:SystemDictator",
            "label": "finalOwner",
            "offset": 0,
            "slot": "2",
            "type": "t_address"
          }
        ]
      },
      "t_struct(ImplementationAddressConfig)4422_storage": {
        "encoding": "inplace",
        "label": "struct SystemDictator.ImplementationAddressConfig",
        "numberOfBytes": "256",
        "members": [
          {
            "astId": 4400,
            "contract": "contracts/deployment/SystemDictator.sol:SystemDictator",
            "label": "l2OutputOracleImpl",
            "offset": 0,
            "slot": "0",
            "type": "t_contract(L2OutputOracle)1330"
          },
          {
            "astId": 4403,
            "contract": "contracts/deployment/SystemDictator.sol:SystemDictator",
            "label": "optimismPortalImpl",
            "offset": 0,
            "slot": "1",
            "type": "t_contract(OptimismPortal)2009"
          },
          {
            "astId": 4406,
            "contract": "contracts/deployment/SystemDictator.sol:SystemDictator",
            "label": "l1CrossDomainMessengerImpl",
            "offset": 0,
            "slot": "2",
            "type": "t_contract(L1CrossDomainMessenger)125"
          },
          {
            "astId": 4409,
            "contract": "contracts/deployment/SystemDictator.sol:SystemDictator",
            "label": "l1StandardBridgeImpl",
            "offset": 0,
            "slot": "3",
            "type": "t_contract(L1StandardBridge)869"
          },
          {
            "astId": 4412,
            "contract": "contracts/deployment/SystemDictator.sol:SystemDictator",
            "label": "optimismMintableERC20FactoryImpl",
            "offset": 0,
            "slot": "4",
            "type": "t_contract(OptimismMintableERC20Factory)40924"
          },
          {
            "astId": 4415,
            "contract": "contracts/deployment/SystemDictator.sol:SystemDictator",
            "label": "l1ERC721BridgeImpl",
            "offset": 0,
            "slot": "5",
            "type": "t_contract(L1ERC721Bridge)325"
          },
          {
            "astId": 4418,
            "contract": "contracts/deployment/SystemDictator.sol:SystemDictator",
            "label": "portalSenderImpl",
            "offset": 0,
            "slot": "6",
            "type": "t_contract(PortalSender)4341"
          },
          {
            "astId": 4421,
            "contract": "contracts/deployment/SystemDictator.sol:SystemDictator",
            "label": "systemConfigImpl",
            "offset": 0,
            "slot": "7",
            "type": "t_contract(SystemConfig)2769"
          }
        ]
      },
      "t_struct(L2OutputOracleDynamicConfig)4427_storage": {
        "encoding": "inplace",
        "label": "struct SystemDictator.L2OutputOracleDynamicConfig",
        "numberOfBytes": "64",
        "members": [
          {
            "astId": 4424,
            "contract": "contracts/deployment/SystemDictator.sol:SystemDictator",
            "label": "l2OutputOracleStartingBlockNumber",
            "offset": 0,
            "slot": "0",
            "type": "t_uint256"
          },
          {
            "astId": 4426,
            "contract": "contracts/deployment/SystemDictator.sol:SystemDictator",
            "label": "l2OutputOracleStartingTimestamp",
            "offset": 0,
            "slot": "1",
            "type": "t_uint256"
          }
        ]
      },
      "t_struct(ProxyAddressConfig)4397_storage": {
        "encoding": "inplace",
        "label": "struct SystemDictator.ProxyAddressConfig",
        "numberOfBytes": "224",
        "members": [
          {
            "astId": 4384,
            "contract": "contracts/deployment/SystemDictator.sol:SystemDictator",
            "label": "l2OutputOracleProxy",
            "offset": 0,
            "slot": "0",
            "type": "t_address"
          },
          {
            "astId": 4386,
            "contract": "contracts/deployment/SystemDictator.sol:SystemDictator",
            "label": "optimismPortalProxy",
            "offset": 0,
            "slot": "1",
            "type": "t_address"
          },
          {
            "astId": 4388,
            "contract": "contracts/deployment/SystemDictator.sol:SystemDictator",
            "label": "l1CrossDomainMessengerProxy",
            "offset": 0,
            "slot": "2",
            "type": "t_address"
          },
          {
            "astId": 4390,
            "contract": "contracts/deployment/SystemDictator.sol:SystemDictator",
            "label": "l1StandardBridgeProxy",
            "offset": 0,
            "slot": "3",
            "type": "t_address"
          },
          {
            "astId": 4392,
            "contract": "contracts/deployment/SystemDictator.sol:SystemDictator",
            "label": "optimismMintableERC20FactoryProxy",
            "offset": 0,
            "slot": "4",
            "type": "t_address"
          },
          {
            "astId": 4394,
            "contract": "contracts/deployment/SystemDictator.sol:SystemDictator",
            "label": "l1ERC721BridgeProxy",
            "offset": 0,
            "slot": "5",
            "type": "t_address"
          },
          {
            "astId": 4396,
            "contract": "contracts/deployment/SystemDictator.sol:SystemDictator",
            "label": "systemConfigProxy",
            "offset": 0,
            "slot": "6",
            "type": "t_address"
          }
        ]
      },
      "t_struct(ResourceConfig)2042_storage": {
        "encoding": "inplace",
        "label": "struct ResourceMetering.ResourceConfig",
        "numberOfBytes": "32",
        "members": [
          {
            "astId": 2031,
            "contract": "contracts/deployment/SystemDictator.sol:SystemDictator",
            "label": "maxResourceLimit",
            "offset": 0,
            "slot": "0",
            "type": "t_uint32"
          },
          {
            "astId": 2033,
            "contract": "contracts/deployment/SystemDictator.sol:SystemDictator",
            "label": "elasticityMultiplier",
            "offset": 4,
            "slot": "0",
            "type": "t_uint8"
          },
          {
            "astId": 2035,
            "contract": "contracts/deployment/SystemDictator.sol:SystemDictator",
            "label": "baseFeeMaxChangeDenominator",
            "offset": 5,
            "slot": "0",
            "type": "t_uint8"
          },
          {
            "astId": 2037,
            "contract": "contracts/deployment/SystemDictator.sol:SystemDictator",
            "label": "minimumBaseFee",
            "offset": 6,
            "slot": "0",
            "type": "t_uint32"
          },
          {
            "astId": 2039,
            "contract": "contracts/deployment/SystemDictator.sol:SystemDictator",
            "label": "systemTxMaxGas",
            "offset": 10,
            "slot": "0",
            "type": "t_uint32"
          },
          {
            "astId": 2041,
            "contract": "contracts/deployment/SystemDictator.sol:SystemDictator",
            "label": "maximumBaseFee",
            "offset": 14,
            "slot": "0",
            "type": "t_uint128"
          }
        ]
      },
      "t_struct(SystemConfigConfig)4443_storage": {
        "encoding": "inplace",
        "label": "struct SystemDictator.SystemConfigConfig",
        "numberOfBytes": "192",
        "members": [
          {
            "astId": 4429,
            "contract": "contracts/deployment/SystemDictator.sol:SystemDictator",
            "label": "owner",
            "offset": 0,
            "slot": "0",
            "type": "t_address"
          },
          {
            "astId": 4431,
            "contract": "contracts/deployment/SystemDictator.sol:SystemDictator",
            "label": "overhead",
            "offset": 0,
            "slot": "1",
            "type": "t_uint256"
          },
          {
            "astId": 4433,
            "contract": "contracts/deployment/SystemDictator.sol:SystemDictator",
            "label": "scalar",
            "offset": 0,
            "slot": "2",
            "type": "t_uint256"
          },
          {
            "astId": 4435,
            "contract": "contracts/deployment/SystemDictator.sol:SystemDictator",
            "label": "batcherHash",
            "offset": 0,
            "slot": "3",
            "type": "t_bytes32"
          },
          {
            "astId": 4437,
            "contract": "contracts/deployment/SystemDictator.sol:SystemDictator",
            "label": "gasLimit",
            "offset": 0,
            "slot": "4",
            "type": "t_uint64"
          },
          {
            "astId": 4439,
            "contract": "contracts/deployment/SystemDictator.sol:SystemDictator",
            "label": "unsafeBlockSigner",
            "offset": 8,
            "slot": "4",
            "type": "t_address"
          },
          {
            "astId": 4442,
            "contract": "contracts/deployment/SystemDictator.sol:SystemDictator",
            "label": "resourceConfig",
            "offset": 0,
            "slot": "5",
            "type": "t_struct(ResourceConfig)2042_storage"
          }
        ]
      },
      "t_uint128": {
        "encoding": "inplace",
        "label": "uint128",
        "numberOfBytes": "16"
      },
      "t_uint256": {
        "encoding": "inplace",
        "label": "uint256",
        "numberOfBytes": "32"
      },
      "t_uint32": {
        "encoding": "inplace",
        "label": "uint32",
        "numberOfBytes": "4"
      },
      "t_uint64": {
        "encoding": "inplace",
        "label": "uint64",
        "numberOfBytes": "8"
      },
      "t_uint8": {
        "encoding": "inplace",
        "label": "uint8",
        "numberOfBytes": "1"
      }
    }
  }
}