{
  "address": "0x2B98875065AD58cf12b9645A45658308412F85A7",
  "abi": [
    {
      "anonymous": false,
      "inputs": [
        {
          "indexed": false,
          "internalType": "uint8",
          "name": "version",
          "type": "uint8"
        }
      ],
      "name": "Initialized",
      "type": "event"
    },
    {
      "anonymous": false,
      "inputs": [
        {
          "indexed": true,
          "internalType": "address",
          "name": "previousOwner",
          "type": "address"
        },
        {
          "indexed": true,
          "internalType": "address",
          "name": "newOwner",
          "type": "address"
        }
      ],
      "name": "OwnershipTransferred",
      "type": "event"
    },
    {
      "inputs": [],
      "name": "EXIT_1_NO_RETURN_STEP",
      "outputs": [
        {
          "internalType": "uint8",
          "name": "",
          "type": "uint8"
        }
      ],
      "stateMutability": "view",
      "type": "function"
    },
    {
      "inputs": [],
      "name": "PROXY_TRANSFER_STEP",
      "outputs": [
        {
          "internalType": "uint8",
          "name": "",
          "type": "uint8"
        }
      ],
      "stateMutability": "view",
      "type": "function"
    },
    {
      "inputs": [],
      "name": "config",
      "outputs": [
        {
          "components": [
            {
              "internalType": "contract AddressManager",
              "name": "addressManager",
              "type": "address"
            },
            {
              "internalType": "contract ProxyAdmin",
              "name": "proxyAdmin",
              "type": "address"
            },
            {
              "internalType": "address",
              "name": "controller",
              "type": "address"
            },
            {
              "internalType": "address",
              "name": "finalOwner",
              "type": "address"
            }
          ],
          "internalType": "struct SystemDictator.GlobalConfig",
          "name": "globalConfig",
          "type": "tuple"
        },
        {
          "components": [
            {
              "internalType": "address",
              "name": "l2OutputOracleProxy",
              "type": "address"
            },
            {
              "internalType": "address",
              "name": "optimismPortalProxy",
              "type": "address"
            },
            {
              "internalType": "address",
              "name": "l1CrossDomainMessengerProxy",
              "type": "address"
            },
            {
              "internalType": "address",
              "name": "l1StandardBridgeProxy",
              "type": "address"
            },
            {
              "internalType": "address",
              "name": "optimismMintableERC20FactoryProxy",
              "type": "address"
            },
            {
              "internalType": "address",
              "name": "l1ERC721BridgeProxy",
              "type": "address"
            },
            {
              "internalType": "address",
              "name": "systemConfigProxy",
              "type": "address"
            },
            {
              "internalType": "address",
              "name": "batchInboxProxy",
              "type": "address"
            }
          ],
          "internalType": "struct SystemDictator.ProxyAddressConfig",
          "name": "proxyAddressConfig",
          "type": "tuple"
        },
        {
          "components": [
            {
              "internalType": "contract L2OutputOracle",
              "name": "l2OutputOracleImpl",
              "type": "address"
            },
            {
              "internalType": "contract OptimismPortal",
              "name": "optimismPortalImpl",
              "type": "address"
            },
            {
              "internalType": "contract L1CrossDomainMessenger",
              "name": "l1CrossDomainMessengerImpl",
              "type": "address"
            },
            {
              "internalType": "contract L1StandardBridge",
              "name": "l1StandardBridgeImpl",
              "type": "address"
            },
            {
              "internalType": "contract OptimismMintableERC20Factory",
              "name": "optimismMintableERC20FactoryImpl",
              "type": "address"
            },
            {
              "internalType": "contract L1ERC721Bridge",
              "name": "l1ERC721BridgeImpl",
              "type": "address"
            },
            {
              "internalType": "contract PortalSender",
              "name": "portalSenderImpl",
              "type": "address"
            },
            {
              "internalType": "contract SystemConfig",
              "name": "systemConfigImpl",
              "type": "address"
            },
            {
              "internalType": "contract BatchInbox",
              "name": "batchInboxImpl",
              "type": "address"
            }
          ],
          "internalType": "struct SystemDictator.ImplementationAddressConfig",
          "name": "implementationAddressConfig",
          "type": "tuple"
        },
        {
          "components": [
            {
              "internalType": "address",
              "name": "owner",
              "type": "address"
            },
            {
              "internalType": "uint256",
              "name": "overhead",
              "type": "uint256"
            },
            {
              "internalType": "uint256",
              "name": "scalar",
              "type": "uint256"
            },
            {
              "internalType": "bytes32",
              "name": "batcherHash",
              "type": "bytes32"
            },
            {
              "internalType": "uint64",
              "name": "gasLimit",
              "type": "uint64"
            },
            {
              "internalType": "address",
              "name": "unsafeBlockSigner",
              "type": "address"
            }
          ],
          "internalType": "struct SystemDictator.SystemConfigConfig",
          "name": "systemConfigConfig",
          "type": "tuple"
        },
        {
          "components": [
            {
              "internalType": "address",
              "name": "batchInboxOwner",
              "type": "address"
            }
          ],
          "internalType": "struct SystemDictator.BatchInboxConfig",
          "name": "batchInboxConfig",
          "type": "tuple"
        }
      ],
      "stateMutability": "view",
      "type": "function"
    },
    {
      "inputs": [],
      "name": "currentStep",
      "outputs": [
        {
          "internalType": "uint8",
          "name": "",
          "type": "uint8"
        }
      ],
      "stateMutability": "view",
      "type": "function"
    },
    {
      "inputs": [],
      "name": "dynamicConfigSet",
      "outputs": [
        {
          "internalType": "bool",
          "name": "",
          "type": "bool"
        }
      ],
      "stateMutability": "view",
      "type": "function"
    },
    {
      "inputs": [],
      "name": "exit1",
      "outputs": [],
      "stateMutability": "nonpayable",
      "type": "function"
    },
    {
      "inputs": [],
      "name": "exited",
      "outputs": [
        {
          "internalType": "bool",
          "name": "",
          "type": "bool"
        }
      ],
      "stateMutability": "view",
      "type": "function"
    },
    {
      "inputs": [],
      "name": "finalize",
      "outputs": [],
      "stateMutability": "nonpayable",
      "type": "function"
    },
    {
      "inputs": [],
      "name": "finalized",
      "outputs": [
        {
          "internalType": "bool",
          "name": "",
          "type": "bool"
        }
      ],
      "stateMutability": "view",
      "type": "function"
    },
    {
      "inputs": [
        {
          "components": [
            {
              "components": [
                {
                  "internalType": "contract AddressManager",
                  "name": "addressManager",
                  "type": "address"
                },
                {
                  "internalType": "contract ProxyAdmin",
                  "name": "proxyAdmin",
                  "type": "address"
                },
                {
                  "internalType": "address",
                  "name": "controller",
                  "type": "address"
                },
                {
                  "internalType": "address",
                  "name": "finalOwner",
                  "type": "address"
                }
              ],
              "internalType": "struct SystemDictator.GlobalConfig",
              "name": "globalConfig",
              "type": "tuple"
            },
            {
              "components": [
                {
                  "internalType": "address",
                  "name": "l2OutputOracleProxy",
                  "type": "address"
                },
                {
                  "internalType": "address",
                  "name": "optimismPortalProxy",
                  "type": "address"
                },
                {
                  "internalType": "address",
                  "name": "l1CrossDomainMessengerProxy",
                  "type": "address"
                },
                {
                  "internalType": "address",
                  "name": "l1StandardBridgeProxy",
                  "type": "address"
                },
                {
                  "internalType": "address",
                  "name": "optimismMintableERC20FactoryProxy",
                  "type": "address"
                },
                {
                  "internalType": "address",
                  "name": "l1ERC721BridgeProxy",
                  "type": "address"
                },
                {
                  "internalType": "address",
                  "name": "systemConfigProxy",
                  "type": "address"
                },
                {
                  "internalType": "address",
                  "name": "batchInboxProxy",
                  "type": "address"
                }
              ],
              "internalType": "struct SystemDictator.ProxyAddressConfig",
              "name": "proxyAddressConfig",
              "type": "tuple"
            },
            {
              "components": [
                {
                  "internalType": "contract L2OutputOracle",
                  "name": "l2OutputOracleImpl",
                  "type": "address"
                },
                {
                  "internalType": "contract OptimismPortal",
                  "name": "optimismPortalImpl",
                  "type": "address"
                },
                {
                  "internalType": "contract L1CrossDomainMessenger",
                  "name": "l1CrossDomainMessengerImpl",
                  "type": "address"
                },
                {
                  "internalType": "contract L1StandardBridge",
                  "name": "l1StandardBridgeImpl",
                  "type": "address"
                },
                {
                  "internalType": "contract OptimismMintableERC20Factory",
                  "name": "optimismMintableERC20FactoryImpl",
                  "type": "address"
                },
                {
                  "internalType": "contract L1ERC721Bridge",
                  "name": "l1ERC721BridgeImpl",
                  "type": "address"
                },
                {
                  "internalType": "contract PortalSender",
                  "name": "portalSenderImpl",
                  "type": "address"
                },
                {
                  "internalType": "contract SystemConfig",
                  "name": "systemConfigImpl",
                  "type": "address"
                },
                {
                  "internalType": "contract BatchInbox",
                  "name": "batchInboxImpl",
                  "type": "address"
                }
              ],
              "internalType": "struct SystemDictator.ImplementationAddressConfig",
              "name": "implementationAddressConfig",
              "type": "tuple"
            },
            {
              "components": [
                {
                  "internalType": "address",
                  "name": "owner",
                  "type": "address"
                },
                {
                  "internalType": "uint256",
                  "name": "overhead",
                  "type": "uint256"
                },
                {
                  "internalType": "uint256",
                  "name": "scalar",
                  "type": "uint256"
                },
                {
                  "internalType": "bytes32",
                  "name": "batcherHash",
                  "type": "bytes32"
                },
                {
                  "internalType": "uint64",
                  "name": "gasLimit",
                  "type": "uint64"
                },
                {
                  "internalType": "address",
                  "name": "unsafeBlockSigner",
                  "type": "address"
                }
              ],
              "internalType": "struct SystemDictator.SystemConfigConfig",
              "name": "systemConfigConfig",
              "type": "tuple"
            },
            {
              "components": [
                {
                  "internalType": "address",
                  "name": "batchInboxOwner",
                  "type": "address"
                }
              ],
              "internalType": "struct SystemDictator.BatchInboxConfig",
              "name": "batchInboxConfig",
              "type": "tuple"
            }
          ],
          "internalType": "struct SystemDictator.DeployConfig",
          "name": "_config",
          "type": "tuple"
        }
      ],
      "name": "initialize",
      "outputs": [],
      "stateMutability": "nonpayable",
      "type": "function"
    },
    {
      "inputs": [],
      "name": "l2OutputOracleDynamicConfig",
      "outputs": [
        {
          "internalType": "uint256",
          "name": "l2OutputOracleStartingBlockNumber",
          "type": "uint256"
        },
        {
          "internalType": "uint256",
          "name": "l2OutputOracleStartingTimestamp",
          "type": "uint256"
        }
      ],
      "stateMutability": "view",
      "type": "function"
    },
    {
      "inputs": [],
      "name": "oldL1CrossDomainMessenger",
      "outputs": [
        {
          "internalType": "address",
          "name": "",
          "type": "address"
        }
      ],
      "stateMutability": "view",
      "type": "function"
    },
    {
      "inputs": [],
      "name": "optimismPortalDynamicConfig",
      "outputs": [
        {
          "internalType": "bool",
          "name": "",
          "type": "bool"
        }
      ],
      "stateMutability": "view",
      "type": "function"
    },
    {
      "inputs": [],
      "name": "owner",
      "outputs": [
        {
          "internalType": "address",
          "name": "",
          "type": "address"
        }
      ],
      "stateMutability": "view",
      "type": "function"
    },
    {
      "inputs": [],
      "name": "renounceOwnership",
      "outputs": [],
      "stateMutability": "nonpayable",
      "type": "function"
    },
    {
      "inputs": [],
      "name": "step1",
      "outputs": [],
      "stateMutability": "nonpayable",
      "type": "function"
    },
    {
      "inputs": [],
      "name": "step2",
      "outputs": [],
      "stateMutability": "nonpayable",
      "type": "function"
    },
    {
      "inputs": [],
      "name": "step3",
      "outputs": [],
      "stateMutability": "nonpayable",
      "type": "function"
    },
    {
      "inputs": [],
      "name": "step4",
      "outputs": [],
      "stateMutability": "nonpayable",
      "type": "function"
    },
    {
      "inputs": [],
      "name": "step5",
      "outputs": [],
      "stateMutability": "nonpayable",
      "type": "function"
    },
    {
      "inputs": [
        {
          "internalType": "address",
          "name": "newOwner",
          "type": "address"
        }
      ],
      "name": "transferOwnership",
      "outputs": [],
      "stateMutability": "nonpayable",
      "type": "function"
    },
    {
      "inputs": [
        {
          "components": [
            {
              "internalType": "uint256",
              "name": "l2OutputOracleStartingBlockNumber",
              "type": "uint256"
            },
            {
              "internalType": "uint256",
              "name": "l2OutputOracleStartingTimestamp",
              "type": "uint256"
            }
          ],
          "internalType": "struct SystemDictator.L2OutputOracleDynamicConfig",
          "name": "_l2OutputOracleDynamicConfig",
          "type": "tuple"
        },
        {
          "internalType": "bool",
          "name": "_optimismPortalDynamicConfig",
          "type": "bool"
        }
      ],
      "name": "updateDynamicConfig",
      "outputs": [],
      "stateMutability": "nonpayable",
      "type": "function"
    }
  ],
  "transactionHash": "0x2db9a666a04257fb1d2dca03e97a8c64d8ac0c982cda30954dfd9f8258fb760c",
  "args": [],
  "numDeployments": 1,
  "solcInputHash": "d0b32fc75e035105eaa3d8727fec6394",
  "bytecode": "0x608060405234801561001057600080fd5b50613aa4806100206000396000f3fe608060405234801561001057600080fd5b50600436106101825760003560e01c80638da5cb5b116100d8578063d40a71fb1161008c578063f2fde38b11610066578063f2fde38b14610482578063fb5d737614610495578063fe6b1ddf1461049d57600080fd5b8063d40a71fb14610465578063d7efbb301461046d578063df4ec2491461047a57600080fd5b8063b3f05b97116100bd578063b3f05b9714610415578063cf03c22d14610429578063d36ec4301461045257600080fd5b80638da5cb5b146103ce5780638f4ed3331461040d57600080fd5b80635bc34f711161013a57806379502c551161011457806379502c551461022d5780637d1d95a6146103b357806389cb7343146103bb57600080fd5b80635bc34f71146101ee5780635ce6c32714610200578063715018a61461022557600080fd5b8063289c6af71161016b578063289c6af7146101c45780634bb278f3146101de5780634fb4bcec146101e657600080fd5b806301510d7314610187578063204c881c1461019c575b600080fd5b61019a61019536600461315b565b6104a5565b005b6080546081546101aa919082565b604080519283526020830191909152015b60405180910390f35b6101cc600381565b60405160ff90911681526020016101bb565b61019a6108f9565b61019a610b63565b6082546101cc90610100900460ff1681565b60825461021590640100000000900460ff1681565b60405190151581526020016101bb565b61019a611637565b604080516080808201835260655473ffffffffffffffffffffffffffffffffffffffff9081168352606654811660208085019190915260675482168486015260685482166060808601919091528551610100818101885260695485168252606a54851682850152606b54851682890152606c54851682840152606d54851682870152606e54851660a080840191909152606f54861660c080850191909152607054871660e0808601919091528a5161012081018c52607154891681526072548916818901526073548916818d01526074548916818801526075548916818b015260765489168185015260775489168184015260785489169181019190915260795488169381019390935289519081018a52607a5487168152607b5481870152607c54818b0152607d5494810194909452607e5467ffffffffffffffff811697850197909752680100000000000000009096048516958301959095528651928301909652607f5490921681526103a29492919085565b6040516101bb959493929190613358565b6101cc600481565b6082546102159062010000900460ff1681565b60335473ffffffffffffffffffffffffffffffffffffffff165b60405173ffffffffffffffffffffffffffffffffffffffff90911681526020016101bb565b61019a61164b565b608254610215906301000000900460ff1681565b6082546103e89065010000000000900473ffffffffffffffffffffffffffffffffffffffff1681565b61019a6104603660046134ec565b6119ba565b61019a611a2d565b6082546102159060ff1681565b61019a611f24565b61019a61049036600461358b565b6124e8565b61019a61259f565b61019a612897565b600054610100900460ff16158080156104c55750600054600160ff909116105b806104df5750303b1580156104df575060005460ff166001145b610570576040517f08c379a000000000000000000000000000000000000000000000000000000000815260206004820152602e60248201527f496e697469616c697a61626c653a20636f6e747261637420697320616c72656160448201527f647920696e697469616c697a656400000000000000000000000000000000000060648201526084015b60405180910390fd5b600080547fffffffffffffffffffffffffffffffffffffffffffffffffffffffffffffff0016600117905580156105ce57600080547fffffffffffffffffffffffffffffffffffffffffffffffffffffffffffff00ff166101001790555b81518051606580547fffffffffffffffffffffffff000000000000000000000000000000000000000090811673ffffffffffffffffffffffffffffffffffffffff9384161790915560208084015160668054841691851691909117905560408085015160678054851691861691909117905560609485015160688054851691861691909117905581870151805160698054861691871691909117905580830151606a8054861691871691909117905580820151606b8054861691871691909117905580860151606c80548616918716919091179055608080820151606d8054871691881691909117905560a080830151606e8054881691891691909117905560c080840151606f80548916918a1691909117905560e093840151607080548916918a16919091179055848b01518051607180548a16918b1691909117905580870151607280548a16918b1691909117905580860151607380548a16918b16919091179055808a0151607480548a16918b1691909117905580840151607580548a16918b1691909117905580830151607680548a16918b1691909117905590810151607780548916918a169190911790559283015160788054881691891691909117905561010092830151607980548816918916919091179055878a01518051607a80548916918a1691909117905594850151607b5592840151607c5595830151607d5582860151607e8054949093015167ffffffffffffffff9091167fffffffff000000000000000000000000000000000000000000000000000000009094169390931768010000000000000000938616939093029290921790559285015151607f80549092169216919091179055608280547fffffffffffffffffffffffffffffffffffffffffffffffffffffffffffff00ff169091179055610870612abb565b6067546108929073ffffffffffffffffffffffffffffffffffffffff16612b5a565b80156108f557600080547fffffffffffffffffffffffffffffffffffffffffffffffffffffffffffff00ff169055604051600181527f7f26b83ff96e1f2b6a682f133852f6798a09c465da95921460cefb38474024989060200160405180910390a15b5050565b610901612bd1565b6066546068546040517ff2fde38b00000000000000000000000000000000000000000000000000000000815273ffffffffffffffffffffffffffffffffffffffff918216600482015291169063f2fde38b90602401600060405180830381600087803b15801561097057600080fd5b505af1158015610984573d6000803e3d6000fd5b5050608254600461010090910460ff16119150610b339050576065546068546040517ff2fde38b00000000000000000000000000000000000000000000000000000000815273ffffffffffffffffffffffffffffffffffffffff918216600482015291169063f2fde38b90602401600060405180830381600087803b158015610a0c57600080fd5b505af1158015610a20573d6000803e3d6000fd5b5050606c546068546040517f13af403500000000000000000000000000000000000000000000000000000000815273ffffffffffffffffffffffffffffffffffffffff9182166004820152911692506313af40359150602401600060405180830381600087803b158015610a9357600080fd5b505af1158015610aa7573d6000803e3d6000fd5b5050606e546068546040517f8f28397000000000000000000000000000000000000000000000000000000000815273ffffffffffffffffffffffffffffffffffffffff918216600482015291169250638f2839709150602401600060405180830381600087803b158015610b1a57600080fd5b505af1158015610b2e573d6000803e3d6000fd5b505050505b608280547fffffffffffffffffffffffffffffffffffffffffffffffffffffffff00ffffff166301000000179055565b610b6b612bd1565b6082546005906301000000900460ff1615610c08576040517f08c379a000000000000000000000000000000000000000000000000000000000815260206004820152602160248201527f53797374656d4469637461746f723a20616c72656164792066696e616c697a6560448201527f64000000000000000000000000000000000000000000000000000000000000006064820152608401610567565b608254640100000000900460ff1615610c7d576040517f08c379a000000000000000000000000000000000000000000000000000000000815260206004820152601e60248201527f53797374656d4469637461746f723a20616c72656164792065786974656400006044820152606401610567565b60825460ff8281166101009092041614610cf3576040517f08c379a000000000000000000000000000000000000000000000000000000000815260206004820152601e60248201527f53797374656d4469637461746f723a20696e636f7272656374207374657000006044820152606401610567565b60825462010000900460ff16610d8b576040517f08c379a000000000000000000000000000000000000000000000000000000000815260206004820152603c60248201527f53797374656d4469637461746f723a2064796e616d6963206f7261636c65206360448201527f6f6e666967206973206e6f742079657420696e697469616c697a6564000000006064820152608401610567565b6066546069546071546080546081546040516024810192909252604482015273ffffffffffffffffffffffffffffffffffffffff93841693639623609d938116921690606401604080517fffffffffffffffffffffffffffffffffffffffffffffffffffffffffffffffe08184030181529181526020820180517bffffffffffffffffffffffffffffffffffffffffffffffffffffffff167fe4a3011600000000000000000000000000000000000000000000000000000000179052517fffffffff0000000000000000000000000000000000000000000000000000000060e086901b168152610e8093929190600401613625565b600060405180830381600087803b158015610e9a57600080fd5b505af1158015610eae573d6000803e3d6000fd5b5050606654607054607954607f5460405173ffffffffffffffffffffffffffffffffffffffff91821660248201529381169550639623609d945091821692911690604401604080517fffffffffffffffffffffffffffffffffffffffffffffffffffffffffffffffe08184030181529181526020820180517bffffffffffffffffffffffffffffffffffffffffffffffffffffffff167fc4d66de800000000000000000000000000000000000000000000000000000000179052517fffffffff0000000000000000000000000000000000000000000000000000000060e086901b168152610fa193929190600401613625565b600060405180830381600087803b158015610fbb57600080fd5b505af1158015610fcf573d6000803e3d6000fd5b5050606654606a5460725460825460405160ff9091161515602482015273ffffffffffffffffffffffffffffffffffffffff9384169550639623609d9450918316921690604401604080517fffffffffffffffffffffffffffffffffffffffffffffffffffffffffffffffe08184030181529181526020820180517bffffffffffffffffffffffffffffffffffffffffffffffffffffffff167fd53a822f00000000000000000000000000000000000000000000000000000000179052517fffffffff0000000000000000000000000000000000000000000000000000000060e086901b1681526110c593929190600401613625565b600060405180830381600087803b1580156110df57600080fd5b505af11580156110f3573d6000803e3d6000fd5b5050606654606b546073546040517f99a88ec400000000000000000000000000000000000000000000000000000000815273ffffffffffffffffffffffffffffffffffffffff92831660048201529082166024820152911692506399a88ec49150604401600060405180830381600087803b15801561117157600080fd5b505af1158015611185573d6000803e3d6000fd5b5050606b54604080517f8129fc1c000000000000000000000000000000000000000000000000000000008152905173ffffffffffffffffffffffffffffffffffffffff9092169350638129fc1c925060048181019260009290919082900301818387803b1580156111f557600080fd5b505af1925050508015611206575060015b61136357611212613667565b806308c379a0036112d95750611226613683565b8061123157506112db565b7f7a2a4e26842155ea933fe6eb6e3137eb5a296dcdf55721c552be7b4c3cc2375981604051602001611263919061372b565b60405160208183030381529060405280519060200120148160405160200161128b9190613747565b604051602081830303815290604052906112d2576040517f08c379a000000000000000000000000000000000000000000000000000000000815260040161056791906137b2565b5050611363565b505b6040517f08c379a000000000000000000000000000000000000000000000000000000000815260206004820152603f60248201527f53797374656d4469637461746f723a20756e6578706563746564206572726f7260448201527f20696e697469616c697a696e67204c3158444d20286e6f20726561736f6e29006064820152608401610567565b606654606c546077546040805160048082526024820183526020820180517bffffffffffffffffffffffffffffffffffffffffffffffffffffffff167fed88c68e0000000000000000000000000000000000000000000000000000000017905291517f9623609d00000000000000000000000000000000000000000000000000000000815273ffffffffffffffffffffffffffffffffffffffff95861695639623609d9561141995908216949116929101613625565b600060405180830381600087803b15801561143357600080fd5b505af1158015611447573d6000803e3d6000fd5b5050606654606c546074546040517f99a88ec400000000000000000000000000000000000000000000000000000000815273ffffffffffffffffffffffffffffffffffffffff92831660048201529082166024820152911692506399a88ec49150604401600060405180830381600087803b1580156114c557600080fd5b505af11580156114d9573d6000803e3d6000fd5b5050606654606d546075546040517f99a88ec400000000000000000000000000000000000000000000000000000000815273ffffffffffffffffffffffffffffffffffffffff92831660048201529082166024820152911692506399a88ec49150604401600060405180830381600087803b15801561155757600080fd5b505af115801561156b573d6000803e3d6000fd5b5050606654606e546076546040517f99a88ec400000000000000000000000000000000000000000000000000000000815273ffffffffffffffffffffffffffffffffffffffff92831660048201529082166024820152911692506399a88ec491506044015b600060405180830381600087803b1580156115ea57600080fd5b505af11580156115fe573d6000803e3d6000fd5b505060828054610100900460ff1692509050600161161b836137f4565b91906101000a81548160ff021916908360ff1602179055505050565b61163f612bd1565b6116496000612b5a565b565b611653612bd1565b6082546002906301000000900460ff16156116f0576040517f08c379a000000000000000000000000000000000000000000000000000000000815260206004820152602160248201527f53797374656d4469637461746f723a20616c72656164792066696e616c697a6560448201527f64000000000000000000000000000000000000000000000000000000000000006064820152608401610567565b608254640100000000900460ff1615611765576040517f08c379a000000000000000000000000000000000000000000000000000000000815260206004820152601e60248201527f53797374656d4469637461746f723a20616c72656164792065786974656400006044820152606401610567565b60825460ff82811661010090920416146117db576040517f08c379a000000000000000000000000000000000000000000000000000000000815260206004820152601e60248201527f53797374656d4469637461746f723a20696e636f7272656374207374657000006044820152606401610567565b6065546040517fbf40fac100000000000000000000000000000000000000000000000000000000815273ffffffffffffffffffffffffffffffffffffffff9091169063bf40fac19061182f90600401613813565b602060405180830381865afa15801561184c573d6000803e3d6000fd5b505050506040513d601f19601f820116820180604052508101906118709190613856565b608280547fffffffffffffff0000000000000000000000000000000000000000ffffffffff166501000000000073ffffffffffffffffffffffffffffffffffffffff938416021790556065546040517f9b2ea4bd000000000000000000000000000000000000000000000000000000008152911690639b2ea4bd906118fa90600090600401613873565b600060405180830381600087803b15801561191457600080fd5b505af1158015611928573d6000803e3d6000fd5b5050606554604080517f9b2ea4bd0000000000000000000000000000000000000000000000000000000081526004810191909152601160448201527f44544c5f534855544f46465f424c4f434b000000000000000000000000000000606482015273ffffffffffffffffffffffffffffffffffffffff43811660248301529091169250639b2ea4bd91506084016115d0565b6119c2612bd1565b8151608055602090910151608155608280547fffffffffffffffffffffffffffffffffffffffffffffffffffffffffff00ffff921515929092167fffffffffffffffffffffffffffffffffffffffffffffffffffffffffff00ff009092169190911762010000179055565b611a35612bd1565b6082546001906301000000900460ff1615611ad2576040517f08c379a000000000000000000000000000000000000000000000000000000000815260206004820152602160248201527f53797374656d4469637461746f723a20616c72656164792066696e616c697a6560448201527f64000000000000000000000000000000000000000000000000000000000000006064820152608401610567565b608254640100000000900460ff1615611b47576040517f08c379a000000000000000000000000000000000000000000000000000000000815260206004820152601e60248201527f53797374656d4469637461746f723a20616c72656164792065786974656400006044820152606401610567565b60825460ff8281166101009092041614611bbd576040517f08c379a000000000000000000000000000000000000000000000000000000000815260206004820152601e60248201527f53797374656d4469637461746f723a20696e636f7272656374207374657000006044820152606401610567565b6066546065546040517f0652b57a00000000000000000000000000000000000000000000000000000000815273ffffffffffffffffffffffffffffffffffffffff9182166004820152911690630652b57a90602401600060405180830381600087803b158015611c2c57600080fd5b505af1158015611c40573d6000803e3d6000fd5b5050606654606b546040517f8d52d4a000000000000000000000000000000000000000000000000000000000815273ffffffffffffffffffffffffffffffffffffffff9283169450638d52d4a09350611ca292909116906002906004016138d4565b600060405180830381600087803b158015611cbc57600080fd5b505af1158015611cd0573d6000803e3d6000fd5b5050606654606b546040517f860f7cda00000000000000000000000000000000000000000000000000000000815273ffffffffffffffffffffffffffffffffffffffff928316945063860f7cda9350611d2f9290911690600401613935565b600060405180830381600087803b158015611d4957600080fd5b505af1158015611d5d573d6000803e3d6000fd5b5050606654606c546040517f8d52d4a000000000000000000000000000000000000000000000000000000000815273ffffffffffffffffffffffffffffffffffffffff9283169450638d52d4a09350611dbf92909116906001906004016138d4565b600060405180830381600087803b158015611dd957600080fd5b505af1158015611ded573d6000803e3d6000fd5b5050606654606f54607854607a54607b54607c54607d54607e5460405173ffffffffffffffffffffffffffffffffffffffff958616602482015260448101949094526064840192909252608483015267ffffffffffffffff811660a4830152680100000000000000009004821660c48201529381169550639623609d94509182169291169060e401604080517fffffffffffffffffffffffffffffffffffffffffffffffffffffffffffffffe08184030181529181526020820180517bffffffffffffffffffffffffffffffffffffffffffffffffffffffff167f8f974d7f00000000000000000000000000000000000000000000000000000000179052517fffffffff0000000000000000000000000000000000000000000000000000000060e086901b1681526115d093929190600401613625565b611f2c612bd1565b6082546003906301000000900460ff1615611fc9576040517f08c379a000000000000000000000000000000000000000000000000000000000815260206004820152602160248201527f53797374656d4469637461746f723a20616c72656164792066696e616c697a6560448201527f64000000000000000000000000000000000000000000000000000000000000006064820152608401610567565b608254640100000000900460ff161561203e576040517f08c379a000000000000000000000000000000000000000000000000000000000815260206004820152601e60248201527f53797374656d4469637461746f723a20616c72656164792065786974656400006044820152606401610567565b60825460ff82811661010090920416146120b4576040517f08c379a000000000000000000000000000000000000000000000000000000000815260206004820152601e60248201527f53797374656d4469637461746f723a20696e636f7272656374207374657000006044820152606401610567565b60006040518061022001604052806040518060400160405280601d81526020017f4f564d5f43616e6f6e6963616c5472616e73616374696f6e436861696e00000081525081526020016040518060400160405280601a81526020017f4f564d5f4c3243726f7373446f6d61696e4d657373656e6765720000000000008152508152602001604051806060016040528060228152602001613a2e6022913981526020016040518060400160405280600d81526020017f4f564d5f53657175656e6365720000000000000000000000000000000000000081525081526020016040518060400160405280600c81526020017f4f564d5f50726f706f73657200000000000000000000000000000000000000008152508152602001604051806060016040528060258152602001613a50602591398152602001604051806060016040528060238152602001613a75602391398152604080518082018252601d81527f4f564d5f43616e6f6e6963616c5472616e73616374696f6e436861696e0000006020828101919091528084019190915281518083018352601881527f4f564d5f5374617465436f6d6d69746d656e74436861696e0000000000000000818301528284015281518083018352600f81527f4f564d5f426f6e644d616e61676572000000000000000000000000000000000081830152606084015281518083018352601481527f4f564d5f457865637574696f6e4d616e616765720000000000000000000000008183015260808401528151808301835260118082527f4f564d5f467261756456657269666965720000000000000000000000000000008284015260a085019190915282518084018452601781527f4f564d5f53746174654d616e61676572466163746f72790000000000000000008184015260c085015282518084018452601c81527f4f564d5f53746174655472616e736974696f6e6572466163746f7279000000008184015260e0850152825180840184529081527f4f564d5f536166657479436865636b65720000000000000000000000000000008183015261010084015281518083018352601981527f4f564d5f4c314d756c74694d65737361676552656c6179657200000000000000818301526101208401528151808301909252600b82527f426f6e644d616e616765720000000000000000000000000000000000000000009082015261014090910152905060005b60118110156124ce5760655473ffffffffffffffffffffffffffffffffffffffff16639b2ea4bd8383601181106124655761246561398e565b602002015160006040518363ffffffff1660e01b81526004016124899291906139bd565b600060405180830381600087803b1580156124a357600080fd5b505af11580156124b7573d6000803e3d6000fd5b5050505080806124c6906139f5565b91505061242c565b505060828054610100900460ff1690600161161b836137f4565b6124f0612bd1565b73ffffffffffffffffffffffffffffffffffffffff8116612593576040517f08c379a000000000000000000000000000000000000000000000000000000000815260206004820152602660248201527f4f776e61626c653a206e6577206f776e657220697320746865207a65726f206160448201527f64647265737300000000000000000000000000000000000000000000000000006064820152608401610567565b61259c81612b5a565b50565b6125a7612bd1565b6082546004906301000000900460ff1615612644576040517f08c379a000000000000000000000000000000000000000000000000000000000815260206004820152602160248201527f53797374656d4469637461746f723a20616c72656164792066696e616c697a6560448201527f64000000000000000000000000000000000000000000000000000000000000006064820152608401610567565b608254640100000000900460ff16156126b9576040517f08c379a000000000000000000000000000000000000000000000000000000000815260206004820152601e60248201527f53797374656d4469637461746f723a20616c72656164792065786974656400006044820152606401610567565b60825460ff828116610100909204161461272f576040517f08c379a000000000000000000000000000000000000000000000000000000000815260206004820152601e60248201527f53797374656d4469637461746f723a20696e636f7272656374207374657000006044820152606401610567565b6065546066546040517ff2fde38b00000000000000000000000000000000000000000000000000000000815273ffffffffffffffffffffffffffffffffffffffff918216600482015291169063f2fde38b90602401600060405180830381600087803b15801561279e57600080fd5b505af11580156127b2573d6000803e3d6000fd5b5050606c546066546040517f13af403500000000000000000000000000000000000000000000000000000000815273ffffffffffffffffffffffffffffffffffffffff9182166004820152911692506313af40359150602401600060405180830381600087803b15801561282557600080fd5b505af1158015612839573d6000803e3d6000fd5b5050606e546066546040517f8f28397000000000000000000000000000000000000000000000000000000000815273ffffffffffffffffffffffffffffffffffffffff918216600482015291169250638f28397091506024016115d0565b61289f612bd1565b608254610100900460ff16600314612939576040517f08c379a000000000000000000000000000000000000000000000000000000000815260206004820152603860248201527f53797374656d4469637461746f723a2063616e206f6e6c79206578697431206260448201527f65666f72652073746570203320697320657865637574656400000000000000006064820152608401610567565b6065546082546040517f9b2ea4bd00000000000000000000000000000000000000000000000000000000815273ffffffffffffffffffffffffffffffffffffffff92831692639b2ea4bd9261299e926501000000000090910490911690600401613873565b600060405180830381600087803b1580156129b857600080fd5b505af11580156129cc573d6000803e3d6000fd5b5050606554604080517f9b2ea4bd0000000000000000000000000000000000000000000000000000000081526004810191909152601160448201527f44544c5f534855544f46465f424c4f434b00000000000000000000000000000060648201526000602482015273ffffffffffffffffffffffffffffffffffffffff9091169250639b2ea4bd9150608401600060405180830381600087803b158015612a7257600080fd5b505af1158015612a86573d6000803e3d6000fd5b5050608280547fffffffffffffffffffffffffffffffffffffffffffffffffffffff00ffffffff166401000000001790555050565b600054610100900460ff16612b52576040517f08c379a000000000000000000000000000000000000000000000000000000000815260206004820152602b60248201527f496e697469616c697a61626c653a20636f6e7472616374206973206e6f74206960448201527f6e697469616c697a696e670000000000000000000000000000000000000000006064820152608401610567565b611649612c52565b6033805473ffffffffffffffffffffffffffffffffffffffff8381167fffffffffffffffffffffffff0000000000000000000000000000000000000000831681179093556040519116919082907f8be0079c531659141344cd1fd0a4f28419497f9722a3daafe3b4186f6b6457e090600090a35050565b60335473ffffffffffffffffffffffffffffffffffffffff163314611649576040517f08c379a000000000000000000000000000000000000000000000000000000000815260206004820181905260248201527f4f776e61626c653a2063616c6c6572206973206e6f7420746865206f776e65726044820152606401610567565b600054610100900460ff16612ce9576040517f08c379a000000000000000000000000000000000000000000000000000000000815260206004820152602b60248201527f496e697469616c697a61626c653a20636f6e7472616374206973206e6f74206960448201527f6e697469616c697a696e670000000000000000000000000000000000000000006064820152608401610567565b61164933612b5a565b60a0810181811067ffffffffffffffff82111715612d39577f4e487b7100000000000000000000000000000000000000000000000000000000600052604160045260246000fd5b60405250565b6080810181811067ffffffffffffffff82111715612d39577f4e487b7100000000000000000000000000000000000000000000000000000000600052604160045260246000fd5b7fffffffffffffffffffffffffffffffffffffffffffffffffffffffffffffffe0601f830116810181811067ffffffffffffffff82111715612df1577f4e487b7100000000000000000000000000000000000000000000000000000000600052604160045260246000fd5b6040525050565b604051610120810167ffffffffffffffff81118282101715612e43577f4e487b7100000000000000000000000000000000000000000000000000000000600052604160045260246000fd5b60405290565b73ffffffffffffffffffffffffffffffffffffffff8116811461259c57600080fd5b8035612e7681612e49565b919050565b6000610100808385031215612e8f57600080fd5b6040519081019067ffffffffffffffff82118183101715612ed9577f4e487b7100000000000000000000000000000000000000000000000000000000600052604160045260246000fd5b81604052809250612ee984612e6b565b8152612ef760208501612e6b565b6020820152612f0860408501612e6b565b6040820152612f1960608501612e6b565b6060820152612f2a60808501612e6b565b6080820152612f3b60a08501612e6b565b60a0820152612f4c60c08501612e6b565b60c0820152612f5d60e08501612e6b565b60e0820152505092915050565b60006101208284031215612f7d57600080fd5b612f85612df8565b9050612f9082612e6b565b8152612f9e60208301612e6b565b6020820152612faf60408301612e6b565b6040820152612fc060608301612e6b565b6060820152612fd160808301612e6b565b6080820152612fe260a08301612e6b565b60a0820152612ff360c08301612e6b565b60c082015261300460e08301612e6b565b60e0820152610100613017818401612e6b565b9082015292915050565b600060c0828403121561303357600080fd5b60405160c0810167ffffffffffffffff828210818311171561307e577f4e487b7100000000000000000000000000000000000000000000000000000000600052604160045260246000fd5b816040528293508435915061309282612e49565b8183526020850135602084015260408501356040840152606085013560608401526080850135915080821682146130c857600080fd5b5060808201526130da60a08401612e6b565b60a08201525092915050565b6000602082840312156130f857600080fd5b6040516020810181811067ffffffffffffffff82111715613142577f4e487b7100000000000000000000000000000000000000000000000000000000600052604160045260246000fd5b604052905080823561315381612e49565b905292915050565b600081830361038081121561316f57600080fd5b60405161317b81612cf2565b608082121561318957600080fd5b604051915061319782612d3f565b83356131a281612e49565b825260208401356131b281612e49565b602083015260408401356131c581612e49565b604083015260608401356131d881612e49565b60608301528181526131ed8560808601612e7b565b6020820152613200856101808601612f6a565b6040820152613213856102a08601613021565b60608201526132268561036086016130e6565b6080820152949350505050565b73ffffffffffffffffffffffffffffffffffffffff80825116835280602083015116602084015280604083015116604084015250606081015161328e606084018273ffffffffffffffffffffffffffffffffffffffff169052565b5060808101516132b6608084018273ffffffffffffffffffffffffffffffffffffffff169052565b5060a08101516132de60a084018273ffffffffffffffffffffffffffffffffffffffff169052565b5060c081015161330660c084018273ffffffffffffffffffffffffffffffffffffffff169052565b5060e081015161332e60e084018273ffffffffffffffffffffffffffffffffffffffff169052565b506101008181015173ffffffffffffffffffffffffffffffffffffffff8116848301525b50505050565b855173ffffffffffffffffffffffffffffffffffffffff90811682526020808801518216818401526040808901518316818501526060808a015184168186015288518416608086015291880151831660a0850152870151821660c084015286015190811660e083015261038082019050608086015173ffffffffffffffffffffffffffffffffffffffff81166101008401525060a086015173ffffffffffffffffffffffffffffffffffffffff81166101208401525060c086015173ffffffffffffffffffffffffffffffffffffffff81166101408401525060e086015173ffffffffffffffffffffffffffffffffffffffff811661016084015250613462610180830186613233565b835173ffffffffffffffffffffffffffffffffffffffff9081166102a084015260208501516102c084015260408501516102e08401526060850151610300840152608085015167ffffffffffffffff1661032084015260a085015116610340830152825173ffffffffffffffffffffffffffffffffffffffff166103608301529695505050505050565b600080828403606081121561350057600080fd5b604081121561350e57600080fd5b506040516040810181811067ffffffffffffffff82111715613559577f4e487b7100000000000000000000000000000000000000000000000000000000600052604160045260246000fd5b60409081528435825260208086013590830152909250830135801515811461358057600080fd5b809150509250929050565b60006020828403121561359d57600080fd5b81356135a881612e49565b9392505050565b60005b838110156135ca5781810151838201526020016135b2565b838111156133525750506000910152565b600081518084526135f38160208601602086016135af565b601f017fffffffffffffffffffffffffffffffffffffffffffffffffffffffffffffffe0169290920160200192915050565b600073ffffffffffffffffffffffffffffffffffffffff80861683528085166020840152506060604083015261365e60608301846135db565b95945050505050565b600060033d11156136805760046000803e5060005160e01c5b90565b600060443d10156136915790565b6040517ffffffffffffffffffffffffffffffffffffffffffffffffffffffffffffffffc803d016004833e81513d67ffffffffffffffff81602484011181841117156136df57505050505090565b82850191508151818111156136f75750505050505090565b843d87010160208285010111156137115750505050505090565b61372060208286010187612d86565b509095945050505050565b6000825161373d8184602087016135af565b9190910192915050565b7f53797374656d4469637461746f723a20756e6578706563746564206572726f7281527f20696e697469616c697a696e67204c3158444d3a2000000000000000000000006020820152600082516137a58160358501602087016135af565b9190910160350192915050565b6020815260006135a860208301846135db565b7f4e487b7100000000000000000000000000000000000000000000000000000000600052601160045260246000fd5b600060ff821660ff810361380a5761380a6137c5565b60010192915050565b60208152600061385060208301601a81527f4f564d5f4c3143726f7373446f6d61696e4d657373656e676572000000000000602082015260400190565b92915050565b60006020828403121561386857600080fd5b81516135a881612e49565b6040815260006138b060408301601a81527f4f564d5f4c3143726f7373446f6d61696e4d657373656e676572000000000000602082015260400190565b905073ffffffffffffffffffffffffffffffffffffffff8316602083015292915050565b73ffffffffffffffffffffffffffffffffffffffff831681526040810160038310613928577f4e487b7100000000000000000000000000000000000000000000000000000000600052602160045260246000fd5b8260208301529392505050565b73ffffffffffffffffffffffffffffffffffffffff821681526040602082015260006135a860408301601a81527f4f564d5f4c3143726f7373446f6d61696e4d657373656e676572000000000000602082015260400190565b7f4e487b7100000000000000000000000000000000000000000000000000000000600052603260045260246000fd5b6040815260006139d060408301856135db565b905073ffffffffffffffffffffffffffffffffffffffff831660208301529392505050565b60007fffffffffffffffffffffffffffffffffffffffffffffffffffffffffffffffff8203613a2657613a266137c5565b506001019056fe4f564d5f4465636f6d7072657373696f6e507265636f6d70696c65416464726573734f564d5f436861696e53746f72616765436f6e7461696e65722d4354432d626174636865734f564d5f436861696e53746f72616765436f6e7461696e65722d4354432d7175657565a164736f6c634300080f000a",
  "devdoc": {
    "version": 1,
    "kind": "dev",
    "methods": {
      "initialize(((address,address,address,address),(address,address,address,address,address,address,address,address),(address,address,address,address,address,address,address,address,address),(address,uint256,uint256,bytes32,uint64,address),(address)))": {
        "params": {
          "_config": "System configuration."
        }
      },
      "owner()": {
        "details": "Returns the address of the current owner."
      },
      "renounceOwnership()": {
        "details": "Leaves the contract without owner. It will not be possible to call `onlyOwner` functions anymore. Can only be called by the current owner. NOTE: Renouncing ownership will leave the contract without an owner, thereby removing any functionality that is only available to the owner."
      },
      "transferOwnership(address)": {
        "details": "Transfers ownership of the contract to a new account (`newOwner`). Can only be called by the current owner."
      },
      "updateDynamicConfig((uint256,uint256),bool)": {
        "params": {
          "_l2OutputOracleDynamicConfig": "Dynamic L2OutputOracle config.",
          "_optimismPortalDynamicConfig": "Dynamic OptimismPortal config."
        }
      }
    },
    "title": "SystemDictator"
  },
  "userdoc": {
    "version": 1,
    "kind": "user",
    "methods": {
      "EXIT_1_NO_RETURN_STEP()": {
        "notice": "Step after which exit 1 can no longer be used."
      },
      "PROXY_TRANSFER_STEP()": {
        "notice": "Step where proxy ownership is transferred."
      },
      "config()": {
        "notice": "System configuration."
      },
      "currentStep()": {
        "notice": "Current step;"
      },
      "dynamicConfigSet()": {
        "notice": "Whether or not dynamic config has been set."
      },
      "exit1()": {
        "notice": "First exit point, can only be called before step 3 is executed."
      },
      "exited()": {
        "notice": "Whether or not the deployment has been exited."
      },
      "finalize()": {
        "notice": "Tranfers admin ownership to the final owner."
      },
      "finalized()": {
        "notice": "Whether or not the deployment is finalized."
      },
      "l2OutputOracleDynamicConfig()": {
        "notice": "Dynamic configuration for the L2OutputOracle."
      },
      "oldL1CrossDomainMessenger()": {
        "notice": "Address of the old L1CrossDomainMessenger implementation."
      },
      "optimismPortalDynamicConfig()": {
        "notice": "Dynamic configuration for the OptimismPortal. Determines         if the system should be paused when initialized."
      },
      "step1()": {
        "notice": "Configures the ProxyAdmin contract."
      },
      "step2()": {
        "notice": "Pauses the system by shutting down the L1CrossDomainMessenger and setting the         deposit halt flag to tell the Sequencer's DTL to stop accepting deposits."
      },
      "step3()": {
        "notice": "Removes deprecated addresses from the AddressManager."
      },
      "step4()": {
        "notice": "Transfers system ownership to the ProxyAdmin."
      },
      "step5()": {
        "notice": "Upgrades and initializes proxy contracts."
      },
      "updateDynamicConfig((uint256,uint256),bool)": {
        "notice": "Allows the owner to update dynamic config."
      }
    },
    "notice": "The SystemDictator is responsible for coordinating the deployment of a full Bedrock         system. The SystemDictator is designed to support both fresh network deployments and         upgrades to existing pre-Bedrock systems."
  },
  "storageLayout": {
    "storage": [
      {
        "astId": 48139,
        "contract": "contracts/deployment/SystemDictator.sol:SystemDictator",
        "label": "_initialized",
        "offset": 0,
        "slot": "0",
        "type": "t_uint8"
      },
      {
        "astId": 48142,
        "contract": "contracts/deployment/SystemDictator.sol:SystemDictator",
        "label": "_initializing",
        "offset": 1,
        "slot": "0",
        "type": "t_bool"
      },
      {
        "astId": 48567,
        "contract": "contracts/deployment/SystemDictator.sol:SystemDictator",
        "label": "__gap",
        "offset": 0,
        "slot": "1",
        "type": "t_array(t_uint256)50_storage"
      },
      {
        "astId": 48011,
        "contract": "contracts/deployment/SystemDictator.sol:SystemDictator",
        "label": "_owner",
        "offset": 0,
        "slot": "51",
        "type": "t_address"
      },
      {
        "astId": 48131,
        "contract": "contracts/deployment/SystemDictator.sol:SystemDictator",
        "label": "__gap",
        "offset": 0,
        "slot": "52",
        "type": "t_array(t_uint256)49_storage"
      },
      {
        "astId": 4176,
        "contract": "contracts/deployment/SystemDictator.sol:SystemDictator",
        "label": "config",
        "offset": 0,
        "slot": "101",
        "type": "t_struct(DeployConfig)4164_storage"
      },
      {
        "astId": 4180,
        "contract": "contracts/deployment/SystemDictator.sol:SystemDictator",
        "label": "l2OutputOracleDynamicConfig",
        "offset": 0,
        "slot": "128",
        "type": "t_struct(L2OutputOracleDynamicConfig)4135_storage"
      },
      {
        "astId": 4183,
        "contract": "contracts/deployment/SystemDictator.sol:SystemDictator",
        "label": "optimismPortalDynamicConfig",
        "offset": 0,
        "slot": "130",
        "type": "t_bool"
      },
      {
        "astId": 4186,
        "contract": "contracts/deployment/SystemDictator.sol:SystemDictator",
        "label": "currentStep",
        "offset": 1,
        "slot": "130",
        "type": "t_uint8"
      },
      {
        "astId": 4189,
        "contract": "contracts/deployment/SystemDictator.sol:SystemDictator",
        "label": "dynamicConfigSet",
        "offset": 2,
        "slot": "130",
        "type": "t_bool"
      },
      {
        "astId": 4192,
        "contract": "contracts/deployment/SystemDictator.sol:SystemDictator",
        "label": "finalized",
        "offset": 3,
        "slot": "130",
        "type": "t_bool"
      },
      {
        "astId": 4195,
        "contract": "contracts/deployment/SystemDictator.sol:SystemDictator",
        "label": "exited",
        "offset": 4,
        "slot": "130",
        "type": "t_bool"
      },
      {
        "astId": 4198,
        "contract": "contracts/deployment/SystemDictator.sol:SystemDictator",
        "label": "oldL1CrossDomainMessenger",
        "offset": 5,
        "slot": "130",
        "type": "t_address"
      }
    ],
    "types": {
      "t_address": {
        "encoding": "inplace",
        "label": "address",
        "numberOfBytes": "20"
      },
      "t_array(t_uint256)49_storage": {
        "encoding": "inplace",
        "label": "uint256[49]",
        "numberOfBytes": "1568",
        "base": "t_uint256"
      },
      "t_array(t_uint256)50_storage": {
        "encoding": "inplace",
        "label": "uint256[50]",
        "numberOfBytes": "1600",
        "base": "t_uint256"
      },
      "t_bool": {
        "encoding": "inplace",
        "label": "bool",
        "numberOfBytes": "1"
      },
      "t_bytes32": {
        "encoding": "inplace",
        "label": "bytes32",
        "numberOfBytes": "32"
      },
      "t_contract(AddressManager)6242": {
        "encoding": "inplace",
        "label": "contract AddressManager",
        "numberOfBytes": "20"
      },
      "t_contract(BatchInbox)80": {
        "encoding": "inplace",
        "label": "contract BatchInbox",
        "numberOfBytes": "20"
      },
      "t_contract(L1CrossDomainMessenger)206": {
        "encoding": "inplace",
        "label": "contract L1CrossDomainMessenger",
        "numberOfBytes": "20"
      },
      "t_contract(L1ERC721Bridge)406": {
        "encoding": "inplace",
        "label": "contract L1ERC721Bridge",
        "numberOfBytes": "20"
      },
      "t_contract(L1StandardBridge)853": {
        "encoding": "inplace",
        "label": "contract L1StandardBridge",
        "numberOfBytes": "20"
      },
      "t_contract(L2OutputOracle)1314": {
        "encoding": "inplace",
        "label": "contract L2OutputOracle",
        "numberOfBytes": "20"
      },
      "t_contract(OptimismMintableERC20Factory)46093": {
        "encoding": "inplace",
        "label": "contract OptimismMintableERC20Factory",
        "numberOfBytes": "20"
      },
      "t_contract(OptimismPortal)1938": {
        "encoding": "inplace",
        "label": "contract OptimismPortal",
        "numberOfBytes": "20"
      },
      "t_contract(PortalSender)4038": {
        "encoding": "inplace",
        "label": "contract PortalSender",
        "numberOfBytes": "20"
      },
      "t_contract(ProxyAdmin)47154": {
        "encoding": "inplace",
        "label": "contract ProxyAdmin",
        "numberOfBytes": "20"
      },
      "t_contract(SystemConfig)2520": {
        "encoding": "inplace",
        "label": "contract SystemConfig",
        "numberOfBytes": "20"
      },
      "t_struct(BatchInboxConfig)4130_storage": {
        "encoding": "inplace",
        "label": "struct SystemDictator.BatchInboxConfig",
        "numberOfBytes": "32",
        "members": [
          {
            "astId": 4129,
            "contract": "contracts/deployment/SystemDictator.sol:SystemDictator",
            "label": "batchInboxOwner",
            "offset": 0,
            "slot": "0",
            "type": "t_address"
          }
        ]
      },
      "t_struct(DeployConfig)4164_storage": {
        "encoding": "inplace",
        "label": "struct SystemDictator.DeployConfig",
        "numberOfBytes": "864",
        "members": [
          {
            "astId": 4151,
            "contract": "contracts/deployment/SystemDictator.sol:SystemDictator",
            "label": "globalConfig",
            "offset": 0,
            "slot": "0",
            "type": "t_struct(GlobalConfig)4082_storage"
          },
          {
            "astId": 4154,
            "contract": "contracts/deployment/SystemDictator.sol:SystemDictator",
            "label": "proxyAddressConfig",
            "offset": 0,
            "slot": "4",
            "type": "t_struct(ProxyAddressConfig)4099_storage"
          },
          {
            "astId": 4157,
            "contract": "contracts/deployment/SystemDictator.sol:SystemDictator",
            "label": "implementationAddressConfig",
            "offset": 0,
            "slot": "12",
            "type": "t_struct(ImplementationAddressConfig)4127_storage"
          },
          {
            "astId": 4160,
            "contract": "contracts/deployment/SystemDictator.sol:SystemDictator",
            "label": "systemConfigConfig",
            "offset": 0,
            "slot": "21",
            "type": "t_struct(SystemConfigConfig)4148_storage"
          },
          {
            "astId": 4163,
            "contract": "contracts/deployment/SystemDictator.sol:SystemDictator",
            "label": "batchInboxConfig",
            "offset": 0,
            "slot": "26",
            "type": "t_struct(BatchInboxConfig)4130_storage"
          }
        ]
      },
      "t_struct(GlobalConfig)4082_storage": {
        "encoding": "inplace",
        "label": "struct SystemDictator.GlobalConfig",
        "numberOfBytes": "128",
        "members": [
          {
            "astId": 4074,
            "contract": "contracts/deployment/SystemDictator.sol:SystemDictator",
            "label": "addressManager",
            "offset": 0,
            "slot": "0",
            "type": "t_contract(AddressManager)6242"
          },
          {
            "astId": 4077,
            "contract": "contracts/deployment/SystemDictator.sol:SystemDictator",
            "label": "proxyAdmin",
            "offset": 0,
            "slot": "1",
            "type": "t_contract(ProxyAdmin)47154"
          },
          {
            "astId": 4079,
            "contract": "contracts/deployment/SystemDictator.sol:SystemDictator",
            "label": "controller",
            "offset": 0,
            "slot": "2",
            "type": "t_address"
          },
          {
            "astId": 4081,
            "contract": "contracts/deployment/SystemDictator.sol:SystemDictator",
            "label": "finalOwner",
            "offset": 0,
            "slot": "3",
            "type": "t_address"
          }
        ]
      },
      "t_struct(ImplementationAddressConfig)4127_storage": {
        "encoding": "inplace",
        "label": "struct SystemDictator.ImplementationAddressConfig",
        "numberOfBytes": "288",
        "members": [
          {
            "astId": 4102,
            "contract": "contracts/deployment/SystemDictator.sol:SystemDictator",
            "label": "l2OutputOracleImpl",
            "offset": 0,
            "slot": "0",
            "type": "t_contract(L2OutputOracle)1314"
          },
          {
            "astId": 4105,
            "contract": "contracts/deployment/SystemDictator.sol:SystemDictator",
            "label": "optimismPortalImpl",
            "offset": 0,
            "slot": "1",
            "type": "t_contract(OptimismPortal)1938"
          },
          {
            "astId": 4108,
            "contract": "contracts/deployment/SystemDictator.sol:SystemDictator",
            "label": "l1CrossDomainMessengerImpl",
            "offset": 0,
            "slot": "2",
            "type": "t_contract(L1CrossDomainMessenger)206"
          },
          {
            "astId": 4111,
            "contract": "contracts/deployment/SystemDictator.sol:SystemDictator",
            "label": "l1StandardBridgeImpl",
            "offset": 0,
            "slot": "3",
            "type": "t_contract(L1StandardBridge)853"
          },
          {
            "astId": 4114,
            "contract": "contracts/deployment/SystemDictator.sol:SystemDictator",
            "label": "optimismMintableERC20FactoryImpl",
            "offset": 0,
            "slot": "4",
            "type": "t_contract(OptimismMintableERC20Factory)46093"
          },
          {
            "astId": 4117,
            "contract": "contracts/deployment/SystemDictator.sol:SystemDictator",
            "label": "l1ERC721BridgeImpl",
            "offset": 0,
            "slot": "5",
            "type": "t_contract(L1ERC721Bridge)406"
          },
          {
            "astId": 4120,
            "contract": "contracts/deployment/SystemDictator.sol:SystemDictator",
            "label": "portalSenderImpl",
            "offset": 0,
            "slot": "6",
            "type": "t_contract(PortalSender)4038"
          },
          {
            "astId": 4123,
            "contract": "contracts/deployment/SystemDictator.sol:SystemDictator",
            "label": "systemConfigImpl",
            "offset": 0,
            "slot": "7",
            "type": "t_contract(SystemConfig)2520"
          },
          {
            "astId": 4126,
            "contract": "contracts/deployment/SystemDictator.sol:SystemDictator",
            "label": "batchInboxImpl",
            "offset": 0,
            "slot": "8",
            "type": "t_contract(BatchInbox)80"
          }
        ]
      },
      "t_struct(L2OutputOracleDynamicConfig)4135_storage": {
        "encoding": "inplace",
        "label": "struct SystemDictator.L2OutputOracleDynamicConfig",
        "numberOfBytes": "64",
        "members": [
          {
            "astId": 4132,
            "contract": "contracts/deployment/SystemDictator.sol:SystemDictator",
            "label": "l2OutputOracleStartingBlockNumber",
            "offset": 0,
            "slot": "0",
            "type": "t_uint256"
          },
          {
            "astId": 4134,
            "contract": "contracts/deployment/SystemDictator.sol:SystemDictator",
            "label": "l2OutputOracleStartingTimestamp",
            "offset": 0,
            "slot": "1",
            "type": "t_uint256"
          }
        ]
      },
      "t_struct(ProxyAddressConfig)4099_storage": {
        "encoding": "inplace",
        "label": "struct SystemDictator.ProxyAddressConfig",
        "numberOfBytes": "256",
        "members": [
          {
            "astId": 4084,
            "contract": "contracts/deployment/SystemDictator.sol:SystemDictator",
            "label": "l2OutputOracleProxy",
            "offset": 0,
            "slot": "0",
            "type": "t_address"
          },
          {
            "astId": 4086,
            "contract": "contracts/deployment/SystemDictator.sol:SystemDictator",
            "label": "optimismPortalProxy",
            "offset": 0,
            "slot": "1",
            "type": "t_address"
          },
          {
            "astId": 4088,
            "contract": "contracts/deployment/SystemDictator.sol:SystemDictator",
            "label": "l1CrossDomainMessengerProxy",
            "offset": 0,
            "slot": "2",
            "type": "t_address"
          },
          {
            "astId": 4090,
            "contract": "contracts/deployment/SystemDictator.sol:SystemDictator",
            "label": "l1StandardBridgeProxy",
            "offset": 0,
            "slot": "3",
            "type": "t_address"
          },
          {
            "astId": 4092,
            "contract": "contracts/deployment/SystemDictator.sol:SystemDictator",
            "label": "optimismMintableERC20FactoryProxy",
            "offset": 0,
            "slot": "4",
            "type": "t_address"
          },
          {
            "astId": 4094,
            "contract": "contracts/deployment/SystemDictator.sol:SystemDictator",
            "label": "l1ERC721BridgeProxy",
            "offset": 0,
            "slot": "5",
            "type": "t_address"
          },
          {
            "astId": 4096,
            "contract": "contracts/deployment/SystemDictator.sol:SystemDictator",
            "label": "systemConfigProxy",
            "offset": 0,
            "slot": "6",
            "type": "t_address"
          },
          {
            "astId": 4098,
            "contract": "contracts/deployment/SystemDictator.sol:SystemDictator",
            "label": "batchInboxProxy",
            "offset": 0,
            "slot": "7",
            "type": "t_address"
          }
        ]
      },
      "t_struct(SystemConfigConfig)4148_storage": {
        "encoding": "inplace",
        "label": "struct SystemDictator.SystemConfigConfig",
        "numberOfBytes": "160",
        "members": [
          {
            "astId": 4137,
            "contract": "contracts/deployment/SystemDictator.sol:SystemDictator",
            "label": "owner",
            "offset": 0,
            "slot": "0",
            "type": "t_address"
          },
          {
            "astId": 4139,
            "contract": "contracts/deployment/SystemDictator.sol:SystemDictator",
            "label": "overhead",
            "offset": 0,
            "slot": "1",
            "type": "t_uint256"
          },
          {
            "astId": 4141,
            "contract": "contracts/deployment/SystemDictator.sol:SystemDictator",
            "label": "scalar",
            "offset": 0,
            "slot": "2",
            "type": "t_uint256"
          },
          {
            "astId": 4143,
            "contract": "contracts/deployment/SystemDictator.sol:SystemDictator",
            "label": "batcherHash",
            "offset": 0,
            "slot": "3",
            "type": "t_bytes32"
          },
          {
            "astId": 4145,
            "contract": "contracts/deployment/SystemDictator.sol:SystemDictator",
            "label": "gasLimit",
            "offset": 0,
            "slot": "4",
            "type": "t_uint64"
          },
          {
            "astId": 4147,
            "contract": "contracts/deployment/SystemDictator.sol:SystemDictator",
            "label": "unsafeBlockSigner",
            "offset": 8,
            "slot": "4",
            "type": "t_address"
          }
        ]
      },
      "t_uint256": {
        "encoding": "inplace",
        "label": "uint256",
        "numberOfBytes": "32"
      },
      "t_uint64": {
        "encoding": "inplace",
        "label": "uint64",
        "numberOfBytes": "8"
      },
      "t_uint8": {
        "encoding": "inplace",
        "label": "uint8",
        "numberOfBytes": "1"
      }
    }
  }
}